{
  "contractName": "Flower",
  "abi": [
    {
      "inputs": [
        {
          "internalType": "string",
          "name": "_initBaseURI",
          "type": "string"
        },
        {
          "internalType": "address",
          "name": "buildABetterFutureContract",
          "type": "address"
        },
        {
          "internalType": "address",
          "name": "timePieceCommunityContract",
          "type": "address"
        }
      ],
      "stateMutability": "nonpayable",
      "type": "constructor"
    },
    {
      "anonymous": false,
      "inputs": [
        {
          "indexed": true,
          "internalType": "address",
          "name": "owner",
          "type": "address"
        },
        {
          "indexed": true,
          "internalType": "address",
          "name": "approved",
          "type": "address"
        },
        {
          "indexed": true,
          "internalType": "uint256",
          "name": "tokenId",
          "type": "uint256"
        }
      ],
      "name": "Approval",
      "type": "event"
    },
    {
      "anonymous": false,
      "inputs": [
        {
          "indexed": true,
          "internalType": "address",
          "name": "owner",
          "type": "address"
        },
        {
          "indexed": true,
          "internalType": "address",
          "name": "operator",
          "type": "address"
        },
        {
          "indexed": false,
          "internalType": "bool",
          "name": "approved",
          "type": "bool"
        }
      ],
      "name": "ApprovalForAll",
      "type": "event"
    },
    {
      "anonymous": false,
      "inputs": [
        {
          "indexed": true,
          "internalType": "address",
          "name": "_address",
          "type": "address"
        },
        {
          "indexed": false,
          "internalType": "uint256",
          "name": "_tokenId",
          "type": "uint256"
        }
      ],
      "name": "LogMintNonCollector",
      "type": "event"
    },
    {
      "anonymous": false,
      "inputs": [
        {
          "indexed": true,
          "internalType": "address",
          "name": "_address",
          "type": "address"
        },
        {
          "indexed": false,
          "internalType": "uint256",
          "name": "_tokenId",
          "type": "uint256"
        }
      ],
      "name": "LogMintOneOfOneHolder",
      "type": "event"
    },
    {
      "anonymous": false,
      "inputs": [
        {
          "indexed": true,
          "internalType": "address",
          "name": "_address",
          "type": "address"
        },
        {
          "indexed": false,
          "internalType": "uint256",
          "name": "_tokenId",
          "type": "uint256"
        }
      ],
      "name": "LogMintOpenEdition",
      "type": "event"
    },
    {
      "anonymous": false,
      "inputs": [
        {
          "indexed": true,
          "internalType": "address",
          "name": "previousOwner",
          "type": "address"
        },
        {
          "indexed": true,
          "internalType": "address",
          "name": "newOwner",
          "type": "address"
        }
      ],
      "name": "OwnershipTransferred",
      "type": "event"
    },
    {
      "anonymous": false,
      "inputs": [
        {
          "indexed": true,
          "internalType": "address",
          "name": "from",
          "type": "address"
        },
        {
          "indexed": true,
          "internalType": "address",
          "name": "to",
          "type": "address"
        },
        {
          "indexed": true,
          "internalType": "uint256",
          "name": "tokenId",
          "type": "uint256"
        }
      ],
      "name": "Transfer",
      "type": "event"
    },
    {
      "inputs": [
        {
          "internalType": "address",
          "name": "to",
          "type": "address"
        },
        {
          "internalType": "uint256",
          "name": "tokenId",
          "type": "uint256"
        }
      ],
      "name": "approve",
      "outputs": [],
      "stateMutability": "nonpayable",
      "type": "function"
    },
    {
      "inputs": [
        {
          "internalType": "address",
          "name": "owner",
          "type": "address"
        }
      ],
      "name": "balanceOf",
      "outputs": [
        {
          "internalType": "uint256",
          "name": "",
          "type": "uint256"
        }
      ],
      "stateMutability": "view",
      "type": "function"
    },
    {
      "inputs": [],
      "name": "baseURI",
      "outputs": [
        {
          "internalType": "string",
          "name": "",
          "type": "string"
        }
      ],
      "stateMutability": "view",
      "type": "function"
    },
    {
      "inputs": [
        {
          "internalType": "uint256",
          "name": "tokenId",
          "type": "uint256"
        }
      ],
      "name": "getApproved",
      "outputs": [
        {
          "internalType": "address",
          "name": "",
          "type": "address"
        }
      ],
      "stateMutability": "view",
      "type": "function"
    },
    {
      "inputs": [
        {
          "internalType": "uint256",
          "name": "",
          "type": "uint256"
        }
      ],
      "name": "graceIITokenMintList",
      "outputs": [
        {
          "internalType": "bool",
          "name": "",
          "type": "bool"
        }
      ],
      "stateMutability": "view",
      "type": "function"
    },
    {
      "inputs": [
        {
          "internalType": "address",
          "name": "owner",
          "type": "address"
        },
        {
          "internalType": "address",
          "name": "operator",
          "type": "address"
        }
      ],
      "name": "isApprovedForAll",
      "outputs": [
        {
          "internalType": "bool",
          "name": "",
          "type": "bool"
        }
      ],
      "stateMutability": "view",
      "type": "function"
    },
    {
      "inputs": [],
      "name": "name",
      "outputs": [
        {
          "internalType": "string",
          "name": "",
          "type": "string"
        }
      ],
      "stateMutability": "view",
      "type": "function"
    },
    {
      "inputs": [
        {
          "internalType": "address",
          "name": "",
          "type": "address"
        }
      ],
      "name": "nonCollectorsMintList",
      "outputs": [
        {
          "internalType": "bool",
          "name": "",
          "type": "bool"
        }
      ],
      "stateMutability": "view",
      "type": "function"
    },
    {
      "inputs": [
        {
          "internalType": "address",
          "name": "",
          "type": "address"
        }
      ],
      "name": "oneOfOneMintList",
      "outputs": [
        {
          "internalType": "bool",
          "name": "",
          "type": "bool"
        }
      ],
      "stateMutability": "view",
      "type": "function"
    },
    {
      "inputs": [
        {
          "internalType": "address",
          "name": "",
          "type": "address"
        }
      ],
      "name": "openEditionCollectorsMintList",
      "outputs": [
        {
          "internalType": "bool",
          "name": "",
          "type": "bool"
        }
      ],
      "stateMutability": "view",
      "type": "function"
    },
    {
      "inputs": [],
      "name": "owner",
      "outputs": [
        {
          "internalType": "address",
          "name": "",
          "type": "address"
        }
      ],
      "stateMutability": "view",
      "type": "function"
    },
    {
      "inputs": [
        {
          "internalType": "uint256",
          "name": "tokenId",
          "type": "uint256"
        }
      ],
      "name": "ownerOf",
      "outputs": [
        {
          "internalType": "address",
          "name": "",
          "type": "address"
        }
      ],
      "stateMutability": "view",
      "type": "function"
    },
    {
      "inputs": [],
      "name": "renounceOwnership",
      "outputs": [],
      "stateMutability": "nonpayable",
      "type": "function"
    },
    {
      "inputs": [
        {
          "internalType": "uint256",
          "name": "",
          "type": "uint256"
        }
      ],
      "name": "safeHavenTokenMintList",
      "outputs": [
        {
          "internalType": "bool",
          "name": "",
          "type": "bool"
        }
      ],
      "stateMutability": "view",
      "type": "function"
    },
    {
      "inputs": [
        {
          "internalType": "address",
          "name": "from",
          "type": "address"
        },
        {
          "internalType": "address",
          "name": "to",
          "type": "address"
        },
        {
          "internalType": "uint256",
          "name": "tokenId",
          "type": "uint256"
        }
      ],
      "name": "safeTransferFrom",
      "outputs": [],
      "stateMutability": "nonpayable",
      "type": "function"
    },
    {
      "inputs": [
        {
          "internalType": "address",
          "name": "from",
          "type": "address"
        },
        {
          "internalType": "address",
          "name": "to",
          "type": "address"
        },
        {
          "internalType": "uint256",
          "name": "tokenId",
          "type": "uint256"
        },
        {
          "internalType": "bytes",
          "name": "_data",
          "type": "bytes"
        }
      ],
      "name": "safeTransferFrom",
      "outputs": [],
      "stateMutability": "nonpayable",
      "type": "function"
    },
    {
      "inputs": [
        {
          "internalType": "address",
          "name": "operator",
          "type": "address"
        },
        {
          "internalType": "bool",
          "name": "approved",
          "type": "bool"
        }
      ],
      "name": "setApprovalForAll",
      "outputs": [],
      "stateMutability": "nonpayable",
      "type": "function"
    },
    {
      "inputs": [
        {
          "internalType": "bytes4",
          "name": "interfaceId",
          "type": "bytes4"
        }
      ],
      "name": "supportsInterface",
      "outputs": [
        {
          "internalType": "bool",
          "name": "",
          "type": "bool"
        }
      ],
      "stateMutability": "view",
      "type": "function"
    },
    {
      "inputs": [],
      "name": "symbol",
      "outputs": [
        {
          "internalType": "string",
          "name": "",
          "type": "string"
        }
      ],
      "stateMutability": "view",
      "type": "function"
    },
    {
      "inputs": [
        {
          "internalType": "uint256",
          "name": "index",
          "type": "uint256"
        }
      ],
      "name": "tokenByIndex",
      "outputs": [
        {
          "internalType": "uint256",
          "name": "",
          "type": "uint256"
        }
      ],
      "stateMutability": "view",
      "type": "function"
    },
    {
      "inputs": [
        {
          "internalType": "address",
          "name": "owner",
          "type": "address"
        },
        {
          "internalType": "uint256",
          "name": "index",
          "type": "uint256"
        }
      ],
      "name": "tokenOfOwnerByIndex",
      "outputs": [
        {
          "internalType": "uint256",
          "name": "",
          "type": "uint256"
        }
      ],
      "stateMutability": "view",
      "type": "function"
    },
    {
      "inputs": [
        {
          "internalType": "uint256",
          "name": "tokenId",
          "type": "uint256"
        }
      ],
      "name": "tokenURI",
      "outputs": [
        {
          "internalType": "string",
          "name": "",
          "type": "string"
        }
      ],
      "stateMutability": "view",
      "type": "function"
    },
    {
      "inputs": [],
      "name": "totalSupply",
      "outputs": [
        {
          "internalType": "uint256",
          "name": "",
          "type": "uint256"
        }
      ],
      "stateMutability": "view",
      "type": "function"
    },
    {
      "inputs": [
        {
          "internalType": "address",
          "name": "from",
          "type": "address"
        },
        {
          "internalType": "address",
          "name": "to",
          "type": "address"
        },
        {
          "internalType": "uint256",
          "name": "tokenId",
          "type": "uint256"
        }
      ],
      "name": "transferFrom",
      "outputs": [],
      "stateMutability": "nonpayable",
      "type": "function"
    },
    {
      "inputs": [
        {
          "internalType": "address",
          "name": "newOwner",
          "type": "address"
        }
      ],
      "name": "transferOwnership",
      "outputs": [],
      "stateMutability": "nonpayable",
      "type": "function"
    },
    {
      "inputs": [
        {
          "internalType": "address",
          "name": "_wallet",
          "type": "address"
        }
      ],
      "name": "isOneOfOneCollector",
      "outputs": [
        {
          "internalType": "bool",
          "name": "",
          "type": "bool"
        }
      ],
      "stateMutability": "view",
      "type": "function"
    },
    {
      "inputs": [
        {
          "internalType": "address",
          "name": "_wallet",
          "type": "address"
        }
      ],
      "name": "isNonCollector",
      "outputs": [
        {
          "internalType": "bool",
          "name": "",
          "type": "bool"
        }
      ],
      "stateMutability": "view",
      "type": "function"
    },
    {
      "inputs": [
        {
          "internalType": "address",
          "name": "_wallet",
          "type": "address"
        },
        {
          "internalType": "uint256",
          "name": "_tokenId",
          "type": "uint256"
        }
      ],
      "name": "isSafeHavenOwner",
      "outputs": [
        {
          "internalType": "bool",
          "name": "",
          "type": "bool"
        }
      ],
      "stateMutability": "view",
      "type": "function"
    },
    {
      "inputs": [
        {
          "internalType": "address",
          "name": "_wallet",
          "type": "address"
        },
        {
          "internalType": "uint256",
          "name": "_tokenId",
          "type": "uint256"
        }
      ],
      "name": "isGraceIIOwner",
      "outputs": [
        {
          "internalType": "bool",
          "name": "",
          "type": "bool"
        }
      ],
      "stateMutability": "view",
      "type": "function"
    },
    {
      "inputs": [
        {
          "internalType": "address",
          "name": "_wallet",
          "type": "address"
        }
      ],
      "name": "isOpenEditionCollector",
      "outputs": [
        {
          "internalType": "bool",
          "name": "isHolder",
          "type": "bool"
        },
        {
          "internalType": "uint256",
          "name": "safeHavenTokenId",
          "type": "uint256"
        },
        {
          "internalType": "uint256",
          "name": "graceIITokenId",
          "type": "uint256"
        }
      ],
      "stateMutability": "view",
      "type": "function"
    },
    {
      "inputs": [
        {
          "internalType": "address",
          "name": "_wallet",
          "type": "address"
        }
      ],
      "name": "mint1Of1Holder",
      "outputs": [],
      "stateMutability": "nonpayable",
      "type": "function"
    },
    {
      "inputs": [
        {
          "internalType": "address",
          "name": "_wallet",
          "type": "address"
        }
      ],
      "name": "mintNonCollector",
      "outputs": [],
      "stateMutability": "nonpayable",
      "type": "function"
    },
    {
      "inputs": [
        {
          "internalType": "address",
          "name": "_wallet",
          "type": "address"
        }
      ],
      "name": "mintOpenEdition",
      "outputs": [],
      "stateMutability": "nonpayable",
      "type": "function"
    },
    {
      "inputs": [
        {
          "internalType": "string",
          "name": "newURI",
          "type": "string"
        }
      ],
      "name": "setBaseURI",
      "outputs": [],
      "stateMutability": "nonpayable",
      "type": "function"
    },
    {
      "inputs": [
        {
          "internalType": "bool",
          "name": "value",
          "type": "bool"
        }
      ],
      "name": "setMintOpen",
      "outputs": [],
      "stateMutability": "nonpayable",
      "type": "function"
    },
    {
      "inputs": [
        {
          "internalType": "address",
          "name": "_wallet",
          "type": "address"
        }
      ],
      "name": "addOneOfOneCollector",
      "outputs": [],
      "stateMutability": "nonpayable",
      "type": "function"
    },
    {
      "inputs": [
        {
          "internalType": "address",
          "name": "_wallet",
          "type": "address"
        }
      ],
      "name": "addNonCollector",
      "outputs": [],
      "stateMutability": "nonpayable",
      "type": "function"
    }
  ],
  "bytecode": "0x60806040526001601555600f60165560196017556000601860006101000a81548160ff02191690831515021790555060405180610160016040528061107861ffff16815260200161107161ffff16815260200161107561ffff16815260200161107761ffff16815260200161106f61ffff16815260200161107661ffff16815260200161107361ffff16815260200161107061ffff16815260200161107261ffff16815260200161107461ffff16815260200161106e61ffff16815250601990600b620000ce929190620017e3565b5060405180611780016040528061104d61ffff16815260200161104861ffff16815260200161105061ffff16815260200161108c61ffff16815260200161104b61ffff16815260200161107461ffff16815260200161105e61ffff16815260200161100261ffff168152602001610ffc61ffff16815260200161104761ffff16815260200161101061ffff16815260200161108461ffff16815260200161103561ffff16815260200161107161ffff16815260200161109461ffff16815260200161103261ffff16815260200161107e61ffff16815260200161104561ffff16815260200161103e61ffff16815260200161103961ffff16815260200161102861ffff16815260200161102b61ffff16815260200161100461ffff16815260200161107961ffff16815260200161107061ffff16815260200161105261ffff16815260200161103861ffff16815260200161107d61ffff16815260200161102d61ffff16815260200161107a61ffff168152602001610ff761ffff168152602001610ff261ffff16815260200161100161ffff168152602001610fe761ffff16815260200161103661ffff16815260200161106c61ffff16815260200161106161ffff16815260200161109261ffff16815260200161107c61ffff16815260200161100361ffff16815260200161102c61ffff168152602001610fed61ffff16815260200161108d61ffff16815260200161104a61ffff16815260200161104261ffff168152602001610fe961ffff16815260200161100561ffff16815260200161109061ffff16815260200161102e61ffff168152602001610ff561ffff16815260200161103461ffff16815260200161105f61ffff16815260200161102161ffff16815260200161102061ffff16815260200161104c61ffff16815260200161109d61ffff168152602001610fe661ffff168152602001610fff61ffff16815260200161106761ffff168152602001610ff161ffff16815260200161100c61ffff16815260200161103761ffff168152602001610ff461ffff16815260200161106e61ffff16815260200161101c61ffff16815260200161100e61ffff16815260200161108661ffff16815260200161100a61ffff16815260200161101861ffff16815260200161107861ffff168152602001610ffd61ffff16815260200161103a61ffff16815260200161106661ffff16815260200161104f61ffff16815260200161100761ffff16815260200161102961ffff16815260200161101561ffff16815260200161101661ffff16815260200161106061ffff16815260200161105961ffff168152602001610fec61ffff168152602001610fee61ffff16815260200161107f61ffff16815260200161107561ffff16815260200161105a61ffff16815260200161108161ffff16815260200161103f61ffff16815260200161107261ffff16815260200161102661ffff16815260200161101461ffff16815260200161101261ffff16815260200161103161ffff16815260200161105b61ffff16815260200161102561ffff16815260200161109361ffff16815260200161100061ffff16815260200161108861ffff16815260200161100f61ffff16815260200161105c61ffff16815260200161105761ffff168152602001610ffa61ffff16815260200161100861ffff16815260200161107361ffff16815260200161107b61ffff16815260200161104461ffff168152602001610ff961ffff16815260200161104161ffff16815260200161101161ffff16815260200161108b61ffff16815260200161106561ffff16815260200161103361ffff16815260200161106f61ffff16815260200161108561ffff168152602001610ff661ffff168152602001610ffe61ffff16815260200161108061ffff16815260200161101a61ffff16815260200161103d61ffff16815260200161100d61ffff16815260200161109b61ffff16815260200161105561ffff16815260200161109e61ffff16815260200161101d61ffff16815260200161109c61ffff16815260200161102261ffff16815260200161109861ffff16815260200161105661ffff16815260200161103061ffff16815260200161104361ffff16815260200161104661ffff16815260200161100961ffff16815260200161105861ffff16815260200161106961ffff16815260200161105d61ffff16815260200161103c61ffff16815260200161109961ffff16815260200161101b61ffff16815260200161104961ffff16815260200161101361ffff16815260200161108761ffff16815260200161107761ffff16815260200161102a61ffff16815260200161108a61ffff16815260200161102361ffff16815260200161101761ffff16815260200161109761ffff168152602001610fea61ffff16815260200161105361ffff16815260200161106a61ffff16815260200161109661ffff16815260200161103b61ffff16815260200161101961ffff16815260200161105461ffff16815260200161100661ffff168152602001610fef61ffff16815260200161108e61ffff16815260200161102f61ffff16815260200161109561ffff168152602001610ff061ffff168152602001610ff361ffff168152602001610feb61ffff16815260200161102761ffff16815260200161106361ffff16815260200161106861ffff16815260200161106b61ffff16815260200161108f61ffff16815260200161108961ffff16815260200161106461ffff16815260200161108361ffff16815260200161102461ffff16815260200161109a61ffff16815260200161100b61ffff16815260200161104e61ffff16815260200161104061ffff16815260200161105161ffff16815260200161108261ffff168152602001604261ffff168152602001604361ffff168152602001604461ffff16815260200161106261ffff168152602001610ff861ffff16815260200161106d61ffff168152602001610fe861ffff16815260200161107661ffff16815260200161109161ffff16815260200161101e61ffff16815260200161101f61ffff168152602001610ffb61ffff16815250601a9060bc620009b89291906200183b565b50348015620009c657600080fd5b5060405162006c9038038062006c908339818101604052810190620009ec9190620019cc565b6040518060400160405280600781526020017f466c6f77657273000000000000000000000000000000000000000000000000008152506040518060400160405280600381526020017f464c570000000000000000000000000000000000000000000000000000000000815250816000908051906020019062000a7092919062001893565b50806001908051906020019062000a8992919062001893565b50505062000aac62000aa06200164060201b60201c565b6200164860201b60201c565b62000abd836200170e60201b60201c565b81600e60006101000a81548173ffffffffffffffffffffffffffffffffffffffff021916908373ffffffffffffffffffffffffffffffffffffffff16021790555080600f60006101000a81548173ffffffffffffffffffffffffffffffffffffffff021916908373ffffffffffffffffffffffffffffffffffffffff1602179055506001600c6000738c9f364bf7a56ed058fc63ef81c6cf09c833e65673ffffffffffffffffffffffffffffffffffffffff1673ffffffffffffffffffffffffffffffffffffffff16815260200190815260200160002060006101000a81548160ff0219169083151502179055506001600c6000739fdf724bcdf9392bd4b99a1c463ec674bc891bb973ffffffffffffffffffffffffffffffffffffffff1673ffffffffffffffffffffffffffffffffffffffff16815260200190815260200160002060006101000a81548160ff0219169083151502179055506001600c6000731e815a8188f1b84564577c1c998f7e6b4706b75273ffffffffffffffffffffffffffffffffffffffff1673ffffffffffffffffffffffffffffffffffffffff16815260200190815260200160002060006101000a81548160ff0219169083151502179055506001600c600073109ad81ca063fa1a8237189e31821d3114c52a4e73ffffffffffffffffffffffffffffffffffffffff1673ffffffffffffffffffffffffffffffffffffffff16815260200190815260200160002060006101000a81548160ff0219169083151502179055506001600c60007375259686c1c967399eda0b4b16f16fb0990f961573ffffffffffffffffffffffffffffffffffffffff1673ffffffffffffffffffffffffffffffffffffffff16815260200190815260200160002060006101000a81548160ff0219169083151502179055506001600c600073c571147a515a789eb23cbcbf92f86bc1485ab87773ffffffffffffffffffffffffffffffffffffffff1673ffffffffffffffffffffffffffffffffffffffff16815260200190815260200160002060006101000a81548160ff0219169083151502179055506001600c60007330a189710f75c6b60b96081f12b288abededa26073ffffffffffffffffffffffffffffffffffffffff1673ffffffffffffffffffffffffffffffffffffffff16815260200190815260200160002060006101000a81548160ff0219169083151502179055506001600c6000734e84a91a450aeef23f0670fb486d55b1d85a8dd073ffffffffffffffffffffffffffffffffffffffff1673ffffffffffffffffffffffffffffffffffffffff16815260200190815260200160002060006101000a81548160ff0219169083151502179055506001600c6000733612b2e93b49f6c797066ca8c38b7f522b32c7cb73ffffffffffffffffffffffffffffffffffffffff1673ffffffffffffffffffffffffffffffffffffffff16815260200190815260200160002060006101000a81548160ff0219169083151502179055506001600c600073cf6f5a68d94165081a634ada997be3a93426c46773ffffffffffffffffffffffffffffffffffffffff1673ffffffffffffffffffffffffffffffffffffffff16815260200190815260200160002060006101000a81548160ff0219169083151502179055506001600c6000738c94072567b278b9fa12192cca899b3ce0ed5fdc73ffffffffffffffffffffffffffffffffffffffff1673ffffffffffffffffffffffffffffffffffffffff16815260200190815260200160002060006101000a81548160ff0219169083151502179055506001600c6000738139ba1a21db4b924a81d5de90a98980b5d502e573ffffffffffffffffffffffffffffffffffffffff1673ffffffffffffffffffffffffffffffffffffffff16815260200190815260200160002060006101000a81548160ff0219169083151502179055506001600c600073ca71c095ac06c5f17e03da013c8041701ef438b673ffffffffffffffffffffffffffffffffffffffff1673ffffffffffffffffffffffffffffffffffffffff16815260200190815260200160002060006101000a81548160ff0219169083151502179055506001600c6000730d48086911270b67bc973b7aa1a1332ef83dd47273ffffffffffffffffffffffffffffffffffffffff1673ffffffffffffffffffffffffffffffffffffffff16815260200190815260200160002060006101000a81548160ff0219169083151502179055506001600d60007380aa4af1fb6e8a381b73809cbf06aed2666a7b6473ffffffffffffffffffffffffffffffffffffffff1673ffffffffffffffffffffffffffffffffffffffff16815260200190815260200160002060006101000a81548160ff0219169083151502179055506001600d6000737e66de1a57e6dc63b31ff03b50c103379c840d1473ffffffffffffffffffffffffffffffffffffffff1673ffffffffffffffffffffffffffffffffffffffff16815260200190815260200160002060006101000a81548160ff0219169083151502179055506001600d600073eb758d7b02eb8adfaa553f49cfa8b034ab73c1c473ffffffffffffffffffffffffffffffffffffffff1673ffffffffffffffffffffffffffffffffffffffff16815260200190815260200160002060006101000a81548160ff0219169083151502179055506001600d600073fc789c7927ac1cc8caefde8bebf493961ac5be9b73ffffffffffffffffffffffffffffffffffffffff1673ffffffffffffffffffffffffffffffffffffffff16815260200190815260200160002060006101000a81548160ff0219169083151502179055506001600d6000730f2f2f7bfc893ada1714802924f96b82c9a1ffd373ffffffffffffffffffffffffffffffffffffffff1673ffffffffffffffffffffffffffffffffffffffff16815260200190815260200160002060006101000a81548160ff0219169083151502179055506001600d600073215f7add9541bc097679d9237df7d42bb114134c73ffffffffffffffffffffffffffffffffffffffff1673ffffffffffffffffffffffffffffffffffffffff16815260200190815260200160002060006101000a81548160ff0219169083151502179055506001600d600073b3007ff3c3f40bdf0126fec7c8e43c3fc50ea81373ffffffffffffffffffffffffffffffffffffffff1673ffffffffffffffffffffffffffffffffffffffff16815260200190815260200160002060006101000a81548160ff0219169083151502179055506001600d6000731da98aa4faefb6ec93cc1ba6adcfb59c8af5115273ffffffffffffffffffffffffffffffffffffffff1673ffffffffffffffffffffffffffffffffffffffff16815260200190815260200160002060006101000a81548160ff0219169083151502179055506001600d6000732c11cf38a6a5ac74ea438d0037f7f880021fc66f73ffffffffffffffffffffffffffffffffffffffff1673ffffffffffffffffffffffffffffffffffffffff16815260200190815260200160002060006101000a81548160ff0219169083151502179055506001600d6000737ed90fdd530ec92e90e197ba891378b1f9680e0a73ffffffffffffffffffffffffffffffffffffffff1673ffffffffffffffffffffffffffffffffffffffff16815260200190815260200160002060006101000a81548160ff0219169083151502179055506001600d600073dc1bc12a38206b010971859dc7177aff9d27c45473ffffffffffffffffffffffffffffffffffffffff1673ffffffffffffffffffffffffffffffffffffffff16815260200190815260200160002060006101000a81548160ff0219169083151502179055506001600d6000735f0acde83f858014bc9723b356095e28fc8880b173ffffffffffffffffffffffffffffffffffffffff1673ffffffffffffffffffffffffffffffffffffffff16815260200190815260200160002060006101000a81548160ff02191690831515021790555050505062001c2f565b600033905090565b6000600a60009054906101000a900473ffffffffffffffffffffffffffffffffffffffff16905081600a60006101000a81548173ffffffffffffffffffffffffffffffffffffffff021916908373ffffffffffffffffffffffffffffffffffffffff1602179055508173ffffffffffffffffffffffffffffffffffffffff168173ffffffffffffffffffffffffffffffffffffffff167f8be0079c531659141344cd1fd0a4f28419497f9722a3daafe3b4186f6b6457e060405160405180910390a35050565b6200171e6200164060201b60201c565b73ffffffffffffffffffffffffffffffffffffffff1662001744620017b960201b60201c565b73ffffffffffffffffffffffffffffffffffffffff16146200179d576040517f08c379a0000000000000000000000000000000000000000000000000000000008152600401620017949062001a7d565b60405180910390fd5b80600b9080519060200190620017b592919062001893565b5050565b6000600a60009054906101000a900473ffffffffffffffffffffffffffffffffffffffff16905090565b82805482825590600052602060002090810192821562001828579160200282015b8281111562001827578251829061ffff1690559160200191906001019062001804565b5b50905062001837919062001924565b5090565b82805482825590600052602060002090810192821562001880579160200282015b828111156200187f578251829061ffff169055916020019190600101906200185c565b5b5090506200188f919062001924565b5090565b828054620018a19062001b81565b90600052602060002090601f016020900481019282620018c5576000855562001911565b82601f10620018e057805160ff191683800117855562001911565b8280016001018555821562001911579182015b8281111562001910578251825591602001919060010190620018f3565b5b50905062001920919062001924565b5090565b5b808211156200193f57600081600090555060010162001925565b5090565b60006200195a620019548462001ad3565b62001a9f565b9050828152602081018484840111156200197357600080fd5b6200198084828562001b4b565b509392505050565b600081519050620019998162001c15565b92915050565b600082601f830112620019b157600080fd5b8151620019c384826020860162001943565b91505092915050565b600080600060608486031215620019e257600080fd5b600084015167ffffffffffffffff811115620019fd57600080fd5b62001a0b868287016200199f565b935050602062001a1e8682870162001988565b925050604062001a318682870162001988565b9150509250925092565b600062001a4a60208362001b06565b91507f4f776e61626c653a2063616c6c6572206973206e6f7420746865206f776e65726000830152602082019050919050565b6000602082019050818103600083015262001a988162001a3b565b9050919050565b6000604051905081810181811067ffffffffffffffff8211171562001ac95762001ac862001be6565b5b8060405250919050565b600067ffffffffffffffff82111562001af15762001af062001be6565b5b601f19601f8301169050602081019050919050565b600082825260208201905092915050565b600062001b248262001b2b565b9050919050565b600073ffffffffffffffffffffffffffffffffffffffff82169050919050565b60005b8381101562001b6b57808201518184015260208101905062001b4e565b8381111562001b7b576000848401525b50505050565b6000600282049050600182168062001b9a57607f821691505b6020821081141562001bb15762001bb062001bb7565b5b50919050565b7f4e487b7100000000000000000000000000000000000000000000000000000000600052602260045260246000fd5b7f4e487b7100000000000000000000000000000000000000000000000000000000600052604160045260246000fd5b62001c208162001b17565b811462001c2c57600080fd5b50565b6150518062001c3f6000396000f3fe608060405234801561001057600080fd5b50600436106102265760003560e01c8063715018a611610130578063a22cb465116100b8578063edbbbdf41161007c578063edbbbdf4146106e3578063eff230d214610713578063f2fde38b14610745578063f8004d3114610761578063fe3354d61461077d57610226565b8063a22cb4651461061b578063b88d4fde14610637578063c87b56dd14610653578063d6dc505e14610683578063e985e9c5146106b357610226565b806382e9099a116100ff57806382e9099a146105635780638d56ee011461057f5780638da5cb5b146105af57806395d89b41146105cd5780639915ced3146105eb57610226565b8063715018a6146104f1578063732c043d146104fb5780637a8b575c146105175780637d9204e91461054757610226565b806342842e0e116101b357806355f804b31161018257806355f804b3146104275780636352211e14610443578063682b4ff2146104735780636c0360eb146104a357806370a08231146104c157610226565b806342842e0e1461037b57806345c2867c1461039757806346aa5dcd146103c75780634f6ccce7146103f757610226565b8063095ea7b3116101fa578063095ea7b3146102c557806318160ddd146102e157806323b872dd146102ff5780632f1aee191461031b5780632f745c591461034b57610226565b80629369161461022b57806301ffc9a71461024757806306fdde0314610277578063081812fc14610295575b600080fd5b6102456004803603810190610240919061399e565b610799565b005b610261600480360381019061025c9190613b97565b6109ec565b60405161026e91906147f2565b60405180910390f35b61027f610a66565b60405161028c9190614844565b60405180910390f35b6102af60048036038101906102aa9190613c2a565b610af8565b6040516102bc919061478b565b60405180910390f35b6102df60048036038101906102da9190613b32565b610b7d565b005b6102e9610c95565b6040516102f69190614be6565b60405180910390f35b61031960048036038101906103149190613a2c565b610ca2565b005b6103356004803603810190610330919061399e565b610d02565b60405161034291906147f2565b60405180910390f35b61036560048036038101906103609190613b32565b610d22565b6040516103729190614be6565b60405180910390f35b61039560048036038101906103909190613a2c565b610dc7565b005b6103b160048036038101906103ac9190613c2a565b610de7565b6040516103be91906147f2565b60405180910390f35b6103e160048036038101906103dc9190613c2a565b610e07565b6040516103ee91906147f2565b60405180910390f35b610411600480360381019061040c9190613c2a565b610e27565b60405161041e9190614be6565b60405180910390f35b610441600480360381019061043c9190613be9565b610ebe565b005b61045d60048036038101906104589190613c2a565b610f54565b60405161046a919061478b565b60405180910390f35b61048d60048036038101906104889190613b32565b611006565b60405161049a91906147f2565b60405180910390f35b6104ab611100565b6040516104b89190614844565b60405180910390f35b6104db60048036038101906104d6919061399e565b61118e565b6040516104e89190614be6565b60405180910390f35b6104f9611246565b005b6105156004803603810190610510919061399e565b6112ce565b005b610531600480360381019061052c919061399e565b611439565b60405161053e91906147f2565b60405180910390f35b610561600480360381019061055c919061399e565b61148f565b005b61057d6004803603810190610578919061399e565b6115fa565b005b6105996004803603810190610594919061399e565b6118c5565b6040516105a691906147f2565b60405180910390f35b6105b761191b565b6040516105c4919061478b565b60405180910390f35b6105d5611945565b6040516105e29190614844565b60405180910390f35b6106056004803603810190610600919061399e565b6119d7565b60405161061291906147f2565b60405180910390f35b61063560048036038101906106309190613af6565b6119f7565b005b610651600480360381019061064c9190613a7b565b611b78565b005b61066d60048036038101906106689190613c2a565b611bda565b60405161067a9190614844565b60405180910390f35b61069d6004803603810190610698919061399e565b611c81565b6040516106aa91906147f2565b60405180910390f35b6106cd60048036038101906106c891906139f0565b611ca1565b6040516106da91906147f2565b60405180910390f35b6106fd60048036038101906106f89190613b32565b611d35565b60405161070a91906147f2565b60405180910390f35b61072d6004803603810190610728919061399e565b611e2f565b60405161073c9392919061480d565b60405180910390f35b61075f600480360381019061075a919061399e565b611e81565b005b61077b60048036038101906107769190613b6e565b611f79565b005b6107976004803603810190610792919061399e565b612068565b005b60011515601860009054906101000a900460ff161515146107ef576040517f08c379a00000000000000000000000000000000000000000000000000000000081526004016107e6906148a6565b60405180910390fd5b60001515601060008373ffffffffffffffffffffffffffffffffffffffff1673ffffffffffffffffffffffffffffffffffffffff16815260200190815260200160002060009054906101000a900460ff16151514610882576040517f08c379a0000000000000000000000000000000000000000000000000000000008152600401610879906149a6565b60405180910390fd5b6001151561088f82611439565b1515146108d1576040517f08c379a00000000000000000000000000000000000000000000000000000000081526004016108c890614a66565b60405180910390fd5b600e6015541115610917576040517f08c379a000000000000000000000000000000000000000000000000000000000815260040161090e90614ba6565b60405180910390fd5b6000601554905061092882826122bb565b6001601060008473ffffffffffffffffffffffffffffffffffffffff1673ffffffffffffffffffffffffffffffffffffffff16815260200190815260200160002060006101000a81548160ff0219169083151502179055506001601560008282546109939190614cd5565b925050819055508173ffffffffffffffffffffffffffffffffffffffff167f6ecf2eb9098248a69cc7abaac38e5dde0c18d6b1858a9ff7c308d60dd19214ee826040516109e09190614be6565b60405180910390a25050565b60007f780e9d63000000000000000000000000000000000000000000000000000000007bffffffffffffffffffffffffffffffffffffffffffffffffffffffff1916827bffffffffffffffffffffffffffffffffffffffffffffffffffffffff19161480610a5f5750610a5e826122d9565b5b9050919050565b606060008054610a7590614e46565b80601f0160208091040260200160405190810160405280929190818152602001828054610aa190614e46565b8015610aee5780601f10610ac357610100808354040283529160200191610aee565b820191906000526020600020905b815481529060010190602001808311610ad157829003601f168201915b5050505050905090565b6000610b03826123bb565b610b42576040517f08c379a0000000000000000000000000000000000000000000000000000000008152600401610b3990614aa6565b60405180910390fd5b6004600083815260200190815260200160002060009054906101000a900473ffffffffffffffffffffffffffffffffffffffff169050919050565b6000610b8882610f54565b90508073ffffffffffffffffffffffffffffffffffffffff168373ffffffffffffffffffffffffffffffffffffffff161415610bf9576040517f08c379a0000000000000000000000000000000000000000000000000000000008152600401610bf090614b26565b60405180910390fd5b8073ffffffffffffffffffffffffffffffffffffffff16610c18612427565b73ffffffffffffffffffffffffffffffffffffffff161480610c475750610c4681610c41612427565b611ca1565b5b610c86576040517f08c379a0000000000000000000000000000000000000000000000000000000008152600401610c7d906149e6565b60405180910390fd5b610c90838361242f565b505050565b6000600880549050905090565b610cb3610cad612427565b826124e8565b610cf2576040517f08c379a0000000000000000000000000000000000000000000000000000000008152600401610ce990614b66565b60405180910390fd5b610cfd8383836125c6565b505050565b60116020528060005260406000206000915054906101000a900460ff1681565b6000610d2d8361118e565b8210610d6e576040517f08c379a0000000000000000000000000000000000000000000000000000000008152600401610d6590614866565b60405180910390fd5b600660008473ffffffffffffffffffffffffffffffffffffffff1673ffffffffffffffffffffffffffffffffffffffff168152602001908152602001600020600083815260200190815260200160002054905092915050565b610de283838360405180602001604052806000815250611b78565b505050565b60146020528060005260406000206000915054906101000a900460ff1681565b60136020528060005260406000206000915054906101000a900460ff1681565b6000610e31610c95565b8210610e72576040517f08c379a0000000000000000000000000000000000000000000000000000000008152600401610e6990614b86565b60405180910390fd5b60088281548110610eac577f4e487b7100000000000000000000000000000000000000000000000000000000600052603260045260246000fd5b90600052602060002001549050919050565b610ec6612427565b73ffffffffffffffffffffffffffffffffffffffff16610ee461191b565b73ffffffffffffffffffffffffffffffffffffffff1614610f3a576040517f08c379a0000000000000000000000000000000000000000000000000000000008152600401610f3190614ac6565b60405180910390fd5b80600b9080519060200190610f509291906137ad565b5050565b6000806002600084815260200190815260200160002060009054906101000a900473ffffffffffffffffffffffffffffffffffffffff169050600073ffffffffffffffffffffffffffffffffffffffff168173ffffffffffffffffffffffffffffffffffffffff161415610ffd576040517f08c379a0000000000000000000000000000000000000000000000000000000008152600401610ff490614a46565b60405180910390fd5b80915050919050565b600080600e60009054906101000a900473ffffffffffffffffffffffffffffffffffffffff1690508373ffffffffffffffffffffffffffffffffffffffff168173ffffffffffffffffffffffffffffffffffffffff16636352211e856040518263ffffffff1660e01b815260040161107e9190614be6565b60206040518083038186803b15801561109657600080fd5b505afa1580156110aa573d6000803e3d6000fd5b505050506040513d601f19601f820116820180604052508101906110ce91906139c7565b73ffffffffffffffffffffffffffffffffffffffff1614156110f45760019150506110fa565b60009150505b92915050565b600b805461110d90614e46565b80601f016020809104026020016040519081016040528092919081815260200182805461113990614e46565b80156111865780601f1061115b57610100808354040283529160200191611186565b820191906000526020600020905b81548152906001019060200180831161116957829003601f168201915b505050505081565b60008073ffffffffffffffffffffffffffffffffffffffff168273ffffffffffffffffffffffffffffffffffffffff1614156111ff576040517f08c379a00000000000000000000000000000000000000000000000000000000081526004016111f690614a06565b60405180910390fd5b600360008373ffffffffffffffffffffffffffffffffffffffff1673ffffffffffffffffffffffffffffffffffffffff168152602001908152602001600020549050919050565b61124e612427565b73ffffffffffffffffffffffffffffffffffffffff1661126c61191b565b73ffffffffffffffffffffffffffffffffffffffff16146112c2576040517f08c379a00000000000000000000000000000000000000000000000000000000081526004016112b990614ac6565b60405180910390fd5b6112cc6000612822565b565b6112d6612427565b73ffffffffffffffffffffffffffffffffffffffff166112f461191b565b73ffffffffffffffffffffffffffffffffffffffff161461134a576040517f08c379a000000000000000000000000000000000000000000000000000000000815260040161134190614ac6565b60405180910390fd5b60011515600c60008373ffffffffffffffffffffffffffffffffffffffff1673ffffffffffffffffffffffffffffffffffffffff16815260200190815260200160002060009054906101000a900460ff16151514156113de576040517f08c379a00000000000000000000000000000000000000000000000000000000081526004016113d590614966565b60405180910390fd5b6001600c60008373ffffffffffffffffffffffffffffffffffffffff1673ffffffffffffffffffffffffffffffffffffffff16815260200190815260200160002060006101000a81548160ff02191690831515021790555050565b6000600c60008373ffffffffffffffffffffffffffffffffffffffff1673ffffffffffffffffffffffffffffffffffffffff16815260200190815260200160002060009054906101000a900460ff169050919050565b611497612427565b73ffffffffffffffffffffffffffffffffffffffff166114b561191b565b73ffffffffffffffffffffffffffffffffffffffff161461150b576040517f08c379a000000000000000000000000000000000000000000000000000000000815260040161150290614ac6565b60405180910390fd5b60011515600d60008373ffffffffffffffffffffffffffffffffffffffff1673ffffffffffffffffffffffffffffffffffffffff16815260200190815260200160002060009054906101000a900460ff161515141561159f576040517f08c379a000000000000000000000000000000000000000000000000000000000815260040161159690614b46565b60405180910390fd5b6001600d60008373ffffffffffffffffffffffffffffffffffffffff1673ffffffffffffffffffffffffffffffffffffffff16815260200190815260200160002060006101000a81548160ff02191690831515021790555050565b60011515601860009054906101000a900460ff16151514611650576040517f08c379a0000000000000000000000000000000000000000000000000000000008152600401611647906148a6565b60405180910390fd5b600080600061165e84611e2f565b92509250925060011515831515146116ab576040517f08c379a00000000000000000000000000000000000000000000000000000000081526004016116a2906148c6565b60405180910390fd5b600015156013600084815260200190815260200160002060009054906101000a900460ff16151514806117025750600015156014600083815260200190815260200160002060009054906101000a900460ff161515145b611741576040517f08c379a000000000000000000000000000000000000000000000000000000000815260040161173890614bc6565b60405180910390fd5b60366017541115611787576040517f08c379a000000000000000000000000000000000000000000000000000000000815260040161177e90614ba6565b60405180910390fd5b6000601754905061179885826122bb565b600083146117d15760016013600085815260200190815260200160002060006101000a81548160ff0219169083151502179055506117fe565b60016014600084815260200190815260200160002060006101000a81548160ff0219169083151502179055505b6001601760008282546118119190614cd5565b925050819055506001601260008773ffffffffffffffffffffffffffffffffffffffff1673ffffffffffffffffffffffffffffffffffffffff16815260200190815260200160002060006101000a81548160ff0219169083151502179055508473ffffffffffffffffffffffffffffffffffffffff167fad8d2d503c921760ea86bfc65c166337e4c183e0a3d65882179babdb57bce42f826040516118b69190614be6565b60405180910390a25050505050565b6000600d60008373ffffffffffffffffffffffffffffffffffffffff1673ffffffffffffffffffffffffffffffffffffffff16815260200190815260200160002060009054906101000a900460ff169050919050565b6000600a60009054906101000a900473ffffffffffffffffffffffffffffffffffffffff16905090565b60606001805461195490614e46565b80601f016020809104026020016040519081016040528092919081815260200182805461198090614e46565b80156119cd5780601f106119a2576101008083540402835291602001916119cd565b820191906000526020600020905b8154815290600101906020018083116119b057829003601f168201915b5050505050905090565b60106020528060005260406000206000915054906101000a900460ff1681565b6119ff612427565b73ffffffffffffffffffffffffffffffffffffffff168273ffffffffffffffffffffffffffffffffffffffff161415611a6d576040517f08c379a0000000000000000000000000000000000000000000000000000000008152600401611a6490614986565b60405180910390fd5b8060056000611a7a612427565b73ffffffffffffffffffffffffffffffffffffffff1673ffffffffffffffffffffffffffffffffffffffff16815260200190815260200160002060008473ffffffffffffffffffffffffffffffffffffffff1673ffffffffffffffffffffffffffffffffffffffff16815260200190815260200160002060006101000a81548160ff0219169083151502179055508173ffffffffffffffffffffffffffffffffffffffff16611b27612427565b73ffffffffffffffffffffffffffffffffffffffff167f17307eab39ab6107e8899845ad3d59bd9653f200f220920489ca2b5937696c3183604051611b6c91906147f2565b60405180910390a35050565b611b89611b83612427565b836124e8565b611bc8576040517f08c379a0000000000000000000000000000000000000000000000000000000008152600401611bbf90614b66565b60405180910390fd5b611bd4848484846128e8565b50505050565b6060611be5826123bb565b611c24576040517f08c379a0000000000000000000000000000000000000000000000000000000008152600401611c1b90614b06565b60405180910390fd5b6000611c2e612944565b90506000815111611c4e5760405180602001604052806000815250611c79565b80611c58846129d6565b604051602001611c69929190614767565b6040516020818303038152906040525b915050919050565b60126020528060005260406000206000915054906101000a900460ff1681565b6000600560008473ffffffffffffffffffffffffffffffffffffffff1673ffffffffffffffffffffffffffffffffffffffff16815260200190815260200160002060008373ffffffffffffffffffffffffffffffffffffffff1673ffffffffffffffffffffffffffffffffffffffff16815260200190815260200160002060009054906101000a900460ff16905092915050565b600080600f60009054906101000a900473ffffffffffffffffffffffffffffffffffffffff1690508373ffffffffffffffffffffffffffffffffffffffff168173ffffffffffffffffffffffffffffffffffffffff16636352211e856040518263ffffffff1660e01b8152600401611dad9190614be6565b60206040518083038186803b158015611dc557600080fd5b505afa158015611dd9573d6000803e3d6000fd5b505050506040513d601f19601f82011682018060405250810190611dfd91906139c7565b73ffffffffffffffffffffffffffffffffffffffff161415611e23576001915050611e29565b60009150505b92915050565b6000806000806000611e4086612b83565b91509150600080611e5088612d31565b91509150600115158415151480611e6b575060011515821515145b9650868382965096509650505050509193909250565b611e89612427565b73ffffffffffffffffffffffffffffffffffffffff16611ea761191b565b73ffffffffffffffffffffffffffffffffffffffff1614611efd576040517f08c379a0000000000000000000000000000000000000000000000000000000008152600401611ef490614ac6565b60405180910390fd5b600073ffffffffffffffffffffffffffffffffffffffff168173ffffffffffffffffffffffffffffffffffffffff161415611f6d576040517f08c379a0000000000000000000000000000000000000000000000000000000008152600401611f64906148e6565b60405180910390fd5b611f7681612822565b50565b611f81612427565b73ffffffffffffffffffffffffffffffffffffffff16611f9f61191b565b73ffffffffffffffffffffffffffffffffffffffff1614611ff5576040517f08c379a0000000000000000000000000000000000000000000000000000000008152600401611fec90614ac6565b60405180910390fd5b801515601860009054906101000a900460ff161515141561204b576040517f08c379a000000000000000000000000000000000000000000000000000000000815260040161204290614a26565b60405180910390fd5b80601860006101000a81548160ff02191690831515021790555050565b60011515601860009054906101000a900460ff161515146120be576040517f08c379a00000000000000000000000000000000000000000000000000000000081526004016120b5906148a6565b60405180910390fd5b60001515601160008373ffffffffffffffffffffffffffffffffffffffff1673ffffffffffffffffffffffffffffffffffffffff16815260200190815260200160002060009054906101000a900460ff16151514612151576040517f08c379a0000000000000000000000000000000000000000000000000000000008152600401612148906149a6565b60405180910390fd5b6001151561215e826118c5565b1515146121a0576040517f08c379a000000000000000000000000000000000000000000000000000000000815260040161219790614926565b60405180910390fd5b601860165411156121e6576040517f08c379a00000000000000000000000000000000000000000000000000000000081526004016121dd90614ba6565b60405180910390fd5b600060165490506121f782826122bb565b6001601160008473ffffffffffffffffffffffffffffffffffffffff1673ffffffffffffffffffffffffffffffffffffffff16815260200190815260200160002060006101000a81548160ff0219169083151502179055506001601660008282546122629190614cd5565b925050819055508173ffffffffffffffffffffffffffffffffffffffff167f365357042f3f04c41ac17b906ce5964e537c182004793c10a23d432081da1e84826040516122af9190614be6565b60405180910390a25050565b6122d5828260405180602001604052806000815250612edf565b5050565b60007f80ac58cd000000000000000000000000000000000000000000000000000000007bffffffffffffffffffffffffffffffffffffffffffffffffffffffff1916827bffffffffffffffffffffffffffffffffffffffffffffffffffffffff191614806123a457507f5b5e139f000000000000000000000000000000000000000000000000000000007bffffffffffffffffffffffffffffffffffffffffffffffffffffffff1916827bffffffffffffffffffffffffffffffffffffffffffffffffffffffff1916145b806123b457506123b382612f3a565b5b9050919050565b60008073ffffffffffffffffffffffffffffffffffffffff166002600084815260200190815260200160002060009054906101000a900473ffffffffffffffffffffffffffffffffffffffff1673ffffffffffffffffffffffffffffffffffffffff1614159050919050565b600033905090565b816004600083815260200190815260200160002060006101000a81548173ffffffffffffffffffffffffffffffffffffffff021916908373ffffffffffffffffffffffffffffffffffffffff160217905550808273ffffffffffffffffffffffffffffffffffffffff166124a283610f54565b73ffffffffffffffffffffffffffffffffffffffff167f8c5be1e5ebec7d5bd14f71427d1e84f3dd0314c0f7b2291e5b200ac8c7c3b92560405160405180910390a45050565b60006124f3826123bb565b612532576040517f08c379a0000000000000000000000000000000000000000000000000000000008152600401612529906149c6565b60405180910390fd5b600061253d83610f54565b90508073ffffffffffffffffffffffffffffffffffffffff168473ffffffffffffffffffffffffffffffffffffffff1614806125ac57508373ffffffffffffffffffffffffffffffffffffffff1661259484610af8565b73ffffffffffffffffffffffffffffffffffffffff16145b806125bd57506125bc8185611ca1565b5b91505092915050565b8273ffffffffffffffffffffffffffffffffffffffff166125e682610f54565b73ffffffffffffffffffffffffffffffffffffffff161461263c576040517f08c379a000000000000000000000000000000000000000000000000000000000815260040161263390614ae6565b60405180910390fd5b600073ffffffffffffffffffffffffffffffffffffffff168273ffffffffffffffffffffffffffffffffffffffff1614156126ac576040517f08c379a00000000000000000000000000000000000000000000000000000000081526004016126a390614946565b60405180910390fd5b6126b7838383612fa4565b6126c260008261242f565b6001600360008573ffffffffffffffffffffffffffffffffffffffff1673ffffffffffffffffffffffffffffffffffffffff16815260200190815260200160002060008282546127129190614d5c565b925050819055506001600360008473ffffffffffffffffffffffffffffffffffffffff1673ffffffffffffffffffffffffffffffffffffffff16815260200190815260200160002060008282546127699190614cd5565b92505081905550816002600083815260200190815260200160002060006101000a81548173ffffffffffffffffffffffffffffffffffffffff021916908373ffffffffffffffffffffffffffffffffffffffff160217905550808273ffffffffffffffffffffffffffffffffffffffff168473ffffffffffffffffffffffffffffffffffffffff167fddf252ad1be2c89b69c2b068fc378daa952ba7f163c4a11628f55a4df523b3ef60405160405180910390a4505050565b6000600a60009054906101000a900473ffffffffffffffffffffffffffffffffffffffff16905081600a60006101000a81548173ffffffffffffffffffffffffffffffffffffffff021916908373ffffffffffffffffffffffffffffffffffffffff1602179055508173ffffffffffffffffffffffffffffffffffffffff168173ffffffffffffffffffffffffffffffffffffffff167f8be0079c531659141344cd1fd0a4f28419497f9722a3daafe3b4186f6b6457e060405160405180910390a35050565b6128f38484846125c6565b6128ff848484846130b8565b61293e576040517f08c379a000000000000000000000000000000000000000000000000000000000815260040161293590614886565b60405180910390fd5b50505050565b6060600b805461295390614e46565b80601f016020809104026020016040519081016040528092919081815260200182805461297f90614e46565b80156129cc5780601f106129a1576101008083540402835291602001916129cc565b820191906000526020600020905b8154815290600101906020018083116129af57829003601f168201915b5050505050905090565b60606000821415612a1e576040518060400160405280600181526020017f30000000000000000000000000000000000000000000000000000000000000008152509050612b7e565b600082905060005b60008214612a50578080612a3990614e78565b915050600a82612a499190614d2b565b9150612a26565b60008167ffffffffffffffff811115612a92577f4e487b7100000000000000000000000000000000000000000000000000000000600052604160045260246000fd5b6040519080825280601f01601f191660200182016040528015612ac45781602001600182028036833780820191505090505b5090505b60008514612b7757600182612add9190614d5c565b9150600a85612aec9190614ec1565b6030612af89190614cd5565b60f81b818381518110612b34577f4e487b7100000000000000000000000000000000000000000000000000000000600052603260045260246000fd5b60200101907effffffffffffffffffffffffffffffffffffffffffffffffffffffffffffff1916908160001a905350600a85612b709190614d2b565b9450612ac8565b8093505050505b919050565b6000806000600e60009054906101000a900473ffffffffffffffffffffffffffffffffffffffff16905060005b601980549050811015612d22578473ffffffffffffffffffffffffffffffffffffffff168273ffffffffffffffffffffffffffffffffffffffff16636352211e60198481548110612c2a577f4e487b7100000000000000000000000000000000000000000000000000000000600052603260045260246000fd5b90600052602060002001546040518263ffffffff1660e01b8152600401612c519190614be6565b60206040518083038186803b158015612c6957600080fd5b505afa158015612c7d573d6000803e3d6000fd5b505050506040513d601f19601f82011682018060405250810190612ca191906139c7565b73ffffffffffffffffffffffffffffffffffffffff161415612d0f57600160198281548110612cf9577f4e487b7100000000000000000000000000000000000000000000000000000000600052603260045260246000fd5b9060005260206000200154935093505050612d2c565b8080612d1a90614e78565b915050612bb0565b5060008092509250505b915091565b6000806000600f60009054906101000a900473ffffffffffffffffffffffffffffffffffffffff16905060005b601a80549050811015612ed0578473ffffffffffffffffffffffffffffffffffffffff168273ffffffffffffffffffffffffffffffffffffffff16636352211e601a8481548110612dd8577f4e487b7100000000000000000000000000000000000000000000000000000000600052603260045260246000fd5b90600052602060002001546040518263ffffffff1660e01b8152600401612dff9190614be6565b60206040518083038186803b158015612e1757600080fd5b505afa158015612e2b573d6000803e3d6000fd5b505050506040513d601f19601f82011682018060405250810190612e4f91906139c7565b73ffffffffffffffffffffffffffffffffffffffff161415612ebd576001601a8281548110612ea7577f4e487b7100000000000000000000000000000000000000000000000000000000600052603260045260246000fd5b9060005260206000200154935093505050612eda565b8080612ec890614e78565b915050612d5e565b5060008092509250505b915091565b612ee9838361324f565b612ef660008484846130b8565b612f35576040517f08c379a0000000000000000000000000000000000000000000000000000000008152600401612f2c90614886565b60405180910390fd5b505050565b60007f01ffc9a7000000000000000000000000000000000000000000000000000000007bffffffffffffffffffffffffffffffffffffffffffffffffffffffff1916827bffffffffffffffffffffffffffffffffffffffffffffffffffffffff1916149050919050565b612faf83838361341d565b600073ffffffffffffffffffffffffffffffffffffffff168373ffffffffffffffffffffffffffffffffffffffff161415612ff257612fed81613422565b613031565b8173ffffffffffffffffffffffffffffffffffffffff168373ffffffffffffffffffffffffffffffffffffffff16146130305761302f838261346b565b5b5b600073ffffffffffffffffffffffffffffffffffffffff168273ffffffffffffffffffffffffffffffffffffffff1614156130745761306f816135d8565b6130b3565b8273ffffffffffffffffffffffffffffffffffffffff168273ffffffffffffffffffffffffffffffffffffffff16146130b2576130b1828261371b565b5b5b505050565b60006130d98473ffffffffffffffffffffffffffffffffffffffff1661379a565b15613242578373ffffffffffffffffffffffffffffffffffffffff1663150b7a02613102612427565b8786866040518563ffffffff1660e01b815260040161312494939291906147a6565b602060405180830381600087803b15801561313e57600080fd5b505af192505050801561316f57506040513d601f19601f8201168201806040525081019061316c9190613bc0565b60015b6131f2573d806000811461319f576040519150601f19603f3d011682016040523d82523d6000602084013e6131a4565b606091505b506000815114156131ea576040517f08c379a00000000000000000000000000000000000000000000000000000000081526004016131e190614886565b60405180910390fd5b805181602001fd5b63150b7a0260e01b7bffffffffffffffffffffffffffffffffffffffffffffffffffffffff1916817bffffffffffffffffffffffffffffffffffffffffffffffffffffffff191614915050613247565b600190505b949350505050565b600073ffffffffffffffffffffffffffffffffffffffff168273ffffffffffffffffffffffffffffffffffffffff1614156132bf576040517f08c379a00000000000000000000000000000000000000000000000000000000081526004016132b690614a86565b60405180910390fd5b6132c8816123bb565b15613308576040517f08c379a00000000000000000000000000000000000000000000000000000000081526004016132ff90614906565b60405180910390fd5b61331460008383612fa4565b6001600360008473ffffffffffffffffffffffffffffffffffffffff1673ffffffffffffffffffffffffffffffffffffffff16815260200190815260200160002060008282546133649190614cd5565b92505081905550816002600083815260200190815260200160002060006101000a81548173ffffffffffffffffffffffffffffffffffffffff021916908373ffffffffffffffffffffffffffffffffffffffff160217905550808273ffffffffffffffffffffffffffffffffffffffff16600073ffffffffffffffffffffffffffffffffffffffff167fddf252ad1be2c89b69c2b068fc378daa952ba7f163c4a11628f55a4df523b3ef60405160405180910390a45050565b505050565b6008805490506009600083815260200190815260200160002081905550600881908060018154018082558091505060019003906000526020600020016000909190919091505550565b600060016134788461118e565b6134829190614d5c565b9050600060076000848152602001908152602001600020549050818114613567576000600660008673ffffffffffffffffffffffffffffffffffffffff1673ffffffffffffffffffffffffffffffffffffffff168152602001908152602001600020600084815260200190815260200160002054905080600660008773ffffffffffffffffffffffffffffffffffffffff1673ffffffffffffffffffffffffffffffffffffffff168152602001908152602001600020600084815260200190815260200160002081905550816007600083815260200190815260200160002081905550505b6007600084815260200190815260200160002060009055600660008573ffffffffffffffffffffffffffffffffffffffff1673ffffffffffffffffffffffffffffffffffffffff16815260200190815260200160002060008381526020019081526020016000206000905550505050565b600060016008805490506135ec9190614d5c565b9050600060096000848152602001908152602001600020549050600060088381548110613642577f4e487b7100000000000000000000000000000000000000000000000000000000600052603260045260246000fd5b90600052602060002001549050806008838154811061368a577f4e487b7100000000000000000000000000000000000000000000000000000000600052603260045260246000fd5b9060005260206000200181905550816009600083815260200190815260200160002081905550600960008581526020019081526020016000206000905560088054806136ff577f4e487b7100000000000000000000000000000000000000000000000000000000600052603160045260246000fd5b6001900381819060005260206000200160009055905550505050565b60006137268361118e565b905081600660008573ffffffffffffffffffffffffffffffffffffffff1673ffffffffffffffffffffffffffffffffffffffff168152602001908152602001600020600083815260200190815260200160002081905550806007600084815260200190815260200160002081905550505050565b600080823b905060008111915050919050565b8280546137b990614e46565b90600052602060002090601f0160209004810192826137db5760008555613822565b82601f106137f457805160ff1916838001178555613822565b82800160010185558215613822579182015b82811115613821578251825591602001919060010190613806565b5b50905061382f9190613833565b5090565b5b8082111561384c576000816000905550600101613834565b5090565b600061386361385e84614c32565b614c01565b90508281526020810184848401111561387b57600080fd5b613886848285614e04565b509392505050565b60006138a161389c84614c62565b614c01565b9050828152602081018484840111156138b957600080fd5b6138c4848285614e04565b509392505050565b6000813590506138db81614fbf565b92915050565b6000815190506138f081614fbf565b92915050565b60008135905061390581614fd6565b92915050565b60008135905061391a81614fed565b92915050565b60008151905061392f81614fed565b92915050565b600082601f83011261394657600080fd5b8135613956848260208601613850565b91505092915050565b600082601f83011261397057600080fd5b813561398084826020860161388e565b91505092915050565b60008135905061399881615004565b92915050565b6000602082840312156139b057600080fd5b60006139be848285016138cc565b91505092915050565b6000602082840312156139d957600080fd5b60006139e7848285016138e1565b91505092915050565b60008060408385031215613a0357600080fd5b6000613a11858286016138cc565b9250506020613a22858286016138cc565b9150509250929050565b600080600060608486031215613a4157600080fd5b6000613a4f868287016138cc565b9350506020613a60868287016138cc565b9250506040613a7186828701613989565b9150509250925092565b60008060008060808587031215613a9157600080fd5b6000613a9f878288016138cc565b9450506020613ab0878288016138cc565b9350506040613ac187828801613989565b925050606085013567ffffffffffffffff811115613ade57600080fd5b613aea87828801613935565b91505092959194509250565b60008060408385031215613b0957600080fd5b6000613b17858286016138cc565b9250506020613b28858286016138f6565b9150509250929050565b60008060408385031215613b4557600080fd5b6000613b53858286016138cc565b9250506020613b6485828601613989565b9150509250929050565b600060208284031215613b8057600080fd5b6000613b8e848285016138f6565b91505092915050565b600060208284031215613ba957600080fd5b6000613bb78482850161390b565b91505092915050565b600060208284031215613bd257600080fd5b6000613be084828501613920565b91505092915050565b600060208284031215613bfb57600080fd5b600082013567ffffffffffffffff811115613c1557600080fd5b613c218482850161395f565b91505092915050565b600060208284031215613c3c57600080fd5b6000613c4a84828501613989565b91505092915050565b613c5c81614d90565b82525050565b613c6b81614da2565b82525050565b6000613c7c82614c92565b613c868185614ca8565b9350613c96818560208601614e13565b613c9f81614fae565b840191505092915050565b6000613cb582614c9d565b613cbf8185614cb9565b9350613ccf818560208601614e13565b613cd881614fae565b840191505092915050565b6000613cee82614c9d565b613cf88185614cca565b9350613d08818560208601614e13565b80840191505092915050565b6000613d21602b83614cb9565b91507f455243373231456e756d657261626c653a206f776e657220696e646578206f7560008301527f74206f6620626f756e64730000000000000000000000000000000000000000006020830152604082019050919050565b6000613d87603283614cb9565b91507f4552433732313a207472616e7366657220746f206e6f6e20455243373231526560008301527f63656976657220696d706c656d656e74657200000000000000000000000000006020830152604082019050919050565b6000613ded601483614cb9565b91507f4d696e74206973206e6f7420796574206f70656e0000000000000000000000006000830152602082019050919050565b6000613e2d602883614cb9565b91507f4d757374206265206120686f6c646572206f662047726163654949206f72205360008301527f616665486176656e0000000000000000000000000000000000000000000000006020830152604082019050919050565b6000613e93602683614cb9565b91507f4f776e61626c653a206e6577206f776e657220697320746865207a65726f206160008301527f64647265737300000000000000000000000000000000000000000000000000006020830152604082019050919050565b6000613ef9601c83614cb9565b91507f4552433732313a20746f6b656e20616c7265616479206d696e746564000000006000830152602082019050919050565b6000613f39602d83614cb9565b91507f57616c6c6574206d7573742062652070617274206f6620746865206e6f6e2d6360008301527f6f6c6c6563746f72206c697374000000000000000000000000000000000000006020830152604082019050919050565b6000613f9f602483614cb9565b91507f4552433732313a207472616e7366657220746f20746865207a65726f2061646460008301527f72657373000000000000000000000000000000000000000000000000000000006020830152604082019050919050565b6000614005603983614cb9565b91507f57616c6c65742068617320616c726561647920616464656420746f207468652060008301527f6f6e65206f66206f6e6520636f6c6c6563746f72206c697374000000000000006020830152604082019050919050565b600061406b601983614cb9565b91507f4552433732313a20617070726f766520746f2063616c6c6572000000000000006000830152602082019050919050565b60006140ab602e83614cb9565b91507f57616c6c657420616c7265616479206d696e746564206265666f726520666f7260008301527f20746869732063617465676f72790000000000000000000000000000000000006020830152604082019050919050565b6000614111602c83614cb9565b91507f4552433732313a206f70657261746f7220717565727920666f72206e6f6e657860008301527f697374656e7420746f6b656e00000000000000000000000000000000000000006020830152604082019050919050565b6000614177603883614cb9565b91507f4552433732313a20617070726f76652063616c6c6572206973206e6f74206f7760008301527f6e6572206e6f7220617070726f76656420666f7220616c6c00000000000000006020830152604082019050919050565b60006141dd602a83614cb9565b91507f4552433732313a2062616c616e636520717565727920666f7220746865207a6560008301527f726f2061646472657373000000000000000000000000000000000000000000006020830152604082019050919050565b6000614243601b83614cb9565b91507f6d696e744f70656e20616c726561647920746869732076616c756500000000006000830152602082019050919050565b6000614283602983614cb9565b91507f4552433732313a206f776e657220717565727920666f72206e6f6e657869737460008301527f656e7420746f6b656e00000000000000000000000000000000000000000000006020830152604082019050919050565b60006142e9602883614cb9565b91507f57616c6c6574206d75737420626520616e206f70656e2065646974696f6e206360008301527f6f6c6c6563746f720000000000000000000000000000000000000000000000006020830152604082019050919050565b600061434f602083614cb9565b91507f4552433732313a206d696e7420746f20746865207a65726f20616464726573736000830152602082019050919050565b600061438f602c83614cb9565b91507f4552433732313a20617070726f76656420717565727920666f72206e6f6e657860008301527f697374656e7420746f6b656e00000000000000000000000000000000000000006020830152604082019050919050565b60006143f5602083614cb9565b91507f4f776e61626c653a2063616c6c6572206973206e6f7420746865206f776e65726000830152602082019050919050565b6000614435602983614cb9565b91507f4552433732313a207472616e73666572206f6620746f6b656e2074686174206960008301527f73206e6f74206f776e00000000000000000000000000000000000000000000006020830152604082019050919050565b600061449b602f83614cb9565b91507f4552433732314d657461646174613a2055524920717565727920666f72206e6f60008301527f6e6578697374656e7420746f6b656e00000000000000000000000000000000006020830152604082019050919050565b6000614501602183614cb9565b91507f4552433732313a20617070726f76616c20746f2063757272656e74206f776e6560008301527f72000000000000000000000000000000000000000000000000000000000000006020830152604082019050919050565b6000614567603283614cb9565b91507f57616c6c65742068617320616c726561647920616464656420746f207468652060008301527f6e6f6e20636f6c6c6563746f72206c69737400000000000000000000000000006020830152604082019050919050565b60006145cd603183614cb9565b91507f4552433732313a207472616e736665722063616c6c6572206973206e6f74206f60008301527f776e6572206e6f7220617070726f7665640000000000000000000000000000006020830152604082019050919050565b6000614633602c83614cb9565b91507f455243373231456e756d657261626c653a20676c6f62616c20696e646578206f60008301527f7574206f6620626f756e647300000000000000000000000000000000000000006020830152604082019050919050565b6000614699603c83614cb9565b91507f494e5445524e414c204552524f523a2052656163686564206d617820746f6b6560008301527f6e7320616c6c6f77656420666f7220746869732063617465676f7279000000006020830152604082019050919050565b60006146ff602e83614cb9565b91507f57616c6c6574206d696e74656420616c7265616479206265666f726520666f7260008301527f20746869732063617465676f72790000000000000000000000000000000000006020830152604082019050919050565b61476181614dfa565b82525050565b60006147738285613ce3565b915061477f8284613ce3565b91508190509392505050565b60006020820190506147a06000830184613c53565b92915050565b60006080820190506147bb6000830187613c53565b6147c86020830186613c53565b6147d56040830185614758565b81810360608301526147e78184613c71565b905095945050505050565b60006020820190506148076000830184613c62565b92915050565b60006060820190506148226000830186613c62565b61482f6020830185614758565b61483c6040830184614758565b949350505050565b6000602082019050818103600083015261485e8184613caa565b905092915050565b6000602082019050818103600083015261487f81613d14565b9050919050565b6000602082019050818103600083015261489f81613d7a565b9050919050565b600060208201905081810360008301526148bf81613de0565b9050919050565b600060208201905081810360008301526148df81613e20565b9050919050565b600060208201905081810360008301526148ff81613e86565b9050919050565b6000602082019050818103600083015261491f81613eec565b9050919050565b6000602082019050818103600083015261493f81613f2c565b9050919050565b6000602082019050818103600083015261495f81613f92565b9050919050565b6000602082019050818103600083015261497f81613ff8565b9050919050565b6000602082019050818103600083015261499f8161405e565b9050919050565b600060208201905081810360008301526149bf8161409e565b9050919050565b600060208201905081810360008301526149df81614104565b9050919050565b600060208201905081810360008301526149ff8161416a565b9050919050565b60006020820190508181036000830152614a1f816141d0565b9050919050565b60006020820190508181036000830152614a3f81614236565b9050919050565b60006020820190508181036000830152614a5f81614276565b9050919050565b60006020820190508181036000830152614a7f816142dc565b9050919050565b60006020820190508181036000830152614a9f81614342565b9050919050565b60006020820190508181036000830152614abf81614382565b9050919050565b60006020820190508181036000830152614adf816143e8565b9050919050565b60006020820190508181036000830152614aff81614428565b9050919050565b60006020820190508181036000830152614b1f8161448e565b9050919050565b60006020820190508181036000830152614b3f816144f4565b9050919050565b60006020820190508181036000830152614b5f8161455a565b9050919050565b60006020820190508181036000830152614b7f816145c0565b9050919050565b60006020820190508181036000830152614b9f81614626565b9050919050565b60006020820190508181036000830152614bbf8161468c565b9050919050565b60006020820190508181036000830152614bdf816146f2565b9050919050565b6000602082019050614bfb6000830184614758565b92915050565b6000604051905081810181811067ffffffffffffffff82111715614c2857614c27614f7f565b5b8060405250919050565b600067ffffffffffffffff821115614c4d57614c4c614f7f565b5b601f19601f8301169050602081019050919050565b600067ffffffffffffffff821115614c7d57614c7c614f7f565b5b601f19601f8301169050602081019050919050565b600081519050919050565b600081519050919050565b600082825260208201905092915050565b600082825260208201905092915050565b600081905092915050565b6000614ce082614dfa565b9150614ceb83614dfa565b9250827fffffffffffffffffffffffffffffffffffffffffffffffffffffffffffffffff03821115614d2057614d1f614ef2565b5b828201905092915050565b6000614d3682614dfa565b9150614d4183614dfa565b925082614d5157614d50614f21565b5b828204905092915050565b6000614d6782614dfa565b9150614d7283614dfa565b925082821015614d8557614d84614ef2565b5b828203905092915050565b6000614d9b82614dda565b9050919050565b60008115159050919050565b60007fffffffff0000000000000000000000000000000000000000000000000000000082169050919050565b600073ffffffffffffffffffffffffffffffffffffffff82169050919050565b6000819050919050565b82818337600083830152505050565b60005b83811015614e31578082015181840152602081019050614e16565b83811115614e40576000848401525b50505050565b60006002820490506001821680614e5e57607f821691505b60208210811415614e7257614e71614f50565b5b50919050565b6000614e8382614dfa565b91507fffffffffffffffffffffffffffffffffffffffffffffffffffffffffffffffff821415614eb657614eb5614ef2565b5b600182019050919050565b6000614ecc82614dfa565b9150614ed783614dfa565b925082614ee757614ee6614f21565b5b828206905092915050565b7f4e487b7100000000000000000000000000000000000000000000000000000000600052601160045260246000fd5b7f4e487b7100000000000000000000000000000000000000000000000000000000600052601260045260246000fd5b7f4e487b7100000000000000000000000000000000000000000000000000000000600052602260045260246000fd5b7f4e487b7100000000000000000000000000000000000000000000000000000000600052604160045260246000fd5b6000601f19601f8301169050919050565b614fc881614d90565b8114614fd357600080fd5b50565b614fdf81614da2565b8114614fea57600080fd5b50565b614ff681614dae565b811461500157600080fd5b50565b61500d81614dfa565b811461501857600080fd5b5056fea2646970667358221220b77aee61d4657ca278bdd5ecea5aa8519673bf162880348c900fabb09d03a21964736f6c63430008000033",
  "immutableReferences": {},
  "source": "// SPDX-License-Identifier: MIT\npragma solidity ^0.8.0;\n\nimport \"../node_modules/openzeppelin-solidity/contracts/token/ERC721/extensions/ERC721Enumerable.sol\";\nimport \"../node_modules/openzeppelin-solidity/contracts/token/ERC721/ERC721.sol\";\nimport \"../node_modules/openzeppelin-solidity/contracts/access/Ownable.sol\";\n\ncontract Flower is ERC721Enumerable, Ownable {\n    string public baseURI;\n\n    mapping(address => bool) oneOfOneCollectors;\n\n    mapping(address => bool) nonCollectors;\n\n    address BuildABetterFutureContract;\n    address TimePieceCommunityContract;\n\n    // mintList\n    mapping(address => bool) public oneOfOneMintList;\n    mapping(address => bool) public nonCollectorsMintList;\n    mapping(address => bool) public openEditionCollectorsMintList;\n    // tokenId => minted\n    mapping(uint256 => bool) public safeHavenTokenMintList;\n    mapping(uint256 => bool) public graceIITokenMintList;\n\n    // counters\n    // tokenIds 1 to 14\n    uint256 private oneOfOneMintedCount = 1;\n\n    // tokenIds 15 to 24\n    uint256 private nonCollectorsMintedCount = 15;\n\n    // tokenIds 25 to 54\n    uint256 private openEditionCollectorsMintedCount = 25;\n\n    bool private mintOpen = false;\n\n    //these tokens must exists, otherwise the check fails cos of _exists\n    uint256[] safeHavenTokens = [4216, 4209, 4213, 4215, 4207, 4214, 4211, 4208, 4210, 4212, 4206]; //babF\n    uint256[] graceIITokens = [\n        4173, 4168, 4176, 4236, 4171, 4212, 4190, 4098, 4092, 4167, 4112, 4228, 4149, 4209, 4244,\n        4146, 4222, 4165, 4158, 4153, 4136, 4139, 4100, 4217, 4208, 4178, 4152, 4221, 4141, 4218,\n        4087, 4082, 4097, 4071, 4150, 4204, 4193, 4242, 4220, 4099, 4140, 4077, 4237, 4170, 4162,\n        4073, 4101, 4240, 4142, 4085, 4148, 4191, 4129, 4128, 4172, 4253, 4070, 4095, 4199, 4081,\n        4108, 4151, 4084, 4206, 4124, 4110, 4230, 4106, 4120, 4216, 4093, 4154, 4198, 4175, 4103,\n        4137, 4117, 4118, 4192, 4185, 4076, 4078, 4223, 4213, 4186, 4225, 4159, 4210, 4134, 4116,\n        4114, 4145, 4187, 4133, 4243, 4096, 4232, 4111, 4188, 4183, 4090, 4104, 4211, 4219, 4164,\n        4089, 4161, 4113, 4235, 4197, 4147, 4207, 4229, 4086, 4094, 4224, 4122, 4157, 4109, 4251,\n        4181, 4254, 4125, 4252, 4130, 4248, 4182, 4144, 4163, 4166, 4105, 4184, 4201, 4189, 4156,\n        4249, 4123, 4169, 4115, 4231, 4215, 4138, 4234, 4131, 4119, 4247, 4074, 4179, 4202, 4246,\n        4155, 4121, 4180, 4102, 4079, 4238, 4143, 4245, 4080, 4083, 4075, 4135, 4195, 4200, 4203,\n        4239, 4233, 4196, 4227, 4132, 4250, 4107, 4174, 4160, 4177, 4226, 66, 67, 68, 4194, 4088,\n        4205, 4072, 4214, 4241, 4126, 4127, 4091\n      ]; // IRB\n\n    modifier whenMintOpened() {\n        require(mintOpen == true, \"Mint is not yet open\");\n        _;\n    }\n    constructor(\n        string memory _initBaseURI,\n        address buildABetterFutureContract,\n        address timePieceCommunityContract\n    ) ERC721(\"Flowers\", \"FLW\") {\n        setBaseURI(_initBaseURI);\n\n        BuildABetterFutureContract = buildABetterFutureContract;\n        TimePieceCommunityContract = timePieceCommunityContract;\n\n        // define one-of-one-collectors\n        oneOfOneCollectors[0x8c9F364bf7a56Ed058fc63Ef81c6Cf09c833e656] = true;\n        oneOfOneCollectors[0x9FDf724BcDF9392bD4b99A1C463EC674bC891bB9] = true;\n        oneOfOneCollectors[0x1E815a8188F1b84564577C1c998f7E6B4706B752] = true;\n        oneOfOneCollectors[0x109Ad81CA063fa1a8237189e31821d3114c52a4e] = true;\n        oneOfOneCollectors[0x75259686c1C967399eDA0b4B16f16FB0990f9615] = true;\n        oneOfOneCollectors[0xC571147a515a789eB23cbCBf92F86bc1485ab877] = true;\n        oneOfOneCollectors[0x30a189710f75c6b60b96081F12B288AbEDeDa260] = true;\n        oneOfOneCollectors[0x4E84a91a450aeEF23F0670Fb486d55b1d85A8dD0] = true;\n        oneOfOneCollectors[0x3612b2e93b49F6c797066cA8c38b7f522b32c7cb] = true;\n        oneOfOneCollectors[0xcF6f5A68d94165081A634AdA997BE3A93426C467] = true;\n        oneOfOneCollectors[0x8C94072567b278b9fa12192CcA899B3Ce0ED5FDc] = true;\n        oneOfOneCollectors[0x8139bA1a21dB4b924A81D5De90a98980B5D502E5] = true;\n        oneOfOneCollectors[0xcA71c095Ac06c5f17e03Da013c8041701Ef438b6] = true;\n        oneOfOneCollectors[0x0D48086911270b67bC973B7AA1A1332EF83DD472] = true;\n\n        // define non-collectors\n        nonCollectors[0x80Aa4AF1Fb6e8a381b73809cbf06AED2666A7b64] = true;\n        nonCollectors[0x7E66dE1A57e6DC63B31FF03B50c103379c840d14] = true;\n        nonCollectors[0xeb758d7b02eb8ADfAA553f49Cfa8b034Ab73c1C4] = true;\n        nonCollectors[0xFC789C7927aC1cC8CaeFDE8bEbf493961AC5be9B] = true;\n        nonCollectors[0x0f2f2F7bFC893aDa1714802924F96B82c9A1fFD3] = true;\n        nonCollectors[0x215F7aDd9541Bc097679D9237DF7d42bb114134c] = true;\n        nonCollectors[0xb3007FF3c3F40bDF0126fEc7c8E43c3Fc50Ea813] = true;\n        nonCollectors[0x1Da98aa4FaEFB6eC93cC1bA6AdcFB59c8aF51152] = true;\n        nonCollectors[0x2c11Cf38a6A5Ac74eA438d0037F7f880021FC66f] = true;\n        nonCollectors[0x7ed90FDd530Ec92E90E197bA891378b1f9680e0A] = true;\n        nonCollectors[0xDc1bc12a38206B010971859DC7177AfF9d27C454] = true;\n        nonCollectors[0x5F0ACdE83F858014bc9723B356095E28fc8880B1] = true;\n    }\n\n    function _baseURI() internal view virtual override returns (string memory) {\n        return baseURI;\n    }\n\n    function isOneOfOneCollector(address _wallet) public view returns (bool) {\n        return oneOfOneCollectors[_wallet];\n    }\n\n    function isNonCollector(address _wallet) public view returns (bool) {\n        return nonCollectors[_wallet];\n    }\n    function _safeHavenOwner(address _wallet)\n        internal\n        view\n        returns (bool _holder, uint256 _tokenId)\n    {\n        ERC721 buildABetterFuture = ERC721(BuildABetterFutureContract);\n\n        for (uint256 i = 0; i < safeHavenTokens.length; i++) {\n            if (buildABetterFuture.ownerOf(safeHavenTokens[i]) == _wallet) {\n                return (true, safeHavenTokens[i]);\n            }\n        }\n        return (false, 0);\n    }\n\n    function _graceIIOwner(address _wallet)\n        internal\n        view\n        returns (bool _holder, uint256 _tokenId)\n    {\n        ERC721 timePieceCommunity = ERC721(TimePieceCommunityContract);\n\n        for (uint256 i = 0; i < graceIITokens.length; i++) {\n            if (timePieceCommunity.ownerOf(graceIITokens[i]) == _wallet) {\n                return (true, graceIITokens[i]);\n            }\n        }\n        return (false, 0);\n    }\n\n    // below function and next following seems like a duplication of above,\n    // but its intentional, as below 2 are used by FE cos of gas approximation issue explianed elsewhere\n    function isSafeHavenOwner(address _wallet, uint256 _tokenId)\n        public\n        view\n        returns (bool)\n    {\n        ERC721 buildABetterFuture = ERC721(BuildABetterFutureContract);\n\n        if (buildABetterFuture.ownerOf(_tokenId) == _wallet) {\n            return true;\n        }\n        return false;\n    }\n\n    function isGraceIIOwner(address _wallet, uint256 _tokenId)\n        public\n        view\n        returns (bool)\n    {\n        ERC721 timePieceCommunity = ERC721(TimePieceCommunityContract);\n\n        if (timePieceCommunity.ownerOf(_tokenId) == _wallet) {\n            return true;\n        }\n        return false;\n    }\n\n    // function to determine if sender is open-edition collector\n    // FYI: Last minute change made this not be used on FE as etherjs couldnot auto detect gas fees,\n    function isOpenEditionCollector(address _wallet)\n        public\n        view\n        returns (\n            bool isHolder,\n            uint256 safeHavenTokenId,\n            uint256 graceIITokenId\n        )\n    {\n        (bool _safeHavenHolder, uint256 _safeHavenTokenId) = _safeHavenOwner(\n            _wallet\n        );\n        (bool _graceIIHolder, uint256 _graceIITokenId) = _graceIIOwner(_wallet);\n\n        isHolder = _safeHavenHolder == true || _graceIIHolder == true;\n        return (isHolder, _safeHavenTokenId, _graceIITokenId);\n    }\n\n    function mint1Of1Holder(address _wallet) external whenMintOpened {\n        require(\n            oneOfOneMintList[_wallet] == false,\n            \"Wallet already minted before for this category\"\n        );\n        require(\n            isOneOfOneCollector(_wallet) == true,\n            \"Wallet must be an open edition collector\"\n        );\n        // this condition should actually never be triggered, but having it here incase\n        // might remove later to save compiled code space.\n        require(\n            oneOfOneMintedCount <= 14,\n            \"INTERNAL ERROR: Reached max tokens allowed for this category\"\n        );\n        uint256 tokenId = oneOfOneMintedCount;\n\n        _safeMint(_wallet, tokenId);\n\n        oneOfOneMintList[_wallet] = true;\n        oneOfOneMintedCount += 1;\n\n        emit LogMintOneOfOneHolder(_wallet, tokenId);\n    }\n\n    function mintNonCollector(address _wallet) external whenMintOpened {\n        require(\n            nonCollectorsMintList[_wallet] == false,\n            \"Wallet already minted before for this category\"\n        );\n        require(\n            isNonCollector(_wallet) == true,\n            \"Wallet must be part of the non-collector list\"\n        );\n\n        // this condition should actually never be triggered, but having it here incase\n        // might remove later to save compiled code space.\n        require(\n            nonCollectorsMintedCount <= 24,\n            \"INTERNAL ERROR: Reached max tokens allowed for this category\"\n        );\n        uint256 tokenId = nonCollectorsMintedCount;\n\n        _safeMint(_wallet, tokenId);\n\n        nonCollectorsMintList[_wallet] = true;\n        nonCollectorsMintedCount += 1;\n        emit LogMintNonCollector(_wallet, tokenId);\n    }\n\n    function mintOpenEdition(address _wallet) external whenMintOpened {\n        (\n            bool isHolder,\n            uint256 _safeHavenTokenId,\n            uint256 _graceIITokenId\n        ) = isOpenEditionCollector(_wallet);\n        require(isHolder == true, \"Must be a holder of GraceII or SafeHaven\");\n        require(\n            safeHavenTokenMintList[_safeHavenTokenId] == false ||\n                graceIITokenMintList[_graceIITokenId] == false,\n            \"Wallet minted already before for this category\"\n        );\n\n        require(\n            openEditionCollectorsMintedCount <= 54,\n            \"INTERNAL ERROR: Reached max tokens allowed for this category\"\n        );\n        uint256 tokenId = openEditionCollectorsMintedCount;\n\n        _safeMint(_wallet, tokenId);\n\n        // -- store tokenId and address that minted\n        if (_safeHavenTokenId != 0) {\n            safeHavenTokenMintList[_safeHavenTokenId] = true;\n        } else {\n            graceIITokenMintList[_graceIITokenId] = true;\n        }\n\n        openEditionCollectorsMintedCount += 1;\n        openEditionCollectorsMintList[_wallet] = true;\n        emit LogMintOpenEdition(_wallet, tokenId);\n    }\n\n    // Only owner - admin methods\n    function setBaseURI(string memory newURI) public onlyOwner {\n        baseURI = newURI;\n    }\n\n    function setMintOpen(bool value) external onlyOwner {\n        require(mintOpen != value, \"mintOpen already this value\");\n        mintOpen = value;\n    }\n\n    // these method below should never reallybe used as they may reset the counters for available mints\n    // only added here to prevent total lockout\n    function addOneOfOneCollector(address _wallet) external onlyOwner {\n        require(\n            oneOfOneCollectors[_wallet] != true,\n            \"Wallet has already added to the one of one collector list\"\n        );\n        oneOfOneCollectors[_wallet] = true;\n    }\n\n    function addNonCollector(address _wallet) external onlyOwner {\n        require(\n            nonCollectors[_wallet] != true,\n            \"Wallet has already added to the non collector list\"\n        );\n        nonCollectors[_wallet] = true;\n    }\n\n    // Events\n    event LogMintOneOfOneHolder(address indexed _address, uint256 _tokenId);\n    event LogMintNonCollector(address indexed _address, uint256 _tokenId);\n    event LogMintOpenEdition(address indexed _address, uint256 _tokenId);\n}\n",
  "sourcePath": "/Users/eo/workspace/lethabo-aniversary-drop/contracts/Flower.sol",
  "compiler": {
    "name": "solc",
    "version": "0.8.0+commit.c7dfd78e.Emscripten.clang"
  },
  "schemaVersion": "3.4.3",
  "updatedAt": "2021-11-30T16:51:31.096Z",
  "devdoc": {
    "kind": "dev",
    "methods": {
      "approve(address,uint256)": {
        "details": "See {IERC721-approve}."
      },
      "balanceOf(address)": {
        "details": "See {IERC721-balanceOf}."
      },
      "getApproved(uint256)": {
        "details": "See {IERC721-getApproved}."
      },
      "isApprovedForAll(address,address)": {
        "details": "See {IERC721-isApprovedForAll}."
      },
      "name()": {
        "details": "See {IERC721Metadata-name}."
      },
      "owner()": {
        "details": "Returns the address of the current owner."
      },
      "ownerOf(uint256)": {
        "details": "See {IERC721-ownerOf}."
      },
      "renounceOwnership()": {
        "details": "Leaves the contract without owner. It will not be possible to call `onlyOwner` functions anymore. Can only be called by the current owner. NOTE: Renouncing ownership will leave the contract without an owner, thereby removing any functionality that is only available to the owner."
      },
      "safeTransferFrom(address,address,uint256)": {
        "details": "See {IERC721-safeTransferFrom}."
      },
      "safeTransferFrom(address,address,uint256,bytes)": {
        "details": "See {IERC721-safeTransferFrom}."
      },
      "setApprovalForAll(address,bool)": {
        "details": "See {IERC721-setApprovalForAll}."
      },
      "supportsInterface(bytes4)": {
        "details": "See {IERC165-supportsInterface}."
      },
      "symbol()": {
        "details": "See {IERC721Metadata-symbol}."
      },
      "tokenByIndex(uint256)": {
        "details": "See {IERC721Enumerable-tokenByIndex}."
      },
      "tokenOfOwnerByIndex(address,uint256)": {
        "details": "See {IERC721Enumerable-tokenOfOwnerByIndex}."
      },
      "tokenURI(uint256)": {
        "details": "See {IERC721Metadata-tokenURI}."
      },
      "totalSupply()": {
        "details": "See {IERC721Enumerable-totalSupply}."
      },
      "transferFrom(address,address,uint256)": {
        "details": "See {IERC721-transferFrom}."
      },
      "transferOwnership(address)": {
        "details": "Transfers ownership of the contract to a new account (`newOwner`). Can only be called by the current owner."
      }
    },
    "version": 1
  },
  "userdoc": {
    "kind": "user",
    "methods": {},
    "version": 1
  }
}