{
  "contractName": "Flower",
  "abi": [
    {
      "inputs": [
        {
          "internalType": "string",
          "name": "_initBaseURI",
          "type": "string"
        },
        {
          "internalType": "address",
          "name": "buildABetterFutureContract",
          "type": "address"
        },
        {
          "internalType": "address",
          "name": "timePieceCommunityContract",
          "type": "address"
        }
      ],
      "stateMutability": "nonpayable",
      "type": "constructor"
    },
    {
      "anonymous": false,
      "inputs": [
        {
          "indexed": true,
          "internalType": "address",
          "name": "owner",
          "type": "address"
        },
        {
          "indexed": true,
          "internalType": "address",
          "name": "approved",
          "type": "address"
        },
        {
          "indexed": true,
          "internalType": "uint256",
          "name": "tokenId",
          "type": "uint256"
        }
      ],
      "name": "Approval",
      "type": "event"
    },
    {
      "anonymous": false,
      "inputs": [
        {
          "indexed": true,
          "internalType": "address",
          "name": "owner",
          "type": "address"
        },
        {
          "indexed": true,
          "internalType": "address",
          "name": "operator",
          "type": "address"
        },
        {
          "indexed": false,
          "internalType": "bool",
          "name": "approved",
          "type": "bool"
        }
      ],
      "name": "ApprovalForAll",
      "type": "event"
    },
    {
      "anonymous": false,
      "inputs": [
        {
          "indexed": true,
          "internalType": "address",
          "name": "_address",
          "type": "address"
        },
        {
          "indexed": false,
          "internalType": "uint256",
          "name": "_tokenId",
          "type": "uint256"
        }
      ],
      "name": "LogMintNonCollector",
      "type": "event"
    },
    {
      "anonymous": false,
      "inputs": [
        {
          "indexed": true,
          "internalType": "address",
          "name": "_address",
          "type": "address"
        },
        {
          "indexed": false,
          "internalType": "uint256",
          "name": "_tokenId",
          "type": "uint256"
        }
      ],
      "name": "LogMintOneOfOneHolder",
      "type": "event"
    },
    {
      "anonymous": false,
      "inputs": [
        {
          "indexed": true,
          "internalType": "address",
          "name": "_address",
          "type": "address"
        },
        {
          "indexed": false,
          "internalType": "uint256",
          "name": "_tokenId",
          "type": "uint256"
        }
      ],
      "name": "LogMintOpenEdition",
      "type": "event"
    },
    {
      "anonymous": false,
      "inputs": [
        {
          "indexed": true,
          "internalType": "address",
          "name": "previousOwner",
          "type": "address"
        },
        {
          "indexed": true,
          "internalType": "address",
          "name": "newOwner",
          "type": "address"
        }
      ],
      "name": "OwnershipTransferred",
      "type": "event"
    },
    {
      "anonymous": false,
      "inputs": [
        {
          "indexed": true,
          "internalType": "address",
          "name": "from",
          "type": "address"
        },
        {
          "indexed": true,
          "internalType": "address",
          "name": "to",
          "type": "address"
        },
        {
          "indexed": true,
          "internalType": "uint256",
          "name": "tokenId",
          "type": "uint256"
        }
      ],
      "name": "Transfer",
      "type": "event"
    },
    {
      "inputs": [
        {
          "internalType": "address",
          "name": "to",
          "type": "address"
        },
        {
          "internalType": "uint256",
          "name": "tokenId",
          "type": "uint256"
        }
      ],
      "name": "approve",
      "outputs": [],
      "stateMutability": "nonpayable",
      "type": "function"
    },
    {
      "inputs": [
        {
          "internalType": "address",
          "name": "owner",
          "type": "address"
        }
      ],
      "name": "balanceOf",
      "outputs": [
        {
          "internalType": "uint256",
          "name": "",
          "type": "uint256"
        }
      ],
      "stateMutability": "view",
      "type": "function"
    },
    {
      "inputs": [],
      "name": "baseURI",
      "outputs": [
        {
          "internalType": "string",
          "name": "",
          "type": "string"
        }
      ],
      "stateMutability": "view",
      "type": "function"
    },
    {
      "inputs": [
        {
          "internalType": "uint256",
          "name": "tokenId",
          "type": "uint256"
        }
      ],
      "name": "getApproved",
      "outputs": [
        {
          "internalType": "address",
          "name": "",
          "type": "address"
        }
      ],
      "stateMutability": "view",
      "type": "function"
    },
    {
      "inputs": [
        {
          "internalType": "uint256",
          "name": "",
          "type": "uint256"
        }
      ],
      "name": "graceIITokenMintList",
      "outputs": [
        {
          "internalType": "bool",
          "name": "",
          "type": "bool"
        }
      ],
      "stateMutability": "view",
      "type": "function"
    },
    {
      "inputs": [
        {
          "internalType": "address",
          "name": "owner",
          "type": "address"
        },
        {
          "internalType": "address",
          "name": "operator",
          "type": "address"
        }
      ],
      "name": "isApprovedForAll",
      "outputs": [
        {
          "internalType": "bool",
          "name": "",
          "type": "bool"
        }
      ],
      "stateMutability": "view",
      "type": "function"
    },
    {
      "inputs": [],
      "name": "name",
      "outputs": [
        {
          "internalType": "string",
          "name": "",
          "type": "string"
        }
      ],
      "stateMutability": "view",
      "type": "function"
    },
    {
      "inputs": [
        {
          "internalType": "address",
          "name": "",
          "type": "address"
        }
      ],
      "name": "nonCollectorsMintList",
      "outputs": [
        {
          "internalType": "bool",
          "name": "",
          "type": "bool"
        }
      ],
      "stateMutability": "view",
      "type": "function"
    },
    {
      "inputs": [
        {
          "internalType": "address",
          "name": "",
          "type": "address"
        }
      ],
      "name": "oneOfOneMintList",
      "outputs": [
        {
          "internalType": "bool",
          "name": "",
          "type": "bool"
        }
      ],
      "stateMutability": "view",
      "type": "function"
    },
    {
      "inputs": [
        {
          "internalType": "address",
          "name": "",
          "type": "address"
        }
      ],
      "name": "openEditionCollectorsMintList",
      "outputs": [
        {
          "internalType": "bool",
          "name": "",
          "type": "bool"
        }
      ],
      "stateMutability": "view",
      "type": "function"
    },
    {
      "inputs": [],
      "name": "owner",
      "outputs": [
        {
          "internalType": "address",
          "name": "",
          "type": "address"
        }
      ],
      "stateMutability": "view",
      "type": "function"
    },
    {
      "inputs": [
        {
          "internalType": "uint256",
          "name": "tokenId",
          "type": "uint256"
        }
      ],
      "name": "ownerOf",
      "outputs": [
        {
          "internalType": "address",
          "name": "",
          "type": "address"
        }
      ],
      "stateMutability": "view",
      "type": "function"
    },
    {
      "inputs": [],
      "name": "renounceOwnership",
      "outputs": [],
      "stateMutability": "nonpayable",
      "type": "function"
    },
    {
      "inputs": [
        {
          "internalType": "uint256",
          "name": "",
          "type": "uint256"
        }
      ],
      "name": "safeHavenTokenMintList",
      "outputs": [
        {
          "internalType": "bool",
          "name": "",
          "type": "bool"
        }
      ],
      "stateMutability": "view",
      "type": "function"
    },
    {
      "inputs": [
        {
          "internalType": "address",
          "name": "from",
          "type": "address"
        },
        {
          "internalType": "address",
          "name": "to",
          "type": "address"
        },
        {
          "internalType": "uint256",
          "name": "tokenId",
          "type": "uint256"
        }
      ],
      "name": "safeTransferFrom",
      "outputs": [],
      "stateMutability": "nonpayable",
      "type": "function"
    },
    {
      "inputs": [
        {
          "internalType": "address",
          "name": "from",
          "type": "address"
        },
        {
          "internalType": "address",
          "name": "to",
          "type": "address"
        },
        {
          "internalType": "uint256",
          "name": "tokenId",
          "type": "uint256"
        },
        {
          "internalType": "bytes",
          "name": "_data",
          "type": "bytes"
        }
      ],
      "name": "safeTransferFrom",
      "outputs": [],
      "stateMutability": "nonpayable",
      "type": "function"
    },
    {
      "inputs": [
        {
          "internalType": "address",
          "name": "operator",
          "type": "address"
        },
        {
          "internalType": "bool",
          "name": "approved",
          "type": "bool"
        }
      ],
      "name": "setApprovalForAll",
      "outputs": [],
      "stateMutability": "nonpayable",
      "type": "function"
    },
    {
      "inputs": [
        {
          "internalType": "bytes4",
          "name": "interfaceId",
          "type": "bytes4"
        }
      ],
      "name": "supportsInterface",
      "outputs": [
        {
          "internalType": "bool",
          "name": "",
          "type": "bool"
        }
      ],
      "stateMutability": "view",
      "type": "function"
    },
    {
      "inputs": [],
      "name": "symbol",
      "outputs": [
        {
          "internalType": "string",
          "name": "",
          "type": "string"
        }
      ],
      "stateMutability": "view",
      "type": "function"
    },
    {
      "inputs": [
        {
          "internalType": "uint256",
          "name": "index",
          "type": "uint256"
        }
      ],
      "name": "tokenByIndex",
      "outputs": [
        {
          "internalType": "uint256",
          "name": "",
          "type": "uint256"
        }
      ],
      "stateMutability": "view",
      "type": "function"
    },
    {
      "inputs": [
        {
          "internalType": "address",
          "name": "owner",
          "type": "address"
        },
        {
          "internalType": "uint256",
          "name": "index",
          "type": "uint256"
        }
      ],
      "name": "tokenOfOwnerByIndex",
      "outputs": [
        {
          "internalType": "uint256",
          "name": "",
          "type": "uint256"
        }
      ],
      "stateMutability": "view",
      "type": "function"
    },
    {
      "inputs": [
        {
          "internalType": "uint256",
          "name": "tokenId",
          "type": "uint256"
        }
      ],
      "name": "tokenURI",
      "outputs": [
        {
          "internalType": "string",
          "name": "",
          "type": "string"
        }
      ],
      "stateMutability": "view",
      "type": "function"
    },
    {
      "inputs": [],
      "name": "totalSupply",
      "outputs": [
        {
          "internalType": "uint256",
          "name": "",
          "type": "uint256"
        }
      ],
      "stateMutability": "view",
      "type": "function"
    },
    {
      "inputs": [
        {
          "internalType": "address",
          "name": "from",
          "type": "address"
        },
        {
          "internalType": "address",
          "name": "to",
          "type": "address"
        },
        {
          "internalType": "uint256",
          "name": "tokenId",
          "type": "uint256"
        }
      ],
      "name": "transferFrom",
      "outputs": [],
      "stateMutability": "nonpayable",
      "type": "function"
    },
    {
      "inputs": [
        {
          "internalType": "address",
          "name": "newOwner",
          "type": "address"
        }
      ],
      "name": "transferOwnership",
      "outputs": [],
      "stateMutability": "nonpayable",
      "type": "function"
    },
    {
      "inputs": [
        {
          "internalType": "address",
          "name": "_wallet",
          "type": "address"
        }
      ],
      "name": "isOneOfOneCollector",
      "outputs": [
        {
          "internalType": "bool",
          "name": "",
          "type": "bool"
        }
      ],
      "stateMutability": "view",
      "type": "function"
    },
    {
      "inputs": [
        {
          "internalType": "address",
          "name": "_wallet",
          "type": "address"
        }
      ],
      "name": "isNonCollector",
      "outputs": [
        {
          "internalType": "bool",
          "name": "",
          "type": "bool"
        }
      ],
      "stateMutability": "view",
      "type": "function"
    },
    {
      "inputs": [
        {
          "internalType": "address",
          "name": "_wallet",
          "type": "address"
        }
      ],
      "name": "isOpenEditionCollector",
      "outputs": [
        {
          "internalType": "bool",
          "name": "isHolder",
          "type": "bool"
        },
        {
          "internalType": "uint256",
          "name": "safeHavenTokenId",
          "type": "uint256"
        },
        {
          "internalType": "uint256",
          "name": "graceIITokenId",
          "type": "uint256"
        }
      ],
      "stateMutability": "view",
      "type": "function"
    },
    {
      "inputs": [
        {
          "internalType": "address",
          "name": "_wallet",
          "type": "address"
        }
      ],
      "name": "mint1Of1Holder",
      "outputs": [],
      "stateMutability": "nonpayable",
      "type": "function"
    },
    {
      "inputs": [
        {
          "internalType": "address",
          "name": "_wallet",
          "type": "address"
        }
      ],
      "name": "mintNonCollector",
      "outputs": [],
      "stateMutability": "nonpayable",
      "type": "function"
    },
    {
      "inputs": [
        {
          "internalType": "address",
          "name": "_wallet",
          "type": "address"
        }
      ],
      "name": "mintOpenEdition",
      "outputs": [],
      "stateMutability": "nonpayable",
      "type": "function"
    },
    {
      "inputs": [
        {
          "internalType": "string",
          "name": "newURI",
          "type": "string"
        }
      ],
      "name": "setBaseURI",
      "outputs": [],
      "stateMutability": "nonpayable",
      "type": "function"
    },
    {
      "inputs": [
        {
          "internalType": "bool",
          "name": "value",
          "type": "bool"
        }
      ],
      "name": "setMintOpen",
      "outputs": [],
      "stateMutability": "nonpayable",
      "type": "function"
    },
    {
      "inputs": [
        {
          "internalType": "address",
          "name": "_wallet",
          "type": "address"
        }
      ],
      "name": "addOneOfOneCollector",
      "outputs": [],
      "stateMutability": "nonpayable",
      "type": "function"
    },
    {
      "inputs": [
        {
          "internalType": "address",
          "name": "_wallet",
          "type": "address"
        }
      ],
      "name": "addNonCollector",
      "outputs": [],
      "stateMutability": "nonpayable",
      "type": "function"
    }
  ],
  "bytecode": "0x60806040526001601555600f60165560196017556000601860006101000a81548160ff0219169083151502179055506040518060200160405280600160ff16815250601990600162000053929190620004f0565b506040518060200160405280600260ff16815250601a90600162000079929190620004f0565b503480156200008757600080fd5b50604051620056cc380380620056cc8339818101604052810190620000ad919062000680565b6040518060400160405280600781526020017f466c6f77657273000000000000000000000000000000000000000000000000008152506040518060400160405280600381526020017f464c57000000000000000000000000000000000000000000000000000000000081525081600090805190602001906200013192919062000547565b5080600190805190602001906200014a92919062000547565b5050506200016d620001616200034d60201b60201c565b6200035560201b60201c565b6200017e836200041b60201b60201c565b81600e60006101000a81548173ffffffffffffffffffffffffffffffffffffffff021916908373ffffffffffffffffffffffffffffffffffffffff16021790555080600f60006101000a81548173ffffffffffffffffffffffffffffffffffffffff021916908373ffffffffffffffffffffffffffffffffffffffff1602179055506001600d60007353c379a44018504059d01ee3eb9645cb115fd93273ffffffffffffffffffffffffffffffffffffffff1673ffffffffffffffffffffffffffffffffffffffff16815260200190815260200160002060006101000a81548160ff0219169083151502179055506001600d600073f795b1d0e21a6488f5f44d9e61d26ae556b97d8b73ffffffffffffffffffffffffffffffffffffffff1673ffffffffffffffffffffffffffffffffffffffff16815260200190815260200160002060006101000a81548160ff0219169083151502179055506001600d6000737ed90fdd530ec92e90e197ba891378b1f9680e0a73ffffffffffffffffffffffffffffffffffffffff1673ffffffffffffffffffffffffffffffffffffffff16815260200190815260200160002060006101000a81548160ff021916908315150217905550505050620008e3565b600033905090565b6000600a60009054906101000a900473ffffffffffffffffffffffffffffffffffffffff16905081600a60006101000a81548173ffffffffffffffffffffffffffffffffffffffff021916908373ffffffffffffffffffffffffffffffffffffffff1602179055508173ffffffffffffffffffffffffffffffffffffffff168173ffffffffffffffffffffffffffffffffffffffff167f8be0079c531659141344cd1fd0a4f28419497f9722a3daafe3b4186f6b6457e060405160405180910390a35050565b6200042b6200034d60201b60201c565b73ffffffffffffffffffffffffffffffffffffffff1662000451620004c660201b60201c565b73ffffffffffffffffffffffffffffffffffffffff1614620004aa576040517f08c379a0000000000000000000000000000000000000000000000000000000008152600401620004a19062000731565b60405180910390fd5b80600b9080519060200190620004c292919062000547565b5050565b6000600a60009054906101000a900473ffffffffffffffffffffffffffffffffffffffff16905090565b82805482825590600052602060002090810192821562000534579160200282015b8281111562000533578251829060ff1690559160200191906001019062000511565b5b509050620005439190620005d8565b5090565b828054620005559062000835565b90600052602060002090601f016020900481019282620005795760008555620005c5565b82601f106200059457805160ff1916838001178555620005c5565b82800160010185558215620005c5579182015b82811115620005c4578251825591602001919060010190620005a7565b5b509050620005d49190620005d8565b5090565b5b80821115620005f3576000816000905550600101620005d9565b5090565b60006200060e620006088462000787565b62000753565b9050828152602081018484840111156200062757600080fd5b62000634848285620007ff565b509392505050565b6000815190506200064d81620008c9565b92915050565b600082601f8301126200066557600080fd5b815162000677848260208601620005f7565b91505092915050565b6000806000606084860312156200069657600080fd5b600084015167ffffffffffffffff811115620006b157600080fd5b620006bf8682870162000653565b9350506020620006d2868287016200063c565b9250506040620006e5868287016200063c565b9150509250925092565b6000620006fe602083620007ba565b91507f4f776e61626c653a2063616c6c6572206973206e6f7420746865206f776e65726000830152602082019050919050565b600060208201905081810360008301526200074c81620006ef565b9050919050565b6000604051905081810181811067ffffffffffffffff821117156200077d576200077c6200089a565b5b8060405250919050565b600067ffffffffffffffff821115620007a557620007a46200089a565b5b601f19601f8301169050602081019050919050565b600082825260208201905092915050565b6000620007d882620007df565b9050919050565b600073ffffffffffffffffffffffffffffffffffffffff82169050919050565b60005b838110156200081f57808201518184015260208101905062000802565b838111156200082f576000848401525b50505050565b600060028204905060018216806200084e57607f821691505b602082108114156200086557620008646200086b565b5b50919050565b7f4e487b7100000000000000000000000000000000000000000000000000000000600052602260045260246000fd5b7f4e487b7100000000000000000000000000000000000000000000000000000000600052604160045260246000fd5b620008d481620007cb565b8114620008e057600080fd5b50565b614dd980620008f36000396000f3fe608060405234801561001057600080fd5b50600436106102105760003560e01c8063715018a611610125578063a22cb465116100ad578063e985e9c51161007c578063e985e9c51461066d578063eff230d21461069d578063f2fde38b146106cf578063f8004d31146106eb578063fe3354d61461070757610210565b8063a22cb465146105d5578063b88d4fde146105f1578063c87b56dd1461060d578063d6dc505e1461063d57610210565b806382e9099a116100f457806382e9099a1461051d5780638d56ee01146105395780638da5cb5b1461056957806395d89b41146105875780639915ced3146105a557610210565b8063715018a6146104ab578063732c043d146104b55780637a8b575c146104d15780637d9204e91461050157610210565b80632f745c59116101a85780634f6ccce7116101775780634f6ccce7146103e157806355f804b3146104115780636352211e1461042d5780636c0360eb1461045d57806370a082311461047b57610210565b80632f745c591461033557806342842e0e1461036557806345c2867c1461038157806346aa5dcd146103b157610210565b8063095ea7b3116101e4578063095ea7b3146102af57806318160ddd146102cb57806323b872dd146102e95780632f1aee191461030557610210565b80629369161461021557806301ffc9a71461023157806306fdde0314610261578063081812fc1461027f575b600080fd5b61022f600480360381019061022a9190613726565b610723565b005b61024b6004803603810190610246919061391f565b61096f565b604051610258919061457a565b60405180910390f35b6102696109e9565b60405161027691906145cc565b60405180910390f35b610299600480360381019061029491906139b2565b610a7b565b6040516102a69190614513565b60405180910390f35b6102c960048036038101906102c491906138ba565b610b00565b005b6102d3610c18565b6040516102e0919061496e565b60405180910390f35b61030360048036038101906102fe91906137b4565b610c25565b005b61031f600480360381019061031a9190613726565b610c85565b60405161032c919061457a565b60405180910390f35b61034f600480360381019061034a91906138ba565b610ca5565b60405161035c919061496e565b60405180910390f35b61037f600480360381019061037a91906137b4565b610d4a565b005b61039b600480360381019061039691906139b2565b610d6a565b6040516103a8919061457a565b60405180910390f35b6103cb60048036038101906103c691906139b2565b610d8a565b6040516103d8919061457a565b60405180910390f35b6103fb60048036038101906103f691906139b2565b610daa565b604051610408919061496e565b60405180910390f35b61042b60048036038101906104269190613971565b610e41565b005b610447600480360381019061044291906139b2565b610ed7565b6040516104549190614513565b60405180910390f35b610465610f89565b60405161047291906145cc565b60405180910390f35b61049560048036038101906104909190613726565b611017565b6040516104a2919061496e565b60405180910390f35b6104b36110cf565b005b6104cf60048036038101906104ca9190613726565b611157565b005b6104eb60048036038101906104e69190613726565b6112c2565b6040516104f8919061457a565b60405180910390f35b61051b60048036038101906105169190613726565b611318565b005b61053760048036038101906105329190613726565b611483565b005b610553600480360381019061054e9190613726565b61174e565b604051610560919061457a565b60405180910390f35b6105716117a4565b60405161057e9190614513565b60405180910390f35b61058f6117ce565b60405161059c91906145cc565b60405180910390f35b6105bf60048036038101906105ba9190613726565b611860565b6040516105cc919061457a565b60405180910390f35b6105ef60048036038101906105ea919061387e565b611880565b005b61060b60048036038101906106069190613803565b611a01565b005b610627600480360381019061062291906139b2565b611a63565b60405161063491906145cc565b60405180910390f35b61065760048036038101906106529190613726565b611b0a565b604051610664919061457a565b60405180910390f35b61068760048036038101906106829190613778565b611b2a565b604051610694919061457a565b60405180910390f35b6106b760048036038101906106b29190613726565b611bbe565b6040516106c693929190614595565b60405180910390f35b6106e960048036038101906106e49190613726565b611c10565b005b610705600480360381019061070091906138f6565b611d08565b005b610721600480360381019061071c9190613726565b611df7565b005b60011515601860009054906101000a900460ff16151514610779576040517f08c379a00000000000000000000000000000000000000000000000000000000081526004016107709061462e565b60405180910390fd5b601060008273ffffffffffffffffffffffffffffffffffffffff1673ffffffffffffffffffffffffffffffffffffffff16815260200190815260200160002060009054906101000a900460ff16610805576040517f08c379a00000000000000000000000000000000000000000000000000000000081526004016107fc9061472e565b60405180910390fd5b60011515610812826112c2565b151514610854576040517f08c379a000000000000000000000000000000000000000000000000000000000815260040161084b906147ee565b60405180910390fd5b600e601554111561089a576040517f08c379a00000000000000000000000000000000000000000000000000000000081526004016108919061492e565b60405180910390fd5b600060155490506108ab8282612043565b6001601060008473ffffffffffffffffffffffffffffffffffffffff1673ffffffffffffffffffffffffffffffffffffffff16815260200190815260200160002060006101000a81548160ff0219169083151502179055506001601560008282546109169190614a5d565b925050819055508173ffffffffffffffffffffffffffffffffffffffff167f6ecf2eb9098248a69cc7abaac38e5dde0c18d6b1858a9ff7c308d60dd19214ee82604051610963919061496e565b60405180910390a25050565b60007f780e9d63000000000000000000000000000000000000000000000000000000007bffffffffffffffffffffffffffffffffffffffffffffffffffffffff1916827bffffffffffffffffffffffffffffffffffffffffffffffffffffffff191614806109e257506109e182612061565b5b9050919050565b6060600080546109f890614bce565b80601f0160208091040260200160405190810160405280929190818152602001828054610a2490614bce565b8015610a715780601f10610a4657610100808354040283529160200191610a71565b820191906000526020600020905b815481529060010190602001808311610a5457829003601f168201915b5050505050905090565b6000610a8682612143565b610ac5576040517f08c379a0000000000000000000000000000000000000000000000000000000008152600401610abc9061482e565b60405180910390fd5b6004600083815260200190815260200160002060009054906101000a900473ffffffffffffffffffffffffffffffffffffffff169050919050565b6000610b0b82610ed7565b90508073ffffffffffffffffffffffffffffffffffffffff168373ffffffffffffffffffffffffffffffffffffffff161415610b7c576040517f08c379a0000000000000000000000000000000000000000000000000000000008152600401610b73906148ae565b60405180910390fd5b8073ffffffffffffffffffffffffffffffffffffffff16610b9b6121af565b73ffffffffffffffffffffffffffffffffffffffff161480610bca5750610bc981610bc46121af565b611b2a565b5b610c09576040517f08c379a0000000000000000000000000000000000000000000000000000000008152600401610c009061476e565b60405180910390fd5b610c1383836121b7565b505050565b6000600880549050905090565b610c36610c306121af565b82612270565b610c75576040517f08c379a0000000000000000000000000000000000000000000000000000000008152600401610c6c906148ee565b60405180910390fd5b610c8083838361234e565b505050565b60116020528060005260406000206000915054906101000a900460ff1681565b6000610cb083611017565b8210610cf1576040517f08c379a0000000000000000000000000000000000000000000000000000000008152600401610ce8906145ee565b60405180910390fd5b600660008473ffffffffffffffffffffffffffffffffffffffff1673ffffffffffffffffffffffffffffffffffffffff168152602001908152602001600020600083815260200190815260200160002054905092915050565b610d6583838360405180602001604052806000815250611a01565b505050565b60146020528060005260406000206000915054906101000a900460ff1681565b60136020528060005260406000206000915054906101000a900460ff1681565b6000610db4610c18565b8210610df5576040517f08c379a0000000000000000000000000000000000000000000000000000000008152600401610dec9061490e565b60405180910390fd5b60088281548110610e2f577f4e487b7100000000000000000000000000000000000000000000000000000000600052603260045260246000fd5b90600052602060002001549050919050565b610e496121af565b73ffffffffffffffffffffffffffffffffffffffff16610e676117a4565b73ffffffffffffffffffffffffffffffffffffffff1614610ebd576040517f08c379a0000000000000000000000000000000000000000000000000000000008152600401610eb49061484e565b60405180910390fd5b80600b9080519060200190610ed3929190613535565b5050565b6000806002600084815260200190815260200160002060009054906101000a900473ffffffffffffffffffffffffffffffffffffffff169050600073ffffffffffffffffffffffffffffffffffffffff168173ffffffffffffffffffffffffffffffffffffffff161415610f80576040517f08c379a0000000000000000000000000000000000000000000000000000000008152600401610f77906147ce565b60405180910390fd5b80915050919050565b600b8054610f9690614bce565b80601f0160208091040260200160405190810160405280929190818152602001828054610fc290614bce565b801561100f5780601f10610fe45761010080835404028352916020019161100f565b820191906000526020600020905b815481529060010190602001808311610ff257829003601f168201915b505050505081565b60008073ffffffffffffffffffffffffffffffffffffffff168273ffffffffffffffffffffffffffffffffffffffff161415611088576040517f08c379a000000000000000000000000000000000000000000000000000000000815260040161107f9061478e565b60405180910390fd5b600360008373ffffffffffffffffffffffffffffffffffffffff1673ffffffffffffffffffffffffffffffffffffffff168152602001908152602001600020549050919050565b6110d76121af565b73ffffffffffffffffffffffffffffffffffffffff166110f56117a4565b73ffffffffffffffffffffffffffffffffffffffff161461114b576040517f08c379a00000000000000000000000000000000000000000000000000000000081526004016111429061484e565b60405180910390fd5b61115560006125aa565b565b61115f6121af565b73ffffffffffffffffffffffffffffffffffffffff1661117d6117a4565b73ffffffffffffffffffffffffffffffffffffffff16146111d3576040517f08c379a00000000000000000000000000000000000000000000000000000000081526004016111ca9061484e565b60405180910390fd5b60011515600c60008373ffffffffffffffffffffffffffffffffffffffff1673ffffffffffffffffffffffffffffffffffffffff16815260200190815260200160002060009054906101000a900460ff1615151415611267576040517f08c379a000000000000000000000000000000000000000000000000000000000815260040161125e906146ee565b60405180910390fd5b6001600c60008373ffffffffffffffffffffffffffffffffffffffff1673ffffffffffffffffffffffffffffffffffffffff16815260200190815260200160002060006101000a81548160ff02191690831515021790555050565b6000600c60008373ffffffffffffffffffffffffffffffffffffffff1673ffffffffffffffffffffffffffffffffffffffff16815260200190815260200160002060009054906101000a900460ff169050919050565b6113206121af565b73ffffffffffffffffffffffffffffffffffffffff1661133e6117a4565b73ffffffffffffffffffffffffffffffffffffffff1614611394576040517f08c379a000000000000000000000000000000000000000000000000000000000815260040161138b9061484e565b60405180910390fd5b60011515600d60008373ffffffffffffffffffffffffffffffffffffffff1673ffffffffffffffffffffffffffffffffffffffff16815260200190815260200160002060009054906101000a900460ff1615151415611428576040517f08c379a000000000000000000000000000000000000000000000000000000000815260040161141f906148ce565b60405180910390fd5b6001600d60008373ffffffffffffffffffffffffffffffffffffffff1673ffffffffffffffffffffffffffffffffffffffff16815260200190815260200160002060006101000a81548160ff02191690831515021790555050565b60011515601860009054906101000a900460ff161515146114d9576040517f08c379a00000000000000000000000000000000000000000000000000000000081526004016114d09061462e565b60405180910390fd5b60008060006114e784611bbe565b9250925092506001151583151514611534576040517f08c379a000000000000000000000000000000000000000000000000000000000815260040161152b9061464e565b60405180910390fd5b600015156013600084815260200190815260200160002060009054906101000a900460ff161515148061158b5750600015156014600083815260200190815260200160002060009054906101000a900460ff161515145b6115ca576040517f08c379a00000000000000000000000000000000000000000000000000000000081526004016115c19061494e565b60405180910390fd5b60366017541115611610576040517f08c379a00000000000000000000000000000000000000000000000000000000081526004016116079061492e565b60405180910390fd5b600060175490506116218582612043565b6000831461165a5760016013600085815260200190815260200160002060006101000a81548160ff021916908315150217905550611687565b60016014600084815260200190815260200160002060006101000a81548160ff0219169083151502179055505b60016017600082825461169a9190614a5d565b925050819055506001601260008773ffffffffffffffffffffffffffffffffffffffff1673ffffffffffffffffffffffffffffffffffffffff16815260200190815260200160002060006101000a81548160ff0219169083151502179055508473ffffffffffffffffffffffffffffffffffffffff167fad8d2d503c921760ea86bfc65c166337e4c183e0a3d65882179babdb57bce42f8260405161173f919061496e565b60405180910390a25050505050565b6000600d60008373ffffffffffffffffffffffffffffffffffffffff1673ffffffffffffffffffffffffffffffffffffffff16815260200190815260200160002060009054906101000a900460ff169050919050565b6000600a60009054906101000a900473ffffffffffffffffffffffffffffffffffffffff16905090565b6060600180546117dd90614bce565b80601f016020809104026020016040519081016040528092919081815260200182805461180990614bce565b80156118565780601f1061182b57610100808354040283529160200191611856565b820191906000526020600020905b81548152906001019060200180831161183957829003601f168201915b5050505050905090565b60106020528060005260406000206000915054906101000a900460ff1681565b6118886121af565b73ffffffffffffffffffffffffffffffffffffffff168273ffffffffffffffffffffffffffffffffffffffff1614156118f6576040517f08c379a00000000000000000000000000000000000000000000000000000000081526004016118ed9061470e565b60405180910390fd5b80600560006119036121af565b73ffffffffffffffffffffffffffffffffffffffff1673ffffffffffffffffffffffffffffffffffffffff16815260200190815260200160002060008473ffffffffffffffffffffffffffffffffffffffff1673ffffffffffffffffffffffffffffffffffffffff16815260200190815260200160002060006101000a81548160ff0219169083151502179055508173ffffffffffffffffffffffffffffffffffffffff166119b06121af565b73ffffffffffffffffffffffffffffffffffffffff167f17307eab39ab6107e8899845ad3d59bd9653f200f220920489ca2b5937696c31836040516119f5919061457a565b60405180910390a35050565b611a12611a0c6121af565b83612270565b611a51576040517f08c379a0000000000000000000000000000000000000000000000000000000008152600401611a48906148ee565b60405180910390fd5b611a5d84848484612670565b50505050565b6060611a6e82612143565b611aad576040517f08c379a0000000000000000000000000000000000000000000000000000000008152600401611aa49061488e565b60405180910390fd5b6000611ab76126cc565b90506000815111611ad75760405180602001604052806000815250611b02565b80611ae18461275e565b604051602001611af29291906144ef565b6040516020818303038152906040525b915050919050565b60126020528060005260406000206000915054906101000a900460ff1681565b6000600560008473ffffffffffffffffffffffffffffffffffffffff1673ffffffffffffffffffffffffffffffffffffffff16815260200190815260200160002060008373ffffffffffffffffffffffffffffffffffffffff1673ffffffffffffffffffffffffffffffffffffffff16815260200190815260200160002060009054906101000a900460ff16905092915050565b6000806000806000611bcf8661290b565b91509150600080611bdf88612ab9565b91509150600115158415151480611bfa575060011515821515145b9650868382965096509650505050509193909250565b611c186121af565b73ffffffffffffffffffffffffffffffffffffffff16611c366117a4565b73ffffffffffffffffffffffffffffffffffffffff1614611c8c576040517f08c379a0000000000000000000000000000000000000000000000000000000008152600401611c839061484e565b60405180910390fd5b600073ffffffffffffffffffffffffffffffffffffffff168173ffffffffffffffffffffffffffffffffffffffff161415611cfc576040517f08c379a0000000000000000000000000000000000000000000000000000000008152600401611cf39061466e565b60405180910390fd5b611d05816125aa565b50565b611d106121af565b73ffffffffffffffffffffffffffffffffffffffff16611d2e6117a4565b73ffffffffffffffffffffffffffffffffffffffff1614611d84576040517f08c379a0000000000000000000000000000000000000000000000000000000008152600401611d7b9061484e565b60405180910390fd5b801515601860009054906101000a900460ff1615151415611dda576040517f08c379a0000000000000000000000000000000000000000000000000000000008152600401611dd1906147ae565b60405180910390fd5b80601860006101000a81548160ff02191690831515021790555050565b60011515601860009054906101000a900460ff16151514611e4d576040517f08c379a0000000000000000000000000000000000000000000000000000000008152600401611e449061462e565b60405180910390fd5b601160008273ffffffffffffffffffffffffffffffffffffffff1673ffffffffffffffffffffffffffffffffffffffff16815260200190815260200160002060009054906101000a900460ff16611ed9576040517f08c379a0000000000000000000000000000000000000000000000000000000008152600401611ed09061472e565b60405180910390fd5b60011515611ee68261174e565b151514611f28576040517f08c379a0000000000000000000000000000000000000000000000000000000008152600401611f1f906146ae565b60405180910390fd5b60186016541115611f6e576040517f08c379a0000000000000000000000000000000000000000000000000000000008152600401611f659061492e565b60405180910390fd5b60006016549050611f7f8282612043565b6001601160008473ffffffffffffffffffffffffffffffffffffffff1673ffffffffffffffffffffffffffffffffffffffff16815260200190815260200160002060006101000a81548160ff021916908315150217905550600160166000828254611fea9190614a5d565b925050819055508173ffffffffffffffffffffffffffffffffffffffff167f365357042f3f04c41ac17b906ce5964e537c182004793c10a23d432081da1e8482604051612037919061496e565b60405180910390a25050565b61205d828260405180602001604052806000815250612c67565b5050565b60007f80ac58cd000000000000000000000000000000000000000000000000000000007bffffffffffffffffffffffffffffffffffffffffffffffffffffffff1916827bffffffffffffffffffffffffffffffffffffffffffffffffffffffff1916148061212c57507f5b5e139f000000000000000000000000000000000000000000000000000000007bffffffffffffffffffffffffffffffffffffffffffffffffffffffff1916827bffffffffffffffffffffffffffffffffffffffffffffffffffffffff1916145b8061213c575061213b82612cc2565b5b9050919050565b60008073ffffffffffffffffffffffffffffffffffffffff166002600084815260200190815260200160002060009054906101000a900473ffffffffffffffffffffffffffffffffffffffff1673ffffffffffffffffffffffffffffffffffffffff1614159050919050565b600033905090565b816004600083815260200190815260200160002060006101000a81548173ffffffffffffffffffffffffffffffffffffffff021916908373ffffffffffffffffffffffffffffffffffffffff160217905550808273ffffffffffffffffffffffffffffffffffffffff1661222a83610ed7565b73ffffffffffffffffffffffffffffffffffffffff167f8c5be1e5ebec7d5bd14f71427d1e84f3dd0314c0f7b2291e5b200ac8c7c3b92560405160405180910390a45050565b600061227b82612143565b6122ba576040517f08c379a00000000000000000000000000000000000000000000000000000000081526004016122b19061474e565b60405180910390fd5b60006122c583610ed7565b90508073ffffffffffffffffffffffffffffffffffffffff168473ffffffffffffffffffffffffffffffffffffffff16148061233457508373ffffffffffffffffffffffffffffffffffffffff1661231c84610a7b565b73ffffffffffffffffffffffffffffffffffffffff16145b8061234557506123448185611b2a565b5b91505092915050565b8273ffffffffffffffffffffffffffffffffffffffff1661236e82610ed7565b73ffffffffffffffffffffffffffffffffffffffff16146123c4576040517f08c379a00000000000000000000000000000000000000000000000000000000081526004016123bb9061486e565b60405180910390fd5b600073ffffffffffffffffffffffffffffffffffffffff168273ffffffffffffffffffffffffffffffffffffffff161415612434576040517f08c379a000000000000000000000000000000000000000000000000000000000815260040161242b906146ce565b60405180910390fd5b61243f838383612d2c565b61244a6000826121b7565b6001600360008573ffffffffffffffffffffffffffffffffffffffff1673ffffffffffffffffffffffffffffffffffffffff168152602001908152602001600020600082825461249a9190614ae4565b925050819055506001600360008473ffffffffffffffffffffffffffffffffffffffff1673ffffffffffffffffffffffffffffffffffffffff16815260200190815260200160002060008282546124f19190614a5d565b92505081905550816002600083815260200190815260200160002060006101000a81548173ffffffffffffffffffffffffffffffffffffffff021916908373ffffffffffffffffffffffffffffffffffffffff160217905550808273ffffffffffffffffffffffffffffffffffffffff168473ffffffffffffffffffffffffffffffffffffffff167fddf252ad1be2c89b69c2b068fc378daa952ba7f163c4a11628f55a4df523b3ef60405160405180910390a4505050565b6000600a60009054906101000a900473ffffffffffffffffffffffffffffffffffffffff16905081600a60006101000a81548173ffffffffffffffffffffffffffffffffffffffff021916908373ffffffffffffffffffffffffffffffffffffffff1602179055508173ffffffffffffffffffffffffffffffffffffffff168173ffffffffffffffffffffffffffffffffffffffff167f8be0079c531659141344cd1fd0a4f28419497f9722a3daafe3b4186f6b6457e060405160405180910390a35050565b61267b84848461234e565b61268784848484612e40565b6126c6576040517f08c379a00000000000000000000000000000000000000000000000000000000081526004016126bd9061460e565b60405180910390fd5b50505050565b6060600b80546126db90614bce565b80601f016020809104026020016040519081016040528092919081815260200182805461270790614bce565b80156127545780601f1061272957610100808354040283529160200191612754565b820191906000526020600020905b81548152906001019060200180831161273757829003601f168201915b5050505050905090565b606060008214156127a6576040518060400160405280600181526020017f30000000000000000000000000000000000000000000000000000000000000008152509050612906565b600082905060005b600082146127d85780806127c190614c00565b915050600a826127d19190614ab3565b91506127ae565b60008167ffffffffffffffff81111561281a577f4e487b7100000000000000000000000000000000000000000000000000000000600052604160045260246000fd5b6040519080825280601f01601f19166020018201604052801561284c5781602001600182028036833780820191505090505b5090505b600085146128ff576001826128659190614ae4565b9150600a856128749190614c49565b60306128809190614a5d565b60f81b8183815181106128bc577f4e487b7100000000000000000000000000000000000000000000000000000000600052603260045260246000fd5b60200101907effffffffffffffffffffffffffffffffffffffffffffffffffffffffffffff1916908160001a905350600a856128f89190614ab3565b9450612850565b8093505050505b919050565b6000806000600e60009054906101000a900473ffffffffffffffffffffffffffffffffffffffff16905060005b601980549050811015612aaa578473ffffffffffffffffffffffffffffffffffffffff168273ffffffffffffffffffffffffffffffffffffffff16636352211e601984815481106129b2577f4e487b7100000000000000000000000000000000000000000000000000000000600052603260045260246000fd5b90600052602060002001546040518263ffffffff1660e01b81526004016129d9919061496e565b60206040518083038186803b1580156129f157600080fd5b505afa158015612a05573d6000803e3d6000fd5b505050506040513d601f19601f82011682018060405250810190612a29919061374f565b73ffffffffffffffffffffffffffffffffffffffff161415612a9757600160198281548110612a81577f4e487b7100000000000000000000000000000000000000000000000000000000600052603260045260246000fd5b9060005260206000200154935093505050612ab4565b8080612aa290614c00565b915050612938565b5060008092509250505b915091565b6000806000600f60009054906101000a900473ffffffffffffffffffffffffffffffffffffffff16905060005b601a80549050811015612c58578473ffffffffffffffffffffffffffffffffffffffff168273ffffffffffffffffffffffffffffffffffffffff16636352211e601a8481548110612b60577f4e487b7100000000000000000000000000000000000000000000000000000000600052603260045260246000fd5b90600052602060002001546040518263ffffffff1660e01b8152600401612b87919061496e565b60206040518083038186803b158015612b9f57600080fd5b505afa158015612bb3573d6000803e3d6000fd5b505050506040513d601f19601f82011682018060405250810190612bd7919061374f565b73ffffffffffffffffffffffffffffffffffffffff161415612c45576001601a8281548110612c2f577f4e487b7100000000000000000000000000000000000000000000000000000000600052603260045260246000fd5b9060005260206000200154935093505050612c62565b8080612c5090614c00565b915050612ae6565b5060008092509250505b915091565b612c718383612fd7565b612c7e6000848484612e40565b612cbd576040517f08c379a0000000000000000000000000000000000000000000000000000000008152600401612cb49061460e565b60405180910390fd5b505050565b60007f01ffc9a7000000000000000000000000000000000000000000000000000000007bffffffffffffffffffffffffffffffffffffffffffffffffffffffff1916827bffffffffffffffffffffffffffffffffffffffffffffffffffffffff1916149050919050565b612d378383836131a5565b600073ffffffffffffffffffffffffffffffffffffffff168373ffffffffffffffffffffffffffffffffffffffff161415612d7a57612d75816131aa565b612db9565b8173ffffffffffffffffffffffffffffffffffffffff168373ffffffffffffffffffffffffffffffffffffffff1614612db857612db783826131f3565b5b5b600073ffffffffffffffffffffffffffffffffffffffff168273ffffffffffffffffffffffffffffffffffffffff161415612dfc57612df781613360565b612e3b565b8273ffffffffffffffffffffffffffffffffffffffff168273ffffffffffffffffffffffffffffffffffffffff1614612e3a57612e3982826134a3565b5b5b505050565b6000612e618473ffffffffffffffffffffffffffffffffffffffff16613522565b15612fca578373ffffffffffffffffffffffffffffffffffffffff1663150b7a02612e8a6121af565b8786866040518563ffffffff1660e01b8152600401612eac949392919061452e565b602060405180830381600087803b158015612ec657600080fd5b505af1925050508015612ef757506040513d601f19601f82011682018060405250810190612ef49190613948565b60015b612f7a573d8060008114612f27576040519150601f19603f3d011682016040523d82523d6000602084013e612f2c565b606091505b50600081511415612f72576040517f08c379a0000000000000000000000000000000000000000000000000000000008152600401612f699061460e565b60405180910390fd5b805181602001fd5b63150b7a0260e01b7bffffffffffffffffffffffffffffffffffffffffffffffffffffffff1916817bffffffffffffffffffffffffffffffffffffffffffffffffffffffff191614915050612fcf565b600190505b949350505050565b600073ffffffffffffffffffffffffffffffffffffffff168273ffffffffffffffffffffffffffffffffffffffff161415613047576040517f08c379a000000000000000000000000000000000000000000000000000000000815260040161303e9061480e565b60405180910390fd5b61305081612143565b15613090576040517f08c379a00000000000000000000000000000000000000000000000000000000081526004016130879061468e565b60405180910390fd5b61309c60008383612d2c565b6001600360008473ffffffffffffffffffffffffffffffffffffffff1673ffffffffffffffffffffffffffffffffffffffff16815260200190815260200160002060008282546130ec9190614a5d565b92505081905550816002600083815260200190815260200160002060006101000a81548173ffffffffffffffffffffffffffffffffffffffff021916908373ffffffffffffffffffffffffffffffffffffffff160217905550808273ffffffffffffffffffffffffffffffffffffffff16600073ffffffffffffffffffffffffffffffffffffffff167fddf252ad1be2c89b69c2b068fc378daa952ba7f163c4a11628f55a4df523b3ef60405160405180910390a45050565b505050565b6008805490506009600083815260200190815260200160002081905550600881908060018154018082558091505060019003906000526020600020016000909190919091505550565b6000600161320084611017565b61320a9190614ae4565b90506000600760008481526020019081526020016000205490508181146132ef576000600660008673ffffffffffffffffffffffffffffffffffffffff1673ffffffffffffffffffffffffffffffffffffffff168152602001908152602001600020600084815260200190815260200160002054905080600660008773ffffffffffffffffffffffffffffffffffffffff1673ffffffffffffffffffffffffffffffffffffffff168152602001908152602001600020600084815260200190815260200160002081905550816007600083815260200190815260200160002081905550505b6007600084815260200190815260200160002060009055600660008573ffffffffffffffffffffffffffffffffffffffff1673ffffffffffffffffffffffffffffffffffffffff16815260200190815260200160002060008381526020019081526020016000206000905550505050565b600060016008805490506133749190614ae4565b90506000600960008481526020019081526020016000205490506000600883815481106133ca577f4e487b7100000000000000000000000000000000000000000000000000000000600052603260045260246000fd5b906000526020600020015490508060088381548110613412577f4e487b7100000000000000000000000000000000000000000000000000000000600052603260045260246000fd5b906000526020600020018190555081600960008381526020019081526020016000208190555060096000858152602001908152602001600020600090556008805480613487577f4e487b7100000000000000000000000000000000000000000000000000000000600052603160045260246000fd5b6001900381819060005260206000200160009055905550505050565b60006134ae83611017565b905081600660008573ffffffffffffffffffffffffffffffffffffffff1673ffffffffffffffffffffffffffffffffffffffff168152602001908152602001600020600083815260200190815260200160002081905550806007600084815260200190815260200160002081905550505050565b600080823b905060008111915050919050565b82805461354190614bce565b90600052602060002090601f01602090048101928261356357600085556135aa565b82601f1061357c57805160ff19168380011785556135aa565b828001600101855582156135aa579182015b828111156135a957825182559160200191906001019061358e565b5b5090506135b791906135bb565b5090565b5b808211156135d45760008160009055506001016135bc565b5090565b60006135eb6135e6846149ba565b614989565b90508281526020810184848401111561360357600080fd5b61360e848285614b8c565b509392505050565b6000613629613624846149ea565b614989565b90508281526020810184848401111561364157600080fd5b61364c848285614b8c565b509392505050565b60008135905061366381614d47565b92915050565b60008151905061367881614d47565b92915050565b60008135905061368d81614d5e565b92915050565b6000813590506136a281614d75565b92915050565b6000815190506136b781614d75565b92915050565b600082601f8301126136ce57600080fd5b81356136de8482602086016135d8565b91505092915050565b600082601f8301126136f857600080fd5b8135613708848260208601613616565b91505092915050565b60008135905061372081614d8c565b92915050565b60006020828403121561373857600080fd5b600061374684828501613654565b91505092915050565b60006020828403121561376157600080fd5b600061376f84828501613669565b91505092915050565b6000806040838503121561378b57600080fd5b600061379985828601613654565b92505060206137aa85828601613654565b9150509250929050565b6000806000606084860312156137c957600080fd5b60006137d786828701613654565b93505060206137e886828701613654565b92505060406137f986828701613711565b9150509250925092565b6000806000806080858703121561381957600080fd5b600061382787828801613654565b945050602061383887828801613654565b935050604061384987828801613711565b925050606085013567ffffffffffffffff81111561386657600080fd5b613872878288016136bd565b91505092959194509250565b6000806040838503121561389157600080fd5b600061389f85828601613654565b92505060206138b08582860161367e565b9150509250929050565b600080604083850312156138cd57600080fd5b60006138db85828601613654565b92505060206138ec85828601613711565b9150509250929050565b60006020828403121561390857600080fd5b60006139168482850161367e565b91505092915050565b60006020828403121561393157600080fd5b600061393f84828501613693565b91505092915050565b60006020828403121561395a57600080fd5b6000613968848285016136a8565b91505092915050565b60006020828403121561398357600080fd5b600082013567ffffffffffffffff81111561399d57600080fd5b6139a9848285016136e7565b91505092915050565b6000602082840312156139c457600080fd5b60006139d284828501613711565b91505092915050565b6139e481614b18565b82525050565b6139f381614b2a565b82525050565b6000613a0482614a1a565b613a0e8185614a30565b9350613a1e818560208601614b9b565b613a2781614d36565b840191505092915050565b6000613a3d82614a25565b613a478185614a41565b9350613a57818560208601614b9b565b613a6081614d36565b840191505092915050565b6000613a7682614a25565b613a808185614a52565b9350613a90818560208601614b9b565b80840191505092915050565b6000613aa9602b83614a41565b91507f455243373231456e756d657261626c653a206f776e657220696e646578206f7560008301527f74206f6620626f756e64730000000000000000000000000000000000000000006020830152604082019050919050565b6000613b0f603283614a41565b91507f4552433732313a207472616e7366657220746f206e6f6e20455243373231526560008301527f63656976657220696d706c656d656e74657200000000000000000000000000006020830152604082019050919050565b6000613b75601483614a41565b91507f4d696e74206973206e6f7420796574206f70656e0000000000000000000000006000830152602082019050919050565b6000613bb5602883614a41565b91507f4d757374206265206120686f6c646572206f662047726163654949206f72205360008301527f616665486176656e0000000000000000000000000000000000000000000000006020830152604082019050919050565b6000613c1b602683614a41565b91507f4f776e61626c653a206e6577206f776e657220697320746865207a65726f206160008301527f64647265737300000000000000000000000000000000000000000000000000006020830152604082019050919050565b6000613c81601c83614a41565b91507f4552433732313a20746f6b656e20616c7265616479206d696e746564000000006000830152602082019050919050565b6000613cc1602d83614a41565b91507f57616c6c6574206d7573742062652070617274206f6620746865206e6f6e2d6360008301527f6f6c6c6563746f72206c697374000000000000000000000000000000000000006020830152604082019050919050565b6000613d27602483614a41565b91507f4552433732313a207472616e7366657220746f20746865207a65726f2061646460008301527f72657373000000000000000000000000000000000000000000000000000000006020830152604082019050919050565b6000613d8d603983614a41565b91507f57616c6c65742068617320616c726561647920616464656420746f207468652060008301527f6f6e65206f66206f6e6520636f6c6c6563746f72206c697374000000000000006020830152604082019050919050565b6000613df3601983614a41565b91507f4552433732313a20617070726f766520746f2063616c6c6572000000000000006000830152602082019050919050565b6000613e33602e83614a41565b91507f57616c6c657420616c7265616479206d696e746564206265666f726520666f7260008301527f20746869732063617465676f72790000000000000000000000000000000000006020830152604082019050919050565b6000613e99602c83614a41565b91507f4552433732313a206f70657261746f7220717565727920666f72206e6f6e657860008301527f697374656e7420746f6b656e00000000000000000000000000000000000000006020830152604082019050919050565b6000613eff603883614a41565b91507f4552433732313a20617070726f76652063616c6c6572206973206e6f74206f7760008301527f6e6572206e6f7220617070726f76656420666f7220616c6c00000000000000006020830152604082019050919050565b6000613f65602a83614a41565b91507f4552433732313a2062616c616e636520717565727920666f7220746865207a6560008301527f726f2061646472657373000000000000000000000000000000000000000000006020830152604082019050919050565b6000613fcb601b83614a41565b91507f6d696e744f70656e20616c726561647920746869732076616c756500000000006000830152602082019050919050565b600061400b602983614a41565b91507f4552433732313a206f776e657220717565727920666f72206e6f6e657869737460008301527f656e7420746f6b656e00000000000000000000000000000000000000000000006020830152604082019050919050565b6000614071602883614a41565b91507f57616c6c6574206d75737420626520616e206f70656e2065646974696f6e206360008301527f6f6c6c6563746f720000000000000000000000000000000000000000000000006020830152604082019050919050565b60006140d7602083614a41565b91507f4552433732313a206d696e7420746f20746865207a65726f20616464726573736000830152602082019050919050565b6000614117602c83614a41565b91507f4552433732313a20617070726f76656420717565727920666f72206e6f6e657860008301527f697374656e7420746f6b656e00000000000000000000000000000000000000006020830152604082019050919050565b600061417d602083614a41565b91507f4f776e61626c653a2063616c6c6572206973206e6f7420746865206f776e65726000830152602082019050919050565b60006141bd602983614a41565b91507f4552433732313a207472616e73666572206f6620746f6b656e2074686174206960008301527f73206e6f74206f776e00000000000000000000000000000000000000000000006020830152604082019050919050565b6000614223602f83614a41565b91507f4552433732314d657461646174613a2055524920717565727920666f72206e6f60008301527f6e6578697374656e7420746f6b656e00000000000000000000000000000000006020830152604082019050919050565b6000614289602183614a41565b91507f4552433732313a20617070726f76616c20746f2063757272656e74206f776e6560008301527f72000000000000000000000000000000000000000000000000000000000000006020830152604082019050919050565b60006142ef603283614a41565b91507f57616c6c65742068617320616c726561647920616464656420746f207468652060008301527f6e6f6e20636f6c6c6563746f72206c69737400000000000000000000000000006020830152604082019050919050565b6000614355603183614a41565b91507f4552433732313a207472616e736665722063616c6c6572206973206e6f74206f60008301527f776e6572206e6f7220617070726f7665640000000000000000000000000000006020830152604082019050919050565b60006143bb602c83614a41565b91507f455243373231456e756d657261626c653a20676c6f62616c20696e646578206f60008301527f7574206f6620626f756e647300000000000000000000000000000000000000006020830152604082019050919050565b6000614421603c83614a41565b91507f494e5445524e414c204552524f523a2052656163686564206d617820746f6b6560008301527f6e7320616c6c6f77656420666f7220746869732063617465676f7279000000006020830152604082019050919050565b6000614487602e83614a41565b91507f57616c6c6574206d696e74656420616c7265616479206265666f726520666f7260008301527f20746869732063617465676f72790000000000000000000000000000000000006020830152604082019050919050565b6144e981614b82565b82525050565b60006144fb8285613a6b565b91506145078284613a6b565b91508190509392505050565b600060208201905061452860008301846139db565b92915050565b600060808201905061454360008301876139db565b61455060208301866139db565b61455d60408301856144e0565b818103606083015261456f81846139f9565b905095945050505050565b600060208201905061458f60008301846139ea565b92915050565b60006060820190506145aa60008301866139ea565b6145b760208301856144e0565b6145c460408301846144e0565b949350505050565b600060208201905081810360008301526145e68184613a32565b905092915050565b6000602082019050818103600083015261460781613a9c565b9050919050565b6000602082019050818103600083015261462781613b02565b9050919050565b6000602082019050818103600083015261464781613b68565b9050919050565b6000602082019050818103600083015261466781613ba8565b9050919050565b6000602082019050818103600083015261468781613c0e565b9050919050565b600060208201905081810360008301526146a781613c74565b9050919050565b600060208201905081810360008301526146c781613cb4565b9050919050565b600060208201905081810360008301526146e781613d1a565b9050919050565b6000602082019050818103600083015261470781613d80565b9050919050565b6000602082019050818103600083015261472781613de6565b9050919050565b6000602082019050818103600083015261474781613e26565b9050919050565b6000602082019050818103600083015261476781613e8c565b9050919050565b6000602082019050818103600083015261478781613ef2565b9050919050565b600060208201905081810360008301526147a781613f58565b9050919050565b600060208201905081810360008301526147c781613fbe565b9050919050565b600060208201905081810360008301526147e781613ffe565b9050919050565b6000602082019050818103600083015261480781614064565b9050919050565b60006020820190508181036000830152614827816140ca565b9050919050565b600060208201905081810360008301526148478161410a565b9050919050565b6000602082019050818103600083015261486781614170565b9050919050565b60006020820190508181036000830152614887816141b0565b9050919050565b600060208201905081810360008301526148a781614216565b9050919050565b600060208201905081810360008301526148c78161427c565b9050919050565b600060208201905081810360008301526148e7816142e2565b9050919050565b6000602082019050818103600083015261490781614348565b9050919050565b60006020820190508181036000830152614927816143ae565b9050919050565b6000602082019050818103600083015261494781614414565b9050919050565b600060208201905081810360008301526149678161447a565b9050919050565b600060208201905061498360008301846144e0565b92915050565b6000604051905081810181811067ffffffffffffffff821117156149b0576149af614d07565b5b8060405250919050565b600067ffffffffffffffff8211156149d5576149d4614d07565b5b601f19601f8301169050602081019050919050565b600067ffffffffffffffff821115614a0557614a04614d07565b5b601f19601f8301169050602081019050919050565b600081519050919050565b600081519050919050565b600082825260208201905092915050565b600082825260208201905092915050565b600081905092915050565b6000614a6882614b82565b9150614a7383614b82565b9250827fffffffffffffffffffffffffffffffffffffffffffffffffffffffffffffffff03821115614aa857614aa7614c7a565b5b828201905092915050565b6000614abe82614b82565b9150614ac983614b82565b925082614ad957614ad8614ca9565b5b828204905092915050565b6000614aef82614b82565b9150614afa83614b82565b925082821015614b0d57614b0c614c7a565b5b828203905092915050565b6000614b2382614b62565b9050919050565b60008115159050919050565b60007fffffffff0000000000000000000000000000000000000000000000000000000082169050919050565b600073ffffffffffffffffffffffffffffffffffffffff82169050919050565b6000819050919050565b82818337600083830152505050565b60005b83811015614bb9578082015181840152602081019050614b9e565b83811115614bc8576000848401525b50505050565b60006002820490506001821680614be657607f821691505b60208210811415614bfa57614bf9614cd8565b5b50919050565b6000614c0b82614b82565b91507fffffffffffffffffffffffffffffffffffffffffffffffffffffffffffffffff821415614c3e57614c3d614c7a565b5b600182019050919050565b6000614c5482614b82565b9150614c5f83614b82565b925082614c6f57614c6e614ca9565b5b828206905092915050565b7f4e487b7100000000000000000000000000000000000000000000000000000000600052601160045260246000fd5b7f4e487b7100000000000000000000000000000000000000000000000000000000600052601260045260246000fd5b7f4e487b7100000000000000000000000000000000000000000000000000000000600052602260045260246000fd5b7f4e487b7100000000000000000000000000000000000000000000000000000000600052604160045260246000fd5b6000601f19601f8301169050919050565b614d5081614b18565b8114614d5b57600080fd5b50565b614d6781614b2a565b8114614d7257600080fd5b50565b614d7e81614b36565b8114614d8957600080fd5b50565b614d9581614b82565b8114614da057600080fd5b5056fea264697066735822122020f0c75d46fffe9b16e746e06a2b3623069d40efcd07570b06c22195f59b515064736f6c63430008000033",
  "immutableReferences": {},
  "source": "// SPDX-License-Identifier: MIT\npragma solidity ^0.8.0;\n\nimport \"../node_modules/openzeppelin-solidity/contracts/token/ERC721/extensions/ERC721Enumerable.sol\";\nimport \"../node_modules/openzeppelin-solidity/contracts/token/ERC721/ERC721.sol\";\nimport \"../node_modules/openzeppelin-solidity/contracts/access/Ownable.sol\";\n\n// Reference contract line 1301\n// https://etherscan.io/address/0xa4631a191044096834ce65d1ee86b16b171d8080#code\ncontract Flower is ERC721Enumerable, Ownable {\n    string public baseURI;\n\n    // Contract or mappings reference\n    mapping(address => bool) oneOfOneCollectors;\n\n    mapping(address => bool) nonCollectors;\n\n    address BuildABetterFutureContract;\n    address TimePieceCommunityContract;\n\n    // mintList\n    mapping(address => bool) public oneOfOneMintList;\n    mapping(address => bool) public nonCollectorsMintList;\n    mapping(address => bool) public openEditionCollectorsMintList;\n    // tokenId => minted\n    mapping(uint256 => bool) public safeHavenTokenMintList;\n    mapping(uint256 => bool) public graceIITokenMintList;\n\n    // counters\n    // tokenIds 1 to 14\n    uint256 private oneOfOneMintedCount = 1;\n\n    // tokenIds 15 to 24\n    uint256 private nonCollectorsMintedCount = 15;\n\n    // tokenIds 25 to 54\n    uint256 private openEditionCollectorsMintedCount = 25;\n\n    bool private mintOpen = false;\n\n    //these tokens must exists, otherwise the check fails cos of _exists\n    uint256[] safeHavenTokens = [1]; //babF\n    uint256[] graceIITokens = [2]; // IRB\n\n    modifier whenMintOpened() {\n        require(mintOpen == true, \"Mint is not yet open\");\n        _;\n    }\n\n    constructor(\n        string memory _initBaseURI,\n        address buildABetterFutureContract,\n        address timePieceCommunityContract\n    ) ERC721(\"Flowers\", \"FLW\") {\n        setBaseURI(_initBaseURI);\n\n        BuildABetterFutureContract = buildABetterFutureContract;\n        TimePieceCommunityContract = timePieceCommunityContract;\n\n        // define one-of-one-collectors\n        // TOdo: fill here with the address from the sheet\n        //oneOfOneCollectors[0x53C379A44018504059D01Ee3eB9645Cb115fD932] = true;\n\n        // define non-collectors\n        nonCollectors[0x53C379A44018504059D01Ee3eB9645Cb115fD932] = true;\n        nonCollectors[0xF795b1d0E21A6488f5F44d9e61D26aE556b97D8b] = true;\n        nonCollectors[0x7ed90FDd530Ec92E90E197bA891378b1f9680e0A] = true;\n    }\n\n    function _baseURI() internal view virtual override returns (string memory) {\n        return baseURI;\n    }\n\n    // function to determine if sender is is1Of1Holder\n    function isOneOfOneCollector(address _wallet) public view returns (bool) {\n        return oneOfOneCollectors[_wallet];\n    }\n\n    // function to determine if sender is non-collector hodler\n    function isNonCollector(address _wallet) public view returns (bool) {\n        return nonCollectors[_wallet];\n    }\n\n    function _safeHavenOwner(address _wallet)\n        internal\n        view\n        returns (bool _holder, uint256 _tokenId)\n    {\n        ERC721 buildABetterFuture = ERC721(BuildABetterFutureContract);\n\n        for (uint256 i = 0; i < safeHavenTokens.length; i++) {\n            if (buildABetterFuture.ownerOf(safeHavenTokens[i]) == _wallet) {\n                return (true, safeHavenTokens[i]);\n            }\n        }\n        return (false, 0);\n    }\n\n    function _graceIIOwner(address _wallet)\n        internal\n        view\n        returns (bool _holder, uint256 _tokenId)\n    {\n        ERC721 timePieceCommunity = ERC721(TimePieceCommunityContract);\n\n        for (uint256 i = 0; i < graceIITokens.length; i++) {\n            if (timePieceCommunity.ownerOf(graceIITokens[i]) == _wallet) {\n                return (true, graceIITokens[i]);\n            }\n        }\n        return (false, 0);\n    }\n\n    // function to determine if sender is open-edition collector\n    // open edition collector = holderOfTimePieceCommunity or holderOfBuildABetterFuture\n    function isOpenEditionCollector(address _wallet)\n        public\n        view\n        returns (\n            bool isHolder,\n            uint256 safeHavenTokenId,\n            uint256 graceIITokenId\n        )\n    {\n        (bool _safeHavenHolder, uint256 _safeHavenTokenId) = _safeHavenOwner(\n            _wallet\n        );\n        (bool _graceIIHolder, uint256 _graceIITokenId) = _graceIIOwner(_wallet);\n\n        isHolder = _safeHavenHolder == true || _graceIIHolder == true;\n        return (isHolder, _safeHavenTokenId, _graceIITokenId);\n    }\n\n    // function to allow 1 of 1 holder collector mint\n    function mint1Of1Holder(address _wallet) external whenMintOpened {\n        require(\n            oneOfOneMintList[_wallet],\n            \"Wallet already minted before for this category\"\n        );\n        require(\n            isOneOfOneCollector(_wallet) == true,\n            \"Wallet must be an open edition collector\"\n        );\n        // this condition should actually never be triggered, but having it here incase\n        // might remove later to save compiled code space.\n        require(\n            oneOfOneMintedCount <= 14,\n            \"INTERNAL ERROR: Reached max tokens allowed for this category\"\n        );\n        uint256 tokenId = oneOfOneMintedCount;\n\n        _safeMint(_wallet, tokenId);\n\n        oneOfOneMintList[_wallet] = true;\n        oneOfOneMintedCount += 1;\n\n        emit LogMintOneOfOneHolder(_wallet, tokenId);\n    }\n\n    // function to allow non-collector mint\n    function mintNonCollector(address _wallet) external whenMintOpened {\n        require(\n            nonCollectorsMintList[_wallet],\n            \"Wallet already minted before for this category\"\n        );\n        require(\n            isNonCollector(_wallet) == true,\n            \"Wallet must be part of the non-collector list\"\n        );\n\n        // this condition should actually never be triggered, but having it here incase\n        // might remove later to save compiled code space.\n        require(\n            nonCollectorsMintedCount <= 24,\n            \"INTERNAL ERROR: Reached max tokens allowed for this category\"\n        );\n        uint256 tokenId = nonCollectorsMintedCount;\n\n        _safeMint(_wallet, tokenId);\n\n        nonCollectorsMintList[_wallet] = true;\n        nonCollectorsMintedCount += 1;\n        emit LogMintNonCollector(_wallet, tokenId);\n    }\n\n    // function to allow open-edition collector mint\n    function mintOpenEdition(address _wallet) external whenMintOpened {\n        (\n            bool isHolder,\n            uint256 _safeHavenTokenId,\n            uint256 _graceIITokenId\n        ) = isOpenEditionCollector(_wallet);\n        require(isHolder == true, \"Must be a holder of GraceII or SafeHaven\");\n        require(\n            safeHavenTokenMintList[_safeHavenTokenId] == false ||\n                graceIITokenMintList[_graceIITokenId] == false,\n            \"Wallet minted already before for this category\"\n        );\n\n        // Todod: store a mapping ( openEditionTOkenId => bool )\n        require(\n            openEditionCollectorsMintedCount <= 54,\n            \"INTERNAL ERROR: Reached max tokens allowed for this category\"\n        );\n        uint256 tokenId = openEditionCollectorsMintedCount;\n\n        _safeMint(_wallet, tokenId);\n\n        // -- store tokenId and address that minted\n        if (_safeHavenTokenId != 0) {\n            safeHavenTokenMintList[_safeHavenTokenId] = true;\n        } else {\n            graceIITokenMintList[_graceIITokenId] = true;\n        }\n\n        openEditionCollectorsMintedCount += 1;\n        openEditionCollectorsMintList[_wallet] = true;\n        emit LogMintOpenEdition(_wallet, tokenId);\n    }\n\n    // Only owner - admin methods\n    function setBaseURI(string memory newURI) public onlyOwner {\n        baseURI = newURI;\n    }\n\n    function setMintOpen(bool value) external onlyOwner {\n        require(mintOpen != value, \"mintOpen already this value\");\n        mintOpen = value;\n    }\n\n    // these method below should never reallybe used as they may reset the counters for available mints\n    // only added here to prevent total lockout\n    function addOneOfOneCollector(address _wallet) external onlyOwner {\n        require(\n            oneOfOneCollectors[_wallet] != true,\n            \"Wallet has already added to the one of one collector list\"\n        );\n        oneOfOneCollectors[_wallet] = true;\n    }\n\n    function addNonCollector(address _wallet) external onlyOwner {\n        require(\n            nonCollectors[_wallet] != true,\n            \"Wallet has already added to the non collector list\"\n        );\n        nonCollectors[_wallet] = true;\n    }\n\n    // Events\n    event LogMintOneOfOneHolder(address indexed _address, uint256 _tokenId);\n    event LogMintNonCollector(address indexed _address, uint256 _tokenId);\n    event LogMintOpenEdition(address indexed _address, uint256 _tokenId);\n}\n",
  "sourcePath": "/Users/eo/workspace/lethabo-aniversary-drop/contracts/Flower.sol",
  "compiler": {
    "name": "solc",
    "version": "0.8.0+commit.c7dfd78e.Emscripten.clang"
  },
  "schemaVersion": "3.4.3",
  "updatedAt": "2021-11-29T12:40:46.217Z",
  "devdoc": {
    "kind": "dev",
    "methods": {
      "approve(address,uint256)": {
        "details": "See {IERC721-approve}."
      },
      "balanceOf(address)": {
        "details": "See {IERC721-balanceOf}."
      },
      "getApproved(uint256)": {
        "details": "See {IERC721-getApproved}."
      },
      "isApprovedForAll(address,address)": {
        "details": "See {IERC721-isApprovedForAll}."
      },
      "name()": {
        "details": "See {IERC721Metadata-name}."
      },
      "owner()": {
        "details": "Returns the address of the current owner."
      },
      "ownerOf(uint256)": {
        "details": "See {IERC721-ownerOf}."
      },
      "renounceOwnership()": {
        "details": "Leaves the contract without owner. It will not be possible to call `onlyOwner` functions anymore. Can only be called by the current owner. NOTE: Renouncing ownership will leave the contract without an owner, thereby removing any functionality that is only available to the owner."
      },
      "safeTransferFrom(address,address,uint256)": {
        "details": "See {IERC721-safeTransferFrom}."
      },
      "safeTransferFrom(address,address,uint256,bytes)": {
        "details": "See {IERC721-safeTransferFrom}."
      },
      "setApprovalForAll(address,bool)": {
        "details": "See {IERC721-setApprovalForAll}."
      },
      "supportsInterface(bytes4)": {
        "details": "See {IERC165-supportsInterface}."
      },
      "symbol()": {
        "details": "See {IERC721Metadata-symbol}."
      },
      "tokenByIndex(uint256)": {
        "details": "See {IERC721Enumerable-tokenByIndex}."
      },
      "tokenOfOwnerByIndex(address,uint256)": {
        "details": "See {IERC721Enumerable-tokenOfOwnerByIndex}."
      },
      "tokenURI(uint256)": {
        "details": "See {IERC721Metadata-tokenURI}."
      },
      "totalSupply()": {
        "details": "See {IERC721Enumerable-totalSupply}."
      },
      "transferFrom(address,address,uint256)": {
        "details": "See {IERC721-transferFrom}."
      },
      "transferOwnership(address)": {
        "details": "Transfers ownership of the contract to a new account (`newOwner`). Can only be called by the current owner."
      }
    },
    "version": 1
  },
  "userdoc": {
    "kind": "user",
    "methods": {},
    "version": 1
  }
}