{
  "contractName": "Flower",
  "abi": [
    {
      "inputs": [
        {
          "internalType": "string",
          "name": "_initBaseURI",
          "type": "string"
        },
        {
          "internalType": "address",
          "name": "buildABetterFutureContract",
          "type": "address"
        },
        {
          "internalType": "address",
          "name": "timePieceCommunityContract",
          "type": "address"
        }
      ],
      "stateMutability": "nonpayable",
      "type": "constructor"
    },
    {
      "anonymous": false,
      "inputs": [
        {
          "indexed": true,
          "internalType": "address",
          "name": "owner",
          "type": "address"
        },
        {
          "indexed": true,
          "internalType": "address",
          "name": "approved",
          "type": "address"
        },
        {
          "indexed": true,
          "internalType": "uint256",
          "name": "tokenId",
          "type": "uint256"
        }
      ],
      "name": "Approval",
      "type": "event"
    },
    {
      "anonymous": false,
      "inputs": [
        {
          "indexed": true,
          "internalType": "address",
          "name": "owner",
          "type": "address"
        },
        {
          "indexed": true,
          "internalType": "address",
          "name": "operator",
          "type": "address"
        },
        {
          "indexed": false,
          "internalType": "bool",
          "name": "approved",
          "type": "bool"
        }
      ],
      "name": "ApprovalForAll",
      "type": "event"
    },
    {
      "anonymous": false,
      "inputs": [
        {
          "indexed": true,
          "internalType": "address",
          "name": "_address",
          "type": "address"
        },
        {
          "indexed": false,
          "internalType": "uint256",
          "name": "_tokenId",
          "type": "uint256"
        }
      ],
      "name": "LogMintNonCollector",
      "type": "event"
    },
    {
      "anonymous": false,
      "inputs": [
        {
          "indexed": true,
          "internalType": "address",
          "name": "_address",
          "type": "address"
        },
        {
          "indexed": false,
          "internalType": "uint256",
          "name": "_tokenId",
          "type": "uint256"
        }
      ],
      "name": "LogMintOneOfOneHolder",
      "type": "event"
    },
    {
      "anonymous": false,
      "inputs": [
        {
          "indexed": true,
          "internalType": "address",
          "name": "_address",
          "type": "address"
        },
        {
          "indexed": false,
          "internalType": "uint256",
          "name": "_tokenId",
          "type": "uint256"
        }
      ],
      "name": "LogMintOpenEdition",
      "type": "event"
    },
    {
      "anonymous": false,
      "inputs": [
        {
          "indexed": true,
          "internalType": "address",
          "name": "previousOwner",
          "type": "address"
        },
        {
          "indexed": true,
          "internalType": "address",
          "name": "newOwner",
          "type": "address"
        }
      ],
      "name": "OwnershipTransferred",
      "type": "event"
    },
    {
      "anonymous": false,
      "inputs": [
        {
          "indexed": true,
          "internalType": "address",
          "name": "from",
          "type": "address"
        },
        {
          "indexed": true,
          "internalType": "address",
          "name": "to",
          "type": "address"
        },
        {
          "indexed": true,
          "internalType": "uint256",
          "name": "tokenId",
          "type": "uint256"
        }
      ],
      "name": "Transfer",
      "type": "event"
    },
    {
      "inputs": [
        {
          "internalType": "address",
          "name": "to",
          "type": "address"
        },
        {
          "internalType": "uint256",
          "name": "tokenId",
          "type": "uint256"
        }
      ],
      "name": "approve",
      "outputs": [],
      "stateMutability": "nonpayable",
      "type": "function"
    },
    {
      "inputs": [
        {
          "internalType": "address",
          "name": "owner",
          "type": "address"
        }
      ],
      "name": "balanceOf",
      "outputs": [
        {
          "internalType": "uint256",
          "name": "",
          "type": "uint256"
        }
      ],
      "stateMutability": "view",
      "type": "function"
    },
    {
      "inputs": [],
      "name": "baseURI",
      "outputs": [
        {
          "internalType": "string",
          "name": "",
          "type": "string"
        }
      ],
      "stateMutability": "view",
      "type": "function"
    },
    {
      "inputs": [
        {
          "internalType": "uint256",
          "name": "tokenId",
          "type": "uint256"
        }
      ],
      "name": "getApproved",
      "outputs": [
        {
          "internalType": "address",
          "name": "",
          "type": "address"
        }
      ],
      "stateMutability": "view",
      "type": "function"
    },
    {
      "inputs": [
        {
          "internalType": "address",
          "name": "owner",
          "type": "address"
        },
        {
          "internalType": "address",
          "name": "operator",
          "type": "address"
        }
      ],
      "name": "isApprovedForAll",
      "outputs": [
        {
          "internalType": "bool",
          "name": "",
          "type": "bool"
        }
      ],
      "stateMutability": "view",
      "type": "function"
    },
    {
      "inputs": [],
      "name": "name",
      "outputs": [
        {
          "internalType": "string",
          "name": "",
          "type": "string"
        }
      ],
      "stateMutability": "view",
      "type": "function"
    },
    {
      "inputs": [
        {
          "internalType": "address",
          "name": "",
          "type": "address"
        }
      ],
      "name": "nonCollectorsMintList",
      "outputs": [
        {
          "internalType": "bool",
          "name": "",
          "type": "bool"
        }
      ],
      "stateMutability": "view",
      "type": "function"
    },
    {
      "inputs": [
        {
          "internalType": "address",
          "name": "",
          "type": "address"
        }
      ],
      "name": "oneOfOneMintList",
      "outputs": [
        {
          "internalType": "bool",
          "name": "",
          "type": "bool"
        }
      ],
      "stateMutability": "view",
      "type": "function"
    },
    {
      "inputs": [],
      "name": "openEditionCollectorsMintedCount",
      "outputs": [
        {
          "internalType": "uint256",
          "name": "",
          "type": "uint256"
        }
      ],
      "stateMutability": "view",
      "type": "function"
    },
    {
      "inputs": [],
      "name": "owner",
      "outputs": [
        {
          "internalType": "address",
          "name": "",
          "type": "address"
        }
      ],
      "stateMutability": "view",
      "type": "function"
    },
    {
      "inputs": [
        {
          "internalType": "uint256",
          "name": "tokenId",
          "type": "uint256"
        }
      ],
      "name": "ownerOf",
      "outputs": [
        {
          "internalType": "address",
          "name": "",
          "type": "address"
        }
      ],
      "stateMutability": "view",
      "type": "function"
    },
    {
      "inputs": [],
      "name": "renounceOwnership",
      "outputs": [],
      "stateMutability": "nonpayable",
      "type": "function"
    },
    {
      "inputs": [
        {
          "internalType": "address",
          "name": "from",
          "type": "address"
        },
        {
          "internalType": "address",
          "name": "to",
          "type": "address"
        },
        {
          "internalType": "uint256",
          "name": "tokenId",
          "type": "uint256"
        }
      ],
      "name": "safeTransferFrom",
      "outputs": [],
      "stateMutability": "nonpayable",
      "type": "function"
    },
    {
      "inputs": [
        {
          "internalType": "address",
          "name": "from",
          "type": "address"
        },
        {
          "internalType": "address",
          "name": "to",
          "type": "address"
        },
        {
          "internalType": "uint256",
          "name": "tokenId",
          "type": "uint256"
        },
        {
          "internalType": "bytes",
          "name": "_data",
          "type": "bytes"
        }
      ],
      "name": "safeTransferFrom",
      "outputs": [],
      "stateMutability": "nonpayable",
      "type": "function"
    },
    {
      "inputs": [
        {
          "internalType": "address",
          "name": "operator",
          "type": "address"
        },
        {
          "internalType": "bool",
          "name": "approved",
          "type": "bool"
        }
      ],
      "name": "setApprovalForAll",
      "outputs": [],
      "stateMutability": "nonpayable",
      "type": "function"
    },
    {
      "inputs": [
        {
          "internalType": "bytes4",
          "name": "interfaceId",
          "type": "bytes4"
        }
      ],
      "name": "supportsInterface",
      "outputs": [
        {
          "internalType": "bool",
          "name": "",
          "type": "bool"
        }
      ],
      "stateMutability": "view",
      "type": "function"
    },
    {
      "inputs": [],
      "name": "symbol",
      "outputs": [
        {
          "internalType": "string",
          "name": "",
          "type": "string"
        }
      ],
      "stateMutability": "view",
      "type": "function"
    },
    {
      "inputs": [
        {
          "internalType": "uint256",
          "name": "index",
          "type": "uint256"
        }
      ],
      "name": "tokenByIndex",
      "outputs": [
        {
          "internalType": "uint256",
          "name": "",
          "type": "uint256"
        }
      ],
      "stateMutability": "view",
      "type": "function"
    },
    {
      "inputs": [
        {
          "internalType": "address",
          "name": "owner",
          "type": "address"
        },
        {
          "internalType": "uint256",
          "name": "index",
          "type": "uint256"
        }
      ],
      "name": "tokenOfOwnerByIndex",
      "outputs": [
        {
          "internalType": "uint256",
          "name": "",
          "type": "uint256"
        }
      ],
      "stateMutability": "view",
      "type": "function"
    },
    {
      "inputs": [
        {
          "internalType": "uint256",
          "name": "tokenId",
          "type": "uint256"
        }
      ],
      "name": "tokenURI",
      "outputs": [
        {
          "internalType": "string",
          "name": "",
          "type": "string"
        }
      ],
      "stateMutability": "view",
      "type": "function"
    },
    {
      "inputs": [],
      "name": "totalSupply",
      "outputs": [
        {
          "internalType": "uint256",
          "name": "",
          "type": "uint256"
        }
      ],
      "stateMutability": "view",
      "type": "function"
    },
    {
      "inputs": [
        {
          "internalType": "address",
          "name": "from",
          "type": "address"
        },
        {
          "internalType": "address",
          "name": "to",
          "type": "address"
        },
        {
          "internalType": "uint256",
          "name": "tokenId",
          "type": "uint256"
        }
      ],
      "name": "transferFrom",
      "outputs": [],
      "stateMutability": "nonpayable",
      "type": "function"
    },
    {
      "inputs": [
        {
          "internalType": "address",
          "name": "newOwner",
          "type": "address"
        }
      ],
      "name": "transferOwnership",
      "outputs": [],
      "stateMutability": "nonpayable",
      "type": "function"
    },
    {
      "inputs": [
        {
          "internalType": "string",
          "name": "newURI",
          "type": "string"
        }
      ],
      "name": "setBaseURI",
      "outputs": [],
      "stateMutability": "nonpayable",
      "type": "function"
    },
    {
      "inputs": [
        {
          "internalType": "bool",
          "name": "value",
          "type": "bool"
        }
      ],
      "name": "setMintOpen",
      "outputs": [],
      "stateMutability": "nonpayable",
      "type": "function"
    },
    {
      "inputs": [
        {
          "internalType": "address",
          "name": "_wallet",
          "type": "address"
        }
      ],
      "name": "isOneOfOneCollector",
      "outputs": [
        {
          "internalType": "bool",
          "name": "",
          "type": "bool"
        }
      ],
      "stateMutability": "view",
      "type": "function"
    },
    {
      "inputs": [
        {
          "internalType": "address",
          "name": "_wallet",
          "type": "address"
        }
      ],
      "name": "isNonCollector",
      "outputs": [
        {
          "internalType": "bool",
          "name": "",
          "type": "bool"
        }
      ],
      "stateMutability": "view",
      "type": "function"
    },
    {
      "inputs": [
        {
          "internalType": "address",
          "name": "_wallet",
          "type": "address"
        }
      ],
      "name": "isOpenEditionCollector",
      "outputs": [
        {
          "internalType": "bool",
          "name": "isHolder",
          "type": "bool"
        },
        {
          "internalType": "uint256",
          "name": "_safeHavenTokenId",
          "type": "uint256"
        },
        {
          "internalType": "uint256",
          "name": "_graceIITokenId",
          "type": "uint256"
        }
      ],
      "stateMutability": "view",
      "type": "function"
    },
    {
      "inputs": [
        {
          "internalType": "address",
          "name": "_wallet",
          "type": "address"
        }
      ],
      "name": "mint1Of1Holder",
      "outputs": [],
      "stateMutability": "nonpayable",
      "type": "function"
    },
    {
      "inputs": [
        {
          "internalType": "address",
          "name": "_wallet",
          "type": "address"
        }
      ],
      "name": "mintNonCollector",
      "outputs": [],
      "stateMutability": "nonpayable",
      "type": "function"
    },
    {
      "inputs": [
        {
          "internalType": "address",
          "name": "_wallet",
          "type": "address"
        }
      ],
      "name": "mintOpenEdition",
      "outputs": [],
      "stateMutability": "nonpayable",
      "type": "function"
    }
  ],
  "bytecode": "0x60806040526001601455600f60155560196016556000601760006101000a81548160ff0219169083151502179055506040518060200160405280600160ff16815250601890600162000053929190620004f0565b506040518060200160405280600260ff16815250601990600162000079929190620004f0565b503480156200008757600080fd5b5060405162005162380380620051628339818101604052810190620000ad919062000680565b6040518060400160405280600781526020017f466c6f77657273000000000000000000000000000000000000000000000000008152506040518060400160405280600381526020017f464c57000000000000000000000000000000000000000000000000000000000081525081600090805190602001906200013192919062000547565b5080600190805190602001906200014a92919062000547565b5050506200016d620001616200034d60201b60201c565b6200035560201b60201c565b6200017e836200041b60201b60201c565b81600e60006101000a81548173ffffffffffffffffffffffffffffffffffffffff021916908373ffffffffffffffffffffffffffffffffffffffff16021790555080600f60006101000a81548173ffffffffffffffffffffffffffffffffffffffff021916908373ffffffffffffffffffffffffffffffffffffffff1602179055506001600c60007353c379a44018504059d01ee3eb9645cb115fd93273ffffffffffffffffffffffffffffffffffffffff1673ffffffffffffffffffffffffffffffffffffffff16815260200190815260200160002060006101000a81548160ff0219169083151502179055506001600d600073821aea9a577a9b44299b9c15c88cf3087f3b554473ffffffffffffffffffffffffffffffffffffffff1673ffffffffffffffffffffffffffffffffffffffff16815260200190815260200160002060006101000a81548160ff0219169083151502179055506001600d60007353c379a44018504059d01ee3eb9645cb115fd93273ffffffffffffffffffffffffffffffffffffffff1673ffffffffffffffffffffffffffffffffffffffff16815260200190815260200160002060006101000a81548160ff021916908315150217905550505050620008e3565b600033905090565b6000600a60009054906101000a900473ffffffffffffffffffffffffffffffffffffffff16905081600a60006101000a81548173ffffffffffffffffffffffffffffffffffffffff021916908373ffffffffffffffffffffffffffffffffffffffff1602179055508173ffffffffffffffffffffffffffffffffffffffff168173ffffffffffffffffffffffffffffffffffffffff167f8be0079c531659141344cd1fd0a4f28419497f9722a3daafe3b4186f6b6457e060405160405180910390a35050565b6200042b6200034d60201b60201c565b73ffffffffffffffffffffffffffffffffffffffff1662000451620004c660201b60201c565b73ffffffffffffffffffffffffffffffffffffffff1614620004aa576040517f08c379a0000000000000000000000000000000000000000000000000000000008152600401620004a19062000731565b60405180910390fd5b80600b9080519060200190620004c292919062000547565b5050565b6000600a60009054906101000a900473ffffffffffffffffffffffffffffffffffffffff16905090565b82805482825590600052602060002090810192821562000534579160200282015b8281111562000533578251829060ff1690559160200191906001019062000511565b5b509050620005439190620005d8565b5090565b828054620005559062000835565b90600052602060002090601f016020900481019282620005795760008555620005c5565b82601f106200059457805160ff1916838001178555620005c5565b82800160010185558215620005c5579182015b82811115620005c4578251825591602001919060010190620005a7565b5b509050620005d49190620005d8565b5090565b5b80821115620005f3576000816000905550600101620005d9565b5090565b60006200060e620006088462000787565b62000753565b9050828152602081018484840111156200062757600080fd5b62000634848285620007ff565b509392505050565b6000815190506200064d81620008c9565b92915050565b600082601f8301126200066557600080fd5b815162000677848260208601620005f7565b91505092915050565b6000806000606084860312156200069657600080fd5b600084015167ffffffffffffffff811115620006b157600080fd5b620006bf8682870162000653565b9350506020620006d2868287016200063c565b9250506040620006e5868287016200063c565b9150509250925092565b6000620006fe602083620007ba565b91507f4f776e61626c653a2063616c6c6572206973206e6f7420746865206f776e65726000830152602082019050919050565b600060208201905081810360008301526200074c81620006ef565b9050919050565b6000604051905081810181811067ffffffffffffffff821117156200077d576200077c6200089a565b5b8060405250919050565b600067ffffffffffffffff821115620007a557620007a46200089a565b5b601f19601f8301169050602081019050919050565b600082825260208201905092915050565b6000620007d882620007df565b9050919050565b600073ffffffffffffffffffffffffffffffffffffffff82169050919050565b60005b838110156200081f57808201518184015260208101905062000802565b838111156200082f576000848401525b50505050565b600060028204905060018216806200084e57607f821691505b602082108114156200086557620008646200086b565b5b50919050565b7f4e487b7100000000000000000000000000000000000000000000000000000000600052602260045260246000fd5b7f4e487b7100000000000000000000000000000000000000000000000000000000600052604160045260246000fd5b620008d481620007cb565b8114620008e057600080fd5b50565b61486f80620008f36000396000f3fe608060405234801561001057600080fd5b50600436106101e45760003560e01c806370a082311161010f578063a22cb465116100a2578063eff230d211610071578063eff230d2146105c7578063f2fde38b146105f9578063f8004d3114610615578063fe3354d614610631576101e4565b8063a22cb4651461052f578063b88d4fde1461054b578063c87b56dd14610567578063e985e9c514610597576101e4565b80638d56ee01116100de5780638d56ee01146104935780638da5cb5b146104c357806395d89b41146104e15780639915ced3146104ff576101e4565b806370a082311461040d578063715018a61461043d5780637a8b575c1461044757806382e9099a14610477576101e4565b80632f1aee191161018757806355f804b31161015657806355f804b3146103855780635f464a1d146103a15780636352211e146103bf5780636c0360eb146103ef576101e4565b80632f1aee19146102d95780632f745c591461030957806342842e0e146103395780634f6ccce714610355576101e4565b8063081812fc116101c3578063081812fc14610253578063095ea7b31461028357806318160ddd1461029f57806323b872dd146102bd576101e4565b8062936916146101e957806301ffc9a71461020557806306fdde0314610235575b600080fd5b61020360048036038101906101fe91906132c8565b61064d565b005b61021f600480360381019061021a91906134c1565b610899565b60405161022c9190614050565b60405180910390f35b61023d610913565b60405161024a91906140a2565b60405180910390f35b61026d60048036038101906102689190613554565b6109a5565b60405161027a9190613fe9565b60405180910390f35b61029d6004803603810190610298919061345c565b610a2a565b005b6102a7610b42565b6040516102b49190614404565b60405180910390f35b6102d760048036038101906102d29190613356565b610b4f565b005b6102f360048036038101906102ee91906132c8565b610baf565b6040516103009190614050565b60405180910390f35b610323600480360381019061031e919061345c565b610bcf565b6040516103309190614404565b60405180910390f35b610353600480360381019061034e9190613356565b610c74565b005b61036f600480360381019061036a9190613554565b610c94565b60405161037c9190614404565b60405180910390f35b61039f600480360381019061039a9190613513565b610d2b565b005b6103a9610dc1565b6040516103b69190614404565b60405180910390f35b6103d960048036038101906103d49190613554565b610dc7565b6040516103e69190613fe9565b60405180910390f35b6103f7610e79565b60405161040491906140a2565b60405180910390f35b610427600480360381019061042291906132c8565b610f07565b6040516104349190614404565b60405180910390f35b610445610fbf565b005b610461600480360381019061045c91906132c8565b611047565b60405161046e9190614050565b60405180910390f35b610491600480360381019061048c91906132c8565b61109d565b005b6104ad60048036038101906104a891906132c8565b611310565b6040516104ba9190614050565b60405180910390f35b6104cb611366565b6040516104d89190613fe9565b60405180910390f35b6104e9611390565b6040516104f691906140a2565b60405180910390f35b610519600480360381019061051491906132c8565b611422565b6040516105269190614050565b60405180910390f35b61054960048036038101906105449190613420565b611442565b005b610565600480360381019061056091906133a5565b6115c3565b005b610581600480360381019061057c9190613554565b611625565b60405161058e91906140a2565b60405180910390f35b6105b160048036038101906105ac919061331a565b6116cc565b6040516105be9190614050565b60405180910390f35b6105e160048036038101906105dc91906132c8565b611760565b6040516105f09392919061406b565b60405180910390f35b610613600480360381019061060e91906132c8565b6117b2565b005b61062f600480360381019061062a9190613498565b6118aa565b005b61064b600480360381019061064691906132c8565b611999565b005b60011515601760009054906101000a900460ff161515146106a3576040517f08c379a000000000000000000000000000000000000000000000000000000000815260040161069a90614104565b60405180910390fd5b601060008273ffffffffffffffffffffffffffffffffffffffff1673ffffffffffffffffffffffffffffffffffffffff16815260200190815260200160002060009054906101000a900460ff1661072f576040517f08c379a0000000000000000000000000000000000000000000000000000000008152600401610726906141e4565b60405180910390fd5b6001151561073c82611047565b15151461077e576040517f08c379a0000000000000000000000000000000000000000000000000000000008152600401610775906142a4565b60405180910390fd5b600e60145411156107c4576040517f08c379a00000000000000000000000000000000000000000000000000000000081526004016107bb906143c4565b60405180910390fd5b600060145490506107d58282611be5565b6001601060008473ffffffffffffffffffffffffffffffffffffffff1673ffffffffffffffffffffffffffffffffffffffff16815260200190815260200160002060006101000a81548160ff02191690831515021790555060016014600082825461084091906144f3565b925050819055508173ffffffffffffffffffffffffffffffffffffffff167f6ecf2eb9098248a69cc7abaac38e5dde0c18d6b1858a9ff7c308d60dd19214ee8260405161088d9190614404565b60405180910390a25050565b60007f780e9d63000000000000000000000000000000000000000000000000000000007bffffffffffffffffffffffffffffffffffffffffffffffffffffffff1916827bffffffffffffffffffffffffffffffffffffffffffffffffffffffff1916148061090c575061090b82611c03565b5b9050919050565b60606000805461092290614664565b80601f016020809104026020016040519081016040528092919081815260200182805461094e90614664565b801561099b5780601f106109705761010080835404028352916020019161099b565b820191906000526020600020905b81548152906001019060200180831161097e57829003601f168201915b5050505050905090565b60006109b082611ce5565b6109ef576040517f08c379a00000000000000000000000000000000000000000000000000000000081526004016109e6906142e4565b60405180910390fd5b6004600083815260200190815260200160002060009054906101000a900473ffffffffffffffffffffffffffffffffffffffff169050919050565b6000610a3582610dc7565b90508073ffffffffffffffffffffffffffffffffffffffff168373ffffffffffffffffffffffffffffffffffffffff161415610aa6576040517f08c379a0000000000000000000000000000000000000000000000000000000008152600401610a9d90614364565b60405180910390fd5b8073ffffffffffffffffffffffffffffffffffffffff16610ac5611d51565b73ffffffffffffffffffffffffffffffffffffffff161480610af45750610af381610aee611d51565b6116cc565b5b610b33576040517f08c379a0000000000000000000000000000000000000000000000000000000008152600401610b2a90614224565b60405180910390fd5b610b3d8383611d59565b505050565b6000600880549050905090565b610b60610b5a611d51565b82611e12565b610b9f576040517f08c379a0000000000000000000000000000000000000000000000000000000008152600401610b9690614384565b60405180910390fd5b610baa838383611ef0565b505050565b60116020528060005260406000206000915054906101000a900460ff1681565b6000610bda83610f07565b8210610c1b576040517f08c379a0000000000000000000000000000000000000000000000000000000008152600401610c12906140c4565b60405180910390fd5b600660008473ffffffffffffffffffffffffffffffffffffffff1673ffffffffffffffffffffffffffffffffffffffff168152602001908152602001600020600083815260200190815260200160002054905092915050565b610c8f838383604051806020016040528060008152506115c3565b505050565b6000610c9e610b42565b8210610cdf576040517f08c379a0000000000000000000000000000000000000000000000000000000008152600401610cd6906143a4565b60405180910390fd5b60088281548110610d19577f4e487b7100000000000000000000000000000000000000000000000000000000600052603260045260246000fd5b90600052602060002001549050919050565b610d33611d51565b73ffffffffffffffffffffffffffffffffffffffff16610d51611366565b73ffffffffffffffffffffffffffffffffffffffff1614610da7576040517f08c379a0000000000000000000000000000000000000000000000000000000008152600401610d9e90614304565b60405180910390fd5b80600b9080519060200190610dbd9291906130d7565b5050565b60165481565b6000806002600084815260200190815260200160002060009054906101000a900473ffffffffffffffffffffffffffffffffffffffff169050600073ffffffffffffffffffffffffffffffffffffffff168173ffffffffffffffffffffffffffffffffffffffff161415610e70576040517f08c379a0000000000000000000000000000000000000000000000000000000008152600401610e6790614284565b60405180910390fd5b80915050919050565b600b8054610e8690614664565b80601f0160208091040260200160405190810160405280929190818152602001828054610eb290614664565b8015610eff5780601f10610ed457610100808354040283529160200191610eff565b820191906000526020600020905b815481529060010190602001808311610ee257829003601f168201915b505050505081565b60008073ffffffffffffffffffffffffffffffffffffffff168273ffffffffffffffffffffffffffffffffffffffff161415610f78576040517f08c379a0000000000000000000000000000000000000000000000000000000008152600401610f6f90614244565b60405180910390fd5b600360008373ffffffffffffffffffffffffffffffffffffffff1673ffffffffffffffffffffffffffffffffffffffff168152602001908152602001600020549050919050565b610fc7611d51565b73ffffffffffffffffffffffffffffffffffffffff16610fe5611366565b73ffffffffffffffffffffffffffffffffffffffff161461103b576040517f08c379a000000000000000000000000000000000000000000000000000000000815260040161103290614304565b60405180910390fd5b611045600061214c565b565b6000600c60008373ffffffffffffffffffffffffffffffffffffffff1673ffffffffffffffffffffffffffffffffffffffff16815260200190815260200160002060009054906101000a900460ff169050919050565b60011515601760009054906101000a900460ff161515146110f3576040517f08c379a00000000000000000000000000000000000000000000000000000000081526004016110ea90614104565b60405180910390fd5b600080600061110184611760565b925092509250600115158315151461114e576040517f08c379a000000000000000000000000000000000000000000000000000000000815260040161114590614124565b60405180910390fd5b600015156012600084815260200190815260200160002060009054906101000a900460ff16151514806111a55750600015156013600083815260200190815260200160002060009054906101000a900460ff161515145b6111e4576040517f08c379a00000000000000000000000000000000000000000000000000000000081526004016111db906143e4565b60405180910390fd5b6036601654111561122a576040517f08c379a0000000000000000000000000000000000000000000000000000000008152600401611221906143c4565b60405180910390fd5b6000601654905061123b8582611be5565b600083146112745760016012600085815260200190815260200160002060006101000a81548160ff0219169083151502179055506112a1565b60016013600084815260200190815260200160002060006101000a81548160ff0219169083151502179055505b6001601660008282546112b491906144f3565b925050819055508473ffffffffffffffffffffffffffffffffffffffff167fad8d2d503c921760ea86bfc65c166337e4c183e0a3d65882179babdb57bce42f826040516113019190614404565b60405180910390a25050505050565b6000600d60008373ffffffffffffffffffffffffffffffffffffffff1673ffffffffffffffffffffffffffffffffffffffff16815260200190815260200160002060009054906101000a900460ff169050919050565b6000600a60009054906101000a900473ffffffffffffffffffffffffffffffffffffffff16905090565b60606001805461139f90614664565b80601f01602080910402602001604051908101604052809291908181526020018280546113cb90614664565b80156114185780601f106113ed57610100808354040283529160200191611418565b820191906000526020600020905b8154815290600101906020018083116113fb57829003601f168201915b5050505050905090565b60106020528060005260406000206000915054906101000a900460ff1681565b61144a611d51565b73ffffffffffffffffffffffffffffffffffffffff168273ffffffffffffffffffffffffffffffffffffffff1614156114b8576040517f08c379a00000000000000000000000000000000000000000000000000000000081526004016114af906141c4565b60405180910390fd5b80600560006114c5611d51565b73ffffffffffffffffffffffffffffffffffffffff1673ffffffffffffffffffffffffffffffffffffffff16815260200190815260200160002060008473ffffffffffffffffffffffffffffffffffffffff1673ffffffffffffffffffffffffffffffffffffffff16815260200190815260200160002060006101000a81548160ff0219169083151502179055508173ffffffffffffffffffffffffffffffffffffffff16611572611d51565b73ffffffffffffffffffffffffffffffffffffffff167f17307eab39ab6107e8899845ad3d59bd9653f200f220920489ca2b5937696c31836040516115b79190614050565b60405180910390a35050565b6115d46115ce611d51565b83611e12565b611613576040517f08c379a000000000000000000000000000000000000000000000000000000000815260040161160a90614384565b60405180910390fd5b61161f84848484612212565b50505050565b606061163082611ce5565b61166f576040517f08c379a000000000000000000000000000000000000000000000000000000000815260040161166690614344565b60405180910390fd5b600061167961226e565b9050600081511161169957604051806020016040528060008152506116c4565b806116a384612300565b6040516020016116b4929190613fc5565b6040516020818303038152906040525b915050919050565b6000600560008473ffffffffffffffffffffffffffffffffffffffff1673ffffffffffffffffffffffffffffffffffffffff16815260200190815260200160002060008373ffffffffffffffffffffffffffffffffffffffff1673ffffffffffffffffffffffffffffffffffffffff16815260200190815260200160002060009054906101000a900460ff16905092915050565b6000806000806000611771866124ad565b915091506000806117818861265b565b9150915060011515841515148061179c575060011515821515145b9650868382965096509650505050509193909250565b6117ba611d51565b73ffffffffffffffffffffffffffffffffffffffff166117d8611366565b73ffffffffffffffffffffffffffffffffffffffff161461182e576040517f08c379a000000000000000000000000000000000000000000000000000000000815260040161182590614304565b60405180910390fd5b600073ffffffffffffffffffffffffffffffffffffffff168173ffffffffffffffffffffffffffffffffffffffff16141561189e576040517f08c379a000000000000000000000000000000000000000000000000000000000815260040161189590614144565b60405180910390fd5b6118a78161214c565b50565b6118b2611d51565b73ffffffffffffffffffffffffffffffffffffffff166118d0611366565b73ffffffffffffffffffffffffffffffffffffffff1614611926576040517f08c379a000000000000000000000000000000000000000000000000000000000815260040161191d90614304565b60405180910390fd5b801515601760009054906101000a900460ff161515141561197c576040517f08c379a000000000000000000000000000000000000000000000000000000000815260040161197390614264565b60405180910390fd5b80601760006101000a81548160ff02191690831515021790555050565b60011515601760009054906101000a900460ff161515146119ef576040517f08c379a00000000000000000000000000000000000000000000000000000000081526004016119e690614104565b60405180910390fd5b601160008273ffffffffffffffffffffffffffffffffffffffff1673ffffffffffffffffffffffffffffffffffffffff16815260200190815260200160002060009054906101000a900460ff16611a7b576040517f08c379a0000000000000000000000000000000000000000000000000000000008152600401611a72906141e4565b60405180910390fd5b60011515611a8882611310565b151514611aca576040517f08c379a0000000000000000000000000000000000000000000000000000000008152600401611ac190614184565b60405180910390fd5b60186015541115611b10576040517f08c379a0000000000000000000000000000000000000000000000000000000008152600401611b07906143c4565b60405180910390fd5b60006015549050611b218282611be5565b6001601160008473ffffffffffffffffffffffffffffffffffffffff1673ffffffffffffffffffffffffffffffffffffffff16815260200190815260200160002060006101000a81548160ff021916908315150217905550600160156000828254611b8c91906144f3565b925050819055508173ffffffffffffffffffffffffffffffffffffffff167f365357042f3f04c41ac17b906ce5964e537c182004793c10a23d432081da1e8482604051611bd99190614404565b60405180910390a25050565b611bff828260405180602001604052806000815250612809565b5050565b60007f80ac58cd000000000000000000000000000000000000000000000000000000007bffffffffffffffffffffffffffffffffffffffffffffffffffffffff1916827bffffffffffffffffffffffffffffffffffffffffffffffffffffffff19161480611cce57507f5b5e139f000000000000000000000000000000000000000000000000000000007bffffffffffffffffffffffffffffffffffffffffffffffffffffffff1916827bffffffffffffffffffffffffffffffffffffffffffffffffffffffff1916145b80611cde5750611cdd82612864565b5b9050919050565b60008073ffffffffffffffffffffffffffffffffffffffff166002600084815260200190815260200160002060009054906101000a900473ffffffffffffffffffffffffffffffffffffffff1673ffffffffffffffffffffffffffffffffffffffff1614159050919050565b600033905090565b816004600083815260200190815260200160002060006101000a81548173ffffffffffffffffffffffffffffffffffffffff021916908373ffffffffffffffffffffffffffffffffffffffff160217905550808273ffffffffffffffffffffffffffffffffffffffff16611dcc83610dc7565b73ffffffffffffffffffffffffffffffffffffffff167f8c5be1e5ebec7d5bd14f71427d1e84f3dd0314c0f7b2291e5b200ac8c7c3b92560405160405180910390a45050565b6000611e1d82611ce5565b611e5c576040517f08c379a0000000000000000000000000000000000000000000000000000000008152600401611e5390614204565b60405180910390fd5b6000611e6783610dc7565b90508073ffffffffffffffffffffffffffffffffffffffff168473ffffffffffffffffffffffffffffffffffffffff161480611ed657508373ffffffffffffffffffffffffffffffffffffffff16611ebe846109a5565b73ffffffffffffffffffffffffffffffffffffffff16145b80611ee75750611ee681856116cc565b5b91505092915050565b8273ffffffffffffffffffffffffffffffffffffffff16611f1082610dc7565b73ffffffffffffffffffffffffffffffffffffffff1614611f66576040517f08c379a0000000000000000000000000000000000000000000000000000000008152600401611f5d90614324565b60405180910390fd5b600073ffffffffffffffffffffffffffffffffffffffff168273ffffffffffffffffffffffffffffffffffffffff161415611fd6576040517f08c379a0000000000000000000000000000000000000000000000000000000008152600401611fcd906141a4565b60405180910390fd5b611fe18383836128ce565b611fec600082611d59565b6001600360008573ffffffffffffffffffffffffffffffffffffffff1673ffffffffffffffffffffffffffffffffffffffff168152602001908152602001600020600082825461203c919061457a565b925050819055506001600360008473ffffffffffffffffffffffffffffffffffffffff1673ffffffffffffffffffffffffffffffffffffffff168152602001908152602001600020600082825461209391906144f3565b92505081905550816002600083815260200190815260200160002060006101000a81548173ffffffffffffffffffffffffffffffffffffffff021916908373ffffffffffffffffffffffffffffffffffffffff160217905550808273ffffffffffffffffffffffffffffffffffffffff168473ffffffffffffffffffffffffffffffffffffffff167fddf252ad1be2c89b69c2b068fc378daa952ba7f163c4a11628f55a4df523b3ef60405160405180910390a4505050565b6000600a60009054906101000a900473ffffffffffffffffffffffffffffffffffffffff16905081600a60006101000a81548173ffffffffffffffffffffffffffffffffffffffff021916908373ffffffffffffffffffffffffffffffffffffffff1602179055508173ffffffffffffffffffffffffffffffffffffffff168173ffffffffffffffffffffffffffffffffffffffff167f8be0079c531659141344cd1fd0a4f28419497f9722a3daafe3b4186f6b6457e060405160405180910390a35050565b61221d848484611ef0565b612229848484846129e2565b612268576040517f08c379a000000000000000000000000000000000000000000000000000000000815260040161225f906140e4565b60405180910390fd5b50505050565b6060600b805461227d90614664565b80601f01602080910402602001604051908101604052809291908181526020018280546122a990614664565b80156122f65780601f106122cb576101008083540402835291602001916122f6565b820191906000526020600020905b8154815290600101906020018083116122d957829003601f168201915b5050505050905090565b60606000821415612348576040518060400160405280600181526020017f300000000000000000000000000000000000000000000000000000000000000081525090506124a8565b600082905060005b6000821461237a57808061236390614696565b915050600a826123739190614549565b9150612350565b60008167ffffffffffffffff8111156123bc577f4e487b7100000000000000000000000000000000000000000000000000000000600052604160045260246000fd5b6040519080825280601f01601f1916602001820160405280156123ee5781602001600182028036833780820191505090505b5090505b600085146124a157600182612407919061457a565b9150600a8561241691906146df565b603061242291906144f3565b60f81b81838151811061245e577f4e487b7100000000000000000000000000000000000000000000000000000000600052603260045260246000fd5b60200101907effffffffffffffffffffffffffffffffffffffffffffffffffffffffffffff1916908160001a905350600a8561249a9190614549565b94506123f2565b8093505050505b919050565b6000806000600e60009054906101000a900473ffffffffffffffffffffffffffffffffffffffff16905060005b60188054905081101561264c578473ffffffffffffffffffffffffffffffffffffffff168273ffffffffffffffffffffffffffffffffffffffff16636352211e60188481548110612554577f4e487b7100000000000000000000000000000000000000000000000000000000600052603260045260246000fd5b90600052602060002001546040518263ffffffff1660e01b815260040161257b9190614404565b60206040518083038186803b15801561259357600080fd5b505afa1580156125a7573d6000803e3d6000fd5b505050506040513d601f19601f820116820180604052508101906125cb91906132f1565b73ffffffffffffffffffffffffffffffffffffffff16141561263957600160188281548110612623577f4e487b7100000000000000000000000000000000000000000000000000000000600052603260045260246000fd5b9060005260206000200154935093505050612656565b808061264490614696565b9150506124da565b5060008092509250505b915091565b6000806000600f60009054906101000a900473ffffffffffffffffffffffffffffffffffffffff16905060005b6019805490508110156127fa578473ffffffffffffffffffffffffffffffffffffffff168273ffffffffffffffffffffffffffffffffffffffff16636352211e60198481548110612702577f4e487b7100000000000000000000000000000000000000000000000000000000600052603260045260246000fd5b90600052602060002001546040518263ffffffff1660e01b81526004016127299190614404565b60206040518083038186803b15801561274157600080fd5b505afa158015612755573d6000803e3d6000fd5b505050506040513d601f19601f8201168201806040525081019061277991906132f1565b73ffffffffffffffffffffffffffffffffffffffff1614156127e7576001601982815481106127d1577f4e487b7100000000000000000000000000000000000000000000000000000000600052603260045260246000fd5b9060005260206000200154935093505050612804565b80806127f290614696565b915050612688565b5060008092509250505b915091565b6128138383612b79565b61282060008484846129e2565b61285f576040517f08c379a0000000000000000000000000000000000000000000000000000000008152600401612856906140e4565b60405180910390fd5b505050565b60007f01ffc9a7000000000000000000000000000000000000000000000000000000007bffffffffffffffffffffffffffffffffffffffffffffffffffffffff1916827bffffffffffffffffffffffffffffffffffffffffffffffffffffffff1916149050919050565b6128d9838383612d47565b600073ffffffffffffffffffffffffffffffffffffffff168373ffffffffffffffffffffffffffffffffffffffff16141561291c5761291781612d4c565b61295b565b8173ffffffffffffffffffffffffffffffffffffffff168373ffffffffffffffffffffffffffffffffffffffff161461295a576129598382612d95565b5b5b600073ffffffffffffffffffffffffffffffffffffffff168273ffffffffffffffffffffffffffffffffffffffff16141561299e5761299981612f02565b6129dd565b8273ffffffffffffffffffffffffffffffffffffffff168273ffffffffffffffffffffffffffffffffffffffff16146129dc576129db8282613045565b5b5b505050565b6000612a038473ffffffffffffffffffffffffffffffffffffffff166130c4565b15612b6c578373ffffffffffffffffffffffffffffffffffffffff1663150b7a02612a2c611d51565b8786866040518563ffffffff1660e01b8152600401612a4e9493929190614004565b602060405180830381600087803b158015612a6857600080fd5b505af1925050508015612a9957506040513d601f19601f82011682018060405250810190612a9691906134ea565b60015b612b1c573d8060008114612ac9576040519150601f19603f3d011682016040523d82523d6000602084013e612ace565b606091505b50600081511415612b14576040517f08c379a0000000000000000000000000000000000000000000000000000000008152600401612b0b906140e4565b60405180910390fd5b805181602001fd5b63150b7a0260e01b7bffffffffffffffffffffffffffffffffffffffffffffffffffffffff1916817bffffffffffffffffffffffffffffffffffffffffffffffffffffffff191614915050612b71565b600190505b949350505050565b600073ffffffffffffffffffffffffffffffffffffffff168273ffffffffffffffffffffffffffffffffffffffff161415612be9576040517f08c379a0000000000000000000000000000000000000000000000000000000008152600401612be0906142c4565b60405180910390fd5b612bf281611ce5565b15612c32576040517f08c379a0000000000000000000000000000000000000000000000000000000008152600401612c2990614164565b60405180910390fd5b612c3e600083836128ce565b6001600360008473ffffffffffffffffffffffffffffffffffffffff1673ffffffffffffffffffffffffffffffffffffffff1681526020019081526020016000206000828254612c8e91906144f3565b92505081905550816002600083815260200190815260200160002060006101000a81548173ffffffffffffffffffffffffffffffffffffffff021916908373ffffffffffffffffffffffffffffffffffffffff160217905550808273ffffffffffffffffffffffffffffffffffffffff16600073ffffffffffffffffffffffffffffffffffffffff167fddf252ad1be2c89b69c2b068fc378daa952ba7f163c4a11628f55a4df523b3ef60405160405180910390a45050565b505050565b6008805490506009600083815260200190815260200160002081905550600881908060018154018082558091505060019003906000526020600020016000909190919091505550565b60006001612da284610f07565b612dac919061457a565b9050600060076000848152602001908152602001600020549050818114612e91576000600660008673ffffffffffffffffffffffffffffffffffffffff1673ffffffffffffffffffffffffffffffffffffffff168152602001908152602001600020600084815260200190815260200160002054905080600660008773ffffffffffffffffffffffffffffffffffffffff1673ffffffffffffffffffffffffffffffffffffffff168152602001908152602001600020600084815260200190815260200160002081905550816007600083815260200190815260200160002081905550505b6007600084815260200190815260200160002060009055600660008573ffffffffffffffffffffffffffffffffffffffff1673ffffffffffffffffffffffffffffffffffffffff16815260200190815260200160002060008381526020019081526020016000206000905550505050565b60006001600880549050612f16919061457a565b9050600060096000848152602001908152602001600020549050600060088381548110612f6c577f4e487b7100000000000000000000000000000000000000000000000000000000600052603260045260246000fd5b906000526020600020015490508060088381548110612fb4577f4e487b7100000000000000000000000000000000000000000000000000000000600052603260045260246000fd5b906000526020600020018190555081600960008381526020019081526020016000208190555060096000858152602001908152602001600020600090556008805480613029577f4e487b7100000000000000000000000000000000000000000000000000000000600052603160045260246000fd5b6001900381819060005260206000200160009055905550505050565b600061305083610f07565b905081600660008573ffffffffffffffffffffffffffffffffffffffff1673ffffffffffffffffffffffffffffffffffffffff168152602001908152602001600020600083815260200190815260200160002081905550806007600084815260200190815260200160002081905550505050565b600080823b905060008111915050919050565b8280546130e390614664565b90600052602060002090601f016020900481019282613105576000855561314c565b82601f1061311e57805160ff191683800117855561314c565b8280016001018555821561314c579182015b8281111561314b578251825591602001919060010190613130565b5b509050613159919061315d565b5090565b5b8082111561317657600081600090555060010161315e565b5090565b600061318d61318884614450565b61441f565b9050828152602081018484840111156131a557600080fd5b6131b0848285614622565b509392505050565b60006131cb6131c684614480565b61441f565b9050828152602081018484840111156131e357600080fd5b6131ee848285614622565b509392505050565b600081359050613205816147dd565b92915050565b60008151905061321a816147dd565b92915050565b60008135905061322f816147f4565b92915050565b6000813590506132448161480b565b92915050565b6000815190506132598161480b565b92915050565b600082601f83011261327057600080fd5b813561328084826020860161317a565b91505092915050565b600082601f83011261329a57600080fd5b81356132aa8482602086016131b8565b91505092915050565b6000813590506132c281614822565b92915050565b6000602082840312156132da57600080fd5b60006132e8848285016131f6565b91505092915050565b60006020828403121561330357600080fd5b60006133118482850161320b565b91505092915050565b6000806040838503121561332d57600080fd5b600061333b858286016131f6565b925050602061334c858286016131f6565b9150509250929050565b60008060006060848603121561336b57600080fd5b6000613379868287016131f6565b935050602061338a868287016131f6565b925050604061339b868287016132b3565b9150509250925092565b600080600080608085870312156133bb57600080fd5b60006133c9878288016131f6565b94505060206133da878288016131f6565b93505060406133eb878288016132b3565b925050606085013567ffffffffffffffff81111561340857600080fd5b6134148782880161325f565b91505092959194509250565b6000806040838503121561343357600080fd5b6000613441858286016131f6565b925050602061345285828601613220565b9150509250929050565b6000806040838503121561346f57600080fd5b600061347d858286016131f6565b925050602061348e858286016132b3565b9150509250929050565b6000602082840312156134aa57600080fd5b60006134b884828501613220565b91505092915050565b6000602082840312156134d357600080fd5b60006134e184828501613235565b91505092915050565b6000602082840312156134fc57600080fd5b600061350a8482850161324a565b91505092915050565b60006020828403121561352557600080fd5b600082013567ffffffffffffffff81111561353f57600080fd5b61354b84828501613289565b91505092915050565b60006020828403121561356657600080fd5b6000613574848285016132b3565b91505092915050565b613586816145ae565b82525050565b613595816145c0565b82525050565b60006135a6826144b0565b6135b081856144c6565b93506135c0818560208601614631565b6135c9816147cc565b840191505092915050565b60006135df826144bb565b6135e981856144d7565b93506135f9818560208601614631565b613602816147cc565b840191505092915050565b6000613618826144bb565b61362281856144e8565b9350613632818560208601614631565b80840191505092915050565b600061364b602b836144d7565b91507f455243373231456e756d657261626c653a206f776e657220696e646578206f7560008301527f74206f6620626f756e64730000000000000000000000000000000000000000006020830152604082019050919050565b60006136b16032836144d7565b91507f4552433732313a207472616e7366657220746f206e6f6e20455243373231526560008301527f63656976657220696d706c656d656e74657200000000000000000000000000006020830152604082019050919050565b60006137176014836144d7565b91507f4d696e74206973206e6f7420796574206f70656e0000000000000000000000006000830152602082019050919050565b60006137576028836144d7565b91507f4d757374206265206120686f6c646572206f662047726163654949206f72205360008301527f616665486176656e0000000000000000000000000000000000000000000000006020830152604082019050919050565b60006137bd6026836144d7565b91507f4f776e61626c653a206e6577206f776e657220697320746865207a65726f206160008301527f64647265737300000000000000000000000000000000000000000000000000006020830152604082019050919050565b6000613823601c836144d7565b91507f4552433732313a20746f6b656e20616c7265616479206d696e746564000000006000830152602082019050919050565b6000613863602d836144d7565b91507f57616c6c6574206d7573742062652070617274206f6620746865206e6f6e2d6360008301527f6f6c6c6563746f72206c697374000000000000000000000000000000000000006020830152604082019050919050565b60006138c96024836144d7565b91507f4552433732313a207472616e7366657220746f20746865207a65726f2061646460008301527f72657373000000000000000000000000000000000000000000000000000000006020830152604082019050919050565b600061392f6019836144d7565b91507f4552433732313a20617070726f766520746f2063616c6c6572000000000000006000830152602082019050919050565b600061396f602e836144d7565b91507f57616c6c657420616c7265616479206d696e746564206265666f726520666f7260008301527f20746869732063617465676f72790000000000000000000000000000000000006020830152604082019050919050565b60006139d5602c836144d7565b91507f4552433732313a206f70657261746f7220717565727920666f72206e6f6e657860008301527f697374656e7420746f6b656e00000000000000000000000000000000000000006020830152604082019050919050565b6000613a3b6038836144d7565b91507f4552433732313a20617070726f76652063616c6c6572206973206e6f74206f7760008301527f6e6572206e6f7220617070726f76656420666f7220616c6c00000000000000006020830152604082019050919050565b6000613aa1602a836144d7565b91507f4552433732313a2062616c616e636520717565727920666f7220746865207a6560008301527f726f2061646472657373000000000000000000000000000000000000000000006020830152604082019050919050565b6000613b07601b836144d7565b91507f6d696e744f70656e20616c726561647920746869732076616c756500000000006000830152602082019050919050565b6000613b476029836144d7565b91507f4552433732313a206f776e657220717565727920666f72206e6f6e657869737460008301527f656e7420746f6b656e00000000000000000000000000000000000000000000006020830152604082019050919050565b6000613bad6028836144d7565b91507f57616c6c6574206d75737420626520616e206f70656e2065646974696f6e206360008301527f6f6c6c6563746f720000000000000000000000000000000000000000000000006020830152604082019050919050565b6000613c136020836144d7565b91507f4552433732313a206d696e7420746f20746865207a65726f20616464726573736000830152602082019050919050565b6000613c53602c836144d7565b91507f4552433732313a20617070726f76656420717565727920666f72206e6f6e657860008301527f697374656e7420746f6b656e00000000000000000000000000000000000000006020830152604082019050919050565b6000613cb96020836144d7565b91507f4f776e61626c653a2063616c6c6572206973206e6f7420746865206f776e65726000830152602082019050919050565b6000613cf96029836144d7565b91507f4552433732313a207472616e73666572206f6620746f6b656e2074686174206960008301527f73206e6f74206f776e00000000000000000000000000000000000000000000006020830152604082019050919050565b6000613d5f602f836144d7565b91507f4552433732314d657461646174613a2055524920717565727920666f72206e6f60008301527f6e6578697374656e7420746f6b656e00000000000000000000000000000000006020830152604082019050919050565b6000613dc56021836144d7565b91507f4552433732313a20617070726f76616c20746f2063757272656e74206f776e6560008301527f72000000000000000000000000000000000000000000000000000000000000006020830152604082019050919050565b6000613e2b6031836144d7565b91507f4552433732313a207472616e736665722063616c6c6572206973206e6f74206f60008301527f776e6572206e6f7220617070726f7665640000000000000000000000000000006020830152604082019050919050565b6000613e91602c836144d7565b91507f455243373231456e756d657261626c653a20676c6f62616c20696e646578206f60008301527f7574206f6620626f756e647300000000000000000000000000000000000000006020830152604082019050919050565b6000613ef7603c836144d7565b91507f494e5445524e414c204552524f523a2052656163686564206d617820746f6b6560008301527f6e7320616c6c6f77656420666f7220746869732063617465676f7279000000006020830152604082019050919050565b6000613f5d602e836144d7565b91507f57616c6c6574206d696e74656420616c7265616479206265666f726520666f7260008301527f20746869732063617465676f72790000000000000000000000000000000000006020830152604082019050919050565b613fbf81614618565b82525050565b6000613fd1828561360d565b9150613fdd828461360d565b91508190509392505050565b6000602082019050613ffe600083018461357d565b92915050565b6000608082019050614019600083018761357d565b614026602083018661357d565b6140336040830185613fb6565b8181036060830152614045818461359b565b905095945050505050565b6000602082019050614065600083018461358c565b92915050565b6000606082019050614080600083018661358c565b61408d6020830185613fb6565b61409a6040830184613fb6565b949350505050565b600060208201905081810360008301526140bc81846135d4565b905092915050565b600060208201905081810360008301526140dd8161363e565b9050919050565b600060208201905081810360008301526140fd816136a4565b9050919050565b6000602082019050818103600083015261411d8161370a565b9050919050565b6000602082019050818103600083015261413d8161374a565b9050919050565b6000602082019050818103600083015261415d816137b0565b9050919050565b6000602082019050818103600083015261417d81613816565b9050919050565b6000602082019050818103600083015261419d81613856565b9050919050565b600060208201905081810360008301526141bd816138bc565b9050919050565b600060208201905081810360008301526141dd81613922565b9050919050565b600060208201905081810360008301526141fd81613962565b9050919050565b6000602082019050818103600083015261421d816139c8565b9050919050565b6000602082019050818103600083015261423d81613a2e565b9050919050565b6000602082019050818103600083015261425d81613a94565b9050919050565b6000602082019050818103600083015261427d81613afa565b9050919050565b6000602082019050818103600083015261429d81613b3a565b9050919050565b600060208201905081810360008301526142bd81613ba0565b9050919050565b600060208201905081810360008301526142dd81613c06565b9050919050565b600060208201905081810360008301526142fd81613c46565b9050919050565b6000602082019050818103600083015261431d81613cac565b9050919050565b6000602082019050818103600083015261433d81613cec565b9050919050565b6000602082019050818103600083015261435d81613d52565b9050919050565b6000602082019050818103600083015261437d81613db8565b9050919050565b6000602082019050818103600083015261439d81613e1e565b9050919050565b600060208201905081810360008301526143bd81613e84565b9050919050565b600060208201905081810360008301526143dd81613eea565b9050919050565b600060208201905081810360008301526143fd81613f50565b9050919050565b60006020820190506144196000830184613fb6565b92915050565b6000604051905081810181811067ffffffffffffffff821117156144465761444561479d565b5b8060405250919050565b600067ffffffffffffffff82111561446b5761446a61479d565b5b601f19601f8301169050602081019050919050565b600067ffffffffffffffff82111561449b5761449a61479d565b5b601f19601f8301169050602081019050919050565b600081519050919050565b600081519050919050565b600082825260208201905092915050565b600082825260208201905092915050565b600081905092915050565b60006144fe82614618565b915061450983614618565b9250827fffffffffffffffffffffffffffffffffffffffffffffffffffffffffffffffff0382111561453e5761453d614710565b5b828201905092915050565b600061455482614618565b915061455f83614618565b92508261456f5761456e61473f565b5b828204905092915050565b600061458582614618565b915061459083614618565b9250828210156145a3576145a2614710565b5b828203905092915050565b60006145b9826145f8565b9050919050565b60008115159050919050565b60007fffffffff0000000000000000000000000000000000000000000000000000000082169050919050565b600073ffffffffffffffffffffffffffffffffffffffff82169050919050565b6000819050919050565b82818337600083830152505050565b60005b8381101561464f578082015181840152602081019050614634565b8381111561465e576000848401525b50505050565b6000600282049050600182168061467c57607f821691505b602082108114156146905761468f61476e565b5b50919050565b60006146a182614618565b91507fffffffffffffffffffffffffffffffffffffffffffffffffffffffffffffffff8214156146d4576146d3614710565b5b600182019050919050565b60006146ea82614618565b91506146f583614618565b9250826147055761470461473f565b5b828206905092915050565b7f4e487b7100000000000000000000000000000000000000000000000000000000600052601160045260246000fd5b7f4e487b7100000000000000000000000000000000000000000000000000000000600052601260045260246000fd5b7f4e487b7100000000000000000000000000000000000000000000000000000000600052602260045260246000fd5b7f4e487b7100000000000000000000000000000000000000000000000000000000600052604160045260246000fd5b6000601f19601f8301169050919050565b6147e6816145ae565b81146147f157600080fd5b50565b6147fd816145c0565b811461480857600080fd5b50565b614814816145cc565b811461481f57600080fd5b50565b61482b81614618565b811461483657600080fd5b5056fea2646970667358221220d43f96e7ad37c81baabc881f6977107e03a8166578d1ff925ced583e257db9aa64736f6c63430008000033",
  "immutableReferences": {},
  "source": "// SPDX-License-Identifier: MIT\npragma solidity ^0.8.0;\n\nimport \"../node_modules/openzeppelin-solidity/contracts/token/ERC721/extensions/ERC721Enumerable.sol\";\nimport \"../node_modules/openzeppelin-solidity/contracts/token/ERC721/ERC721.sol\";\nimport \"../node_modules/openzeppelin-solidity/contracts/access/Ownable.sol\";\n\n// Reference contract line 1301\n// https://etherscan.io/address/0xa4631a191044096834ce65d1ee86b16b171d8080#code\ncontract Flower is ERC721Enumerable, Ownable {\n    string public baseURI;\n\n    // Contract or mappings reference\n    mapping(address => bool) oneOfOneCollectors;\n\n    mapping(address => bool) nonCollectors;\n\n    address BuildABetterFutureContract;\n    address TimePieceCommunityContract;\n\n    // mintList\n    mapping(address => bool) public oneOfOneMintList;\n    mapping(address => bool) public nonCollectorsMintList;\n    // tokenId => minted\n    mapping(uint256 => bool) safeHavenTokenMintList;\n    mapping(uint256 => bool) graceIITokenMintList;\n\n    // counters\n    // tokenIds 1 to 14\n    uint256 private oneOfOneMintedCount = 1;\n\n    // tokenIds 15 to 24\n    uint256 private nonCollectorsMintedCount = 15;\n\n    // tokenIds 25 to 54\n    uint256 public openEditionCollectorsMintedCount = 25;\n\n    bool private mintOpen = false;\n\n    //these tokens must exists, otherwise the check fails cos of _exists\n    uint256[] safeHavenTokens = [1]; //babF\n    uint256[] graceIITokens = [2]; // IRB\n\n    modifier whenMintOpened() {\n        require(mintOpen == true, \"Mint is not yet open\");\n        _;\n    }\n\n    constructor(\n        string memory _initBaseURI,\n        address buildABetterFutureContract,\n        address timePieceCommunityContract\n    ) ERC721(\"Flowers\", \"FLW\") {\n        setBaseURI(_initBaseURI);\n\n        BuildABetterFutureContract = buildABetterFutureContract;\n        TimePieceCommunityContract = timePieceCommunityContract;\n\n        // define one-of-one-collectors\n        // TOdo: fill here with the address from the sheet\n        oneOfOneCollectors[0x53C379A44018504059D01Ee3eB9645Cb115fD932] = true;\n\n        // define non-collectors\n        nonCollectors[0x821aEa9a577a9b44299B9c15c88cf3087F3b5544] = true;\n        nonCollectors[0x53C379A44018504059D01Ee3eB9645Cb115fD932] = true;\n\n        // _safeMint(_msgSender(),1);\n        // _safeMint(_msgSender(),2);\n        // _safeMint(_msgSender(),3);\n        // _safeMint(_msgSender(),4);\n        // _safeMint(_msgSender(),5);\n    }\n\n    function _baseURI() internal view virtual override returns (string memory) {\n        return baseURI;\n    }\n\n    function setBaseURI(string memory newURI) public onlyOwner {\n        baseURI = newURI;\n    }\n\n    function setMintOpen(bool value) external onlyOwner {\n        require(mintOpen != value, \"mintOpen already this value\");\n        mintOpen = value;\n    }\n\n    // function to determine if sender is is1Of1Holder\n    function isOneOfOneCollector(address _wallet) public view returns (bool) {\n        return oneOfOneCollectors[_wallet];\n    }\n\n    // function to determine if sender is non-collector hodler\n    function isNonCollector(address _wallet) public view returns (bool) {\n        return nonCollectors[_wallet];\n    }\n\n    function _safeHavenOwner(address _wallet)\n        internal\n        view\n        returns (bool _holder, uint256 _tokenId)\n    {\n        ERC721 buildABetterFuture = ERC721(BuildABetterFutureContract);\n\n        for (uint256 i = 0; i < safeHavenTokens.length; i++) {\n            if (buildABetterFuture.ownerOf(safeHavenTokens[i]) == _wallet) {\n                return (true, safeHavenTokens[i]);\n            }\n        }\n        return (false, 0);\n    }\n\n    function _graceIIOwner(address _wallet)\n        internal\n        view\n        returns (bool _holder, uint256 _tokenId)\n    {\n        ERC721 timePieceCommunity = ERC721(TimePieceCommunityContract);\n\n        for (uint256 i = 0; i < graceIITokens.length; i++) {\n            if (timePieceCommunity.ownerOf(graceIITokens[i]) == _wallet) {\n                return (true, graceIITokens[i]);\n            }\n        }\n        return (false, 0);\n    }\n\n    // function to determine if sender is open-edition collector\n    // open edition collector = holderOfTimePieceCommunity or holderOfBuildABetterFuture\n    function isOpenEditionCollector(address _wallet)\n        public\n        view\n        returns (\n            bool isHolder,\n            uint256 _safeHavenTokenId,\n            uint256 _graceIITokenId\n        )\n    {\n        (bool _safeHavenHolder, uint256 _safeHavenTokenId) = _safeHavenOwner(\n            _wallet\n        );\n        (bool _graceIIHolder, uint256 _graceIITokenId) = _graceIIOwner(_wallet);\n\n        isHolder = _safeHavenHolder == true || _graceIIHolder == true;\n        return (isHolder, _safeHavenTokenId, _graceIITokenId);\n    }\n\n    // function to allow 1 of 1 holder collector mint\n    function mint1Of1Holder(address _wallet) external whenMintOpened {\n        require(\n            oneOfOneMintList[_wallet],\n            \"Wallet already minted before for this category\"\n        );\n        require(\n            isOneOfOneCollector(_wallet) == true,\n            \"Wallet must be an open edition collector\"\n        );\n        // this condition should actually never be triggered, but having it here incase\n        // might remove later to save compiled code space.\n        require(\n            oneOfOneMintedCount <= 14,\n            \"INTERNAL ERROR: Reached max tokens allowed for this category\"\n        );\n        uint256 tokenId = oneOfOneMintedCount;\n\n        _safeMint(_wallet, tokenId);\n\n        oneOfOneMintList[_wallet] = true;\n        oneOfOneMintedCount += 1;\n\n        emit LogMintOneOfOneHolder(_wallet, tokenId);\n    }\n\n    // function to allow non-collector mint\n    function mintNonCollector(address _wallet) external whenMintOpened {\n        require(\n            nonCollectorsMintList[_wallet],\n            \"Wallet already minted before for this category\"\n        );\n        require(\n            isNonCollector(_wallet) == true,\n            \"Wallet must be part of the non-collector list\"\n        );\n\n        // this condition should actually never be triggered, but having it here incase\n        // might remove later to save compiled code space.\n        require(\n            nonCollectorsMintedCount <= 24,\n            \"INTERNAL ERROR: Reached max tokens allowed for this category\"\n        );\n        uint256 tokenId = nonCollectorsMintedCount;\n\n        _safeMint(_wallet, tokenId);\n\n        nonCollectorsMintList[_wallet] = true;\n        nonCollectorsMintedCount += 1;\n        emit LogMintNonCollector(_wallet, tokenId);\n    }\n\n    // function to allow open-edition collector mint\n    function mintOpenEdition(address _wallet) external whenMintOpened {\n        (\n            bool isHolder,\n            uint256 _safeHavenTokenId,\n            uint256 _graceIITokenId\n        ) = isOpenEditionCollector(_wallet);\n        require(\n            isHolder == true,\n            \"Must be a holder of GraceII or SafeHaven\"\n        );\n        require(\n            safeHavenTokenMintList[_safeHavenTokenId] == false ||\n                graceIITokenMintList[_graceIITokenId] == false,\n            \"Wallet minted already before for this category\"\n        );\n\n        // Todod: store a mapping ( openEditionTOkenId => bool )\n        require(\n            openEditionCollectorsMintedCount <= 54,\n            \"INTERNAL ERROR: Reached max tokens allowed for this category\"\n        );\n        uint256 tokenId = openEditionCollectorsMintedCount;\n\n        _safeMint(_wallet, tokenId);\n\n        // -- store tokenId and address that minted\n        if (_safeHavenTokenId != 0) {\n            safeHavenTokenMintList[_safeHavenTokenId] = true;\n        } else {\n            graceIITokenMintList[_graceIITokenId] = true;\n        }\n\n        openEditionCollectorsMintedCount += 1;\n        emit LogMintOpenEdition(_wallet, tokenId);\n    }\n\n    // Events\n    event LogMintOneOfOneHolder(address indexed _address, uint256 _tokenId);\n    event LogMintNonCollector(address indexed _address, uint256 _tokenId);\n    event LogMintOpenEdition(address indexed _address, uint256 _tokenId);\n}\n",
  "sourcePath": "/Users/mac/Desktop/Flower-drop/contracts/Flower.sol",
  "compiler": {
    "name": "solc",
    "version": "0.8.0+commit.c7dfd78e.Emscripten.clang"
  },
  "schemaVersion": "3.4.3",
  "updatedAt": "2021-11-28T23:34:46.002Z",
  "devdoc": {
    "kind": "dev",
    "methods": {
      "approve(address,uint256)": {
        "details": "See {IERC721-approve}."
      },
      "balanceOf(address)": {
        "details": "See {IERC721-balanceOf}."
      },
      "getApproved(uint256)": {
        "details": "See {IERC721-getApproved}."
      },
      "isApprovedForAll(address,address)": {
        "details": "See {IERC721-isApprovedForAll}."
      },
      "name()": {
        "details": "See {IERC721Metadata-name}."
      },
      "owner()": {
        "details": "Returns the address of the current owner."
      },
      "ownerOf(uint256)": {
        "details": "See {IERC721-ownerOf}."
      },
      "renounceOwnership()": {
        "details": "Leaves the contract without owner. It will not be possible to call `onlyOwner` functions anymore. Can only be called by the current owner. NOTE: Renouncing ownership will leave the contract without an owner, thereby removing any functionality that is only available to the owner."
      },
      "safeTransferFrom(address,address,uint256)": {
        "details": "See {IERC721-safeTransferFrom}."
      },
      "safeTransferFrom(address,address,uint256,bytes)": {
        "details": "See {IERC721-safeTransferFrom}."
      },
      "setApprovalForAll(address,bool)": {
        "details": "See {IERC721-setApprovalForAll}."
      },
      "supportsInterface(bytes4)": {
        "details": "See {IERC165-supportsInterface}."
      },
      "symbol()": {
        "details": "See {IERC721Metadata-symbol}."
      },
      "tokenByIndex(uint256)": {
        "details": "See {IERC721Enumerable-tokenByIndex}."
      },
      "tokenOfOwnerByIndex(address,uint256)": {
        "details": "See {IERC721Enumerable-tokenOfOwnerByIndex}."
      },
      "tokenURI(uint256)": {
        "details": "See {IERC721Metadata-tokenURI}."
      },
      "totalSupply()": {
        "details": "See {IERC721Enumerable-totalSupply}."
      },
      "transferFrom(address,address,uint256)": {
        "details": "See {IERC721-transferFrom}."
      },
      "transferOwnership(address)": {
        "details": "Transfers ownership of the contract to a new account (`newOwner`). Can only be called by the current owner."
      }
    },
    "version": 1
  },
  "userdoc": {
    "kind": "user",
    "methods": {},
    "version": 1
  }
}