{
  "contractName": "MockedERC721",
  "abi": [
    {
      "inputs": [],
      "stateMutability": "nonpayable",
      "type": "constructor"
    },
    {
      "anonymous": false,
      "inputs": [
        {
          "indexed": true,
          "internalType": "address",
          "name": "owner",
          "type": "address"
        },
        {
          "indexed": true,
          "internalType": "address",
          "name": "approved",
          "type": "address"
        },
        {
          "indexed": true,
          "internalType": "uint256",
          "name": "tokenId",
          "type": "uint256"
        }
      ],
      "name": "Approval",
      "type": "event"
    },
    {
      "anonymous": false,
      "inputs": [
        {
          "indexed": true,
          "internalType": "address",
          "name": "owner",
          "type": "address"
        },
        {
          "indexed": true,
          "internalType": "address",
          "name": "operator",
          "type": "address"
        },
        {
          "indexed": false,
          "internalType": "bool",
          "name": "approved",
          "type": "bool"
        }
      ],
      "name": "ApprovalForAll",
      "type": "event"
    },
    {
      "anonymous": false,
      "inputs": [
        {
          "indexed": true,
          "internalType": "address",
          "name": "previousOwner",
          "type": "address"
        },
        {
          "indexed": true,
          "internalType": "address",
          "name": "newOwner",
          "type": "address"
        }
      ],
      "name": "OwnershipTransferred",
      "type": "event"
    },
    {
      "anonymous": false,
      "inputs": [
        {
          "indexed": true,
          "internalType": "address",
          "name": "from",
          "type": "address"
        },
        {
          "indexed": true,
          "internalType": "address",
          "name": "to",
          "type": "address"
        },
        {
          "indexed": true,
          "internalType": "uint256",
          "name": "tokenId",
          "type": "uint256"
        }
      ],
      "name": "Transfer",
      "type": "event"
    },
    {
      "inputs": [
        {
          "internalType": "address",
          "name": "to",
          "type": "address"
        },
        {
          "internalType": "uint256",
          "name": "tokenId",
          "type": "uint256"
        }
      ],
      "name": "approve",
      "outputs": [],
      "stateMutability": "nonpayable",
      "type": "function"
    },
    {
      "inputs": [
        {
          "internalType": "address",
          "name": "owner",
          "type": "address"
        }
      ],
      "name": "balanceOf",
      "outputs": [
        {
          "internalType": "uint256",
          "name": "",
          "type": "uint256"
        }
      ],
      "stateMutability": "view",
      "type": "function"
    },
    {
      "inputs": [
        {
          "internalType": "uint256",
          "name": "tokenId",
          "type": "uint256"
        }
      ],
      "name": "getApproved",
      "outputs": [
        {
          "internalType": "address",
          "name": "",
          "type": "address"
        }
      ],
      "stateMutability": "view",
      "type": "function"
    },
    {
      "inputs": [
        {
          "internalType": "address",
          "name": "owner",
          "type": "address"
        },
        {
          "internalType": "address",
          "name": "operator",
          "type": "address"
        }
      ],
      "name": "isApprovedForAll",
      "outputs": [
        {
          "internalType": "bool",
          "name": "",
          "type": "bool"
        }
      ],
      "stateMutability": "view",
      "type": "function"
    },
    {
      "inputs": [],
      "name": "name",
      "outputs": [
        {
          "internalType": "string",
          "name": "",
          "type": "string"
        }
      ],
      "stateMutability": "view",
      "type": "function"
    },
    {
      "inputs": [],
      "name": "owner",
      "outputs": [
        {
          "internalType": "address",
          "name": "",
          "type": "address"
        }
      ],
      "stateMutability": "view",
      "type": "function"
    },
    {
      "inputs": [
        {
          "internalType": "uint256",
          "name": "tokenId",
          "type": "uint256"
        }
      ],
      "name": "ownerOf",
      "outputs": [
        {
          "internalType": "address",
          "name": "",
          "type": "address"
        }
      ],
      "stateMutability": "view",
      "type": "function"
    },
    {
      "inputs": [],
      "name": "renounceOwnership",
      "outputs": [],
      "stateMutability": "nonpayable",
      "type": "function"
    },
    {
      "inputs": [
        {
          "internalType": "address",
          "name": "from",
          "type": "address"
        },
        {
          "internalType": "address",
          "name": "to",
          "type": "address"
        },
        {
          "internalType": "uint256",
          "name": "tokenId",
          "type": "uint256"
        }
      ],
      "name": "safeTransferFrom",
      "outputs": [],
      "stateMutability": "nonpayable",
      "type": "function"
    },
    {
      "inputs": [
        {
          "internalType": "address",
          "name": "from",
          "type": "address"
        },
        {
          "internalType": "address",
          "name": "to",
          "type": "address"
        },
        {
          "internalType": "uint256",
          "name": "tokenId",
          "type": "uint256"
        },
        {
          "internalType": "bytes",
          "name": "_data",
          "type": "bytes"
        }
      ],
      "name": "safeTransferFrom",
      "outputs": [],
      "stateMutability": "nonpayable",
      "type": "function"
    },
    {
      "inputs": [
        {
          "internalType": "address",
          "name": "operator",
          "type": "address"
        },
        {
          "internalType": "bool",
          "name": "approved",
          "type": "bool"
        }
      ],
      "name": "setApprovalForAll",
      "outputs": [],
      "stateMutability": "nonpayable",
      "type": "function"
    },
    {
      "inputs": [
        {
          "internalType": "bytes4",
          "name": "interfaceId",
          "type": "bytes4"
        }
      ],
      "name": "supportsInterface",
      "outputs": [
        {
          "internalType": "bool",
          "name": "",
          "type": "bool"
        }
      ],
      "stateMutability": "view",
      "type": "function"
    },
    {
      "inputs": [],
      "name": "symbol",
      "outputs": [
        {
          "internalType": "string",
          "name": "",
          "type": "string"
        }
      ],
      "stateMutability": "view",
      "type": "function"
    },
    {
      "inputs": [
        {
          "internalType": "uint256",
          "name": "tokenId",
          "type": "uint256"
        }
      ],
      "name": "tokenURI",
      "outputs": [
        {
          "internalType": "string",
          "name": "",
          "type": "string"
        }
      ],
      "stateMutability": "view",
      "type": "function"
    },
    {
      "inputs": [
        {
          "internalType": "address",
          "name": "from",
          "type": "address"
        },
        {
          "internalType": "address",
          "name": "to",
          "type": "address"
        },
        {
          "internalType": "uint256",
          "name": "tokenId",
          "type": "uint256"
        }
      ],
      "name": "transferFrom",
      "outputs": [],
      "stateMutability": "nonpayable",
      "type": "function"
    },
    {
      "inputs": [
        {
          "internalType": "address",
          "name": "newOwner",
          "type": "address"
        }
      ],
      "name": "transferOwnership",
      "outputs": [],
      "stateMutability": "nonpayable",
      "type": "function"
    },
    {
      "inputs": [
        {
          "internalType": "address",
          "name": "to",
          "type": "address"
        },
        {
          "internalType": "uint256",
          "name": "tokenId",
          "type": "uint256"
        }
      ],
      "name": "mint",
      "outputs": [],
      "stateMutability": "nonpayable",
      "type": "function"
    }
  ],
  "bytecode": "0x60806040523480156200001157600080fd5b506040518060400160405280600c81526020017f4d6f636b656445524337323100000000000000000000000000000000000000008152506040518060400160405280600c81526020017f4d6f636b65644552433732310000000000000000000000000000000000000000815250816000908051906020019062000096929190620001a6565b508060019080519060200190620000af929190620001a6565b505050620000d2620000c6620000d860201b60201c565b620000e060201b60201c565b620002bb565b600033905090565b6000600660009054906101000a900473ffffffffffffffffffffffffffffffffffffffff16905081600660006101000a81548173ffffffffffffffffffffffffffffffffffffffff021916908373ffffffffffffffffffffffffffffffffffffffff1602179055508173ffffffffffffffffffffffffffffffffffffffff168173ffffffffffffffffffffffffffffffffffffffff167f8be0079c531659141344cd1fd0a4f28419497f9722a3daafe3b4186f6b6457e060405160405180910390a35050565b828054620001b49062000256565b90600052602060002090601f016020900481019282620001d8576000855562000224565b82601f10620001f357805160ff191683800117855562000224565b8280016001018555821562000224579182015b828111156200022357825182559160200191906001019062000206565b5b50905062000233919062000237565b5090565b5b808211156200025257600081600090555060010162000238565b5090565b600060028204905060018216806200026f57607f821691505b602082108114156200028657620002856200028c565b5b50919050565b7f4e487b7100000000000000000000000000000000000000000000000000000000600052602260045260246000fd5b61297d80620002cb6000396000f3fe608060405234801561001057600080fd5b506004361061010b5760003560e01c806370a08231116100a2578063a22cb46511610071578063a22cb465146102a4578063b88d4fde146102c0578063c87b56dd146102dc578063e985e9c51461030c578063f2fde38b1461033c5761010b565b806370a082311461022e578063715018a61461025e5780638da5cb5b1461026857806395d89b41146102865761010b565b806323b872dd116100de57806323b872dd146101aa57806340c10f19146101c657806342842e0e146101e25780636352211e146101fe5761010b565b806301ffc9a71461011057806306fdde0314610140578063081812fc1461015e578063095ea7b31461018e575b600080fd5b61012a60048036038101906101259190611b67565b610358565b6040516101379190612305565b60405180910390f35b61014861043a565b6040516101559190612320565b60405180910390f35b61017860048036038101906101739190611bb9565b6104cc565b604051610185919061229e565b60405180910390f35b6101a860048036038101906101a39190611b2b565b610551565b005b6101c460048036038101906101bf9190611a25565b610669565b005b6101e060048036038101906101db9190611b2b565b6106c9565b005b6101fc60048036038101906101f79190611a25565b6106d7565b005b61021860048036038101906102139190611bb9565b6106f7565b604051610225919061229e565b60405180910390f35b610248600480360381019061024391906119c0565b6107a9565b6040516102559190612542565b60405180910390f35b610266610861565b005b6102706108e9565b60405161027d919061229e565b60405180910390f35b61028e610913565b60405161029b9190612320565b60405180910390f35b6102be60048036038101906102b99190611aef565b6109a5565b005b6102da60048036038101906102d59190611a74565b610b26565b005b6102f660048036038101906102f19190611bb9565b610b88565b6040516103039190612320565b60405180910390f35b610326600480360381019061032191906119e9565b610c2f565b6040516103339190612305565b60405180910390f35b610356600480360381019061035191906119c0565b610cc3565b005b60007f80ac58cd000000000000000000000000000000000000000000000000000000007bffffffffffffffffffffffffffffffffffffffffffffffffffffffff1916827bffffffffffffffffffffffffffffffffffffffffffffffffffffffff1916148061042357507f5b5e139f000000000000000000000000000000000000000000000000000000007bffffffffffffffffffffffffffffffffffffffffffffffffffffffff1916827bffffffffffffffffffffffffffffffffffffffffffffffffffffffff1916145b80610433575061043282610dbb565b5b9050919050565b60606000805461044990612772565b80601f016020809104026020016040519081016040528092919081815260200182805461047590612772565b80156104c25780601f10610497576101008083540402835291602001916104c2565b820191906000526020600020905b8154815290600101906020018083116104a557829003601f168201915b5050505050905090565b60006104d782610e25565b610516576040517f08c379a000000000000000000000000000000000000000000000000000000000815260040161050d90612482565b60405180910390fd5b6004600083815260200190815260200160002060009054906101000a900473ffffffffffffffffffffffffffffffffffffffff169050919050565b600061055c826106f7565b90508073ffffffffffffffffffffffffffffffffffffffff168373ffffffffffffffffffffffffffffffffffffffff1614156105cd576040517f08c379a00000000000000000000000000000000000000000000000000000000081526004016105c490612502565b60405180910390fd5b8073ffffffffffffffffffffffffffffffffffffffff166105ec610e91565b73ffffffffffffffffffffffffffffffffffffffff16148061061b575061061a81610615610e91565b610c2f565b5b61065a576040517f08c379a000000000000000000000000000000000000000000000000000000000815260040161065190612402565b60405180910390fd5b6106648383610e99565b505050565b61067a610674610e91565b82610f52565b6106b9576040517f08c379a00000000000000000000000000000000000000000000000000000000081526004016106b090612522565b60405180910390fd5b6106c4838383611030565b505050565b6106d3828261128c565b5050565b6106f283838360405180602001604052806000815250610b26565b505050565b6000806002600084815260200190815260200160002060009054906101000a900473ffffffffffffffffffffffffffffffffffffffff169050600073ffffffffffffffffffffffffffffffffffffffff168173ffffffffffffffffffffffffffffffffffffffff1614156107a0576040517f08c379a000000000000000000000000000000000000000000000000000000000815260040161079790612442565b60405180910390fd5b80915050919050565b60008073ffffffffffffffffffffffffffffffffffffffff168273ffffffffffffffffffffffffffffffffffffffff16141561081a576040517f08c379a000000000000000000000000000000000000000000000000000000000815260040161081190612422565b60405180910390fd5b600360008373ffffffffffffffffffffffffffffffffffffffff1673ffffffffffffffffffffffffffffffffffffffff168152602001908152602001600020549050919050565b610869610e91565b73ffffffffffffffffffffffffffffffffffffffff166108876108e9565b73ffffffffffffffffffffffffffffffffffffffff16146108dd576040517f08c379a00000000000000000000000000000000000000000000000000000000081526004016108d4906124a2565b60405180910390fd5b6108e7600061145a565b565b6000600660009054906101000a900473ffffffffffffffffffffffffffffffffffffffff16905090565b60606001805461092290612772565b80601f016020809104026020016040519081016040528092919081815260200182805461094e90612772565b801561099b5780601f106109705761010080835404028352916020019161099b565b820191906000526020600020905b81548152906001019060200180831161097e57829003601f168201915b5050505050905090565b6109ad610e91565b73ffffffffffffffffffffffffffffffffffffffff168273ffffffffffffffffffffffffffffffffffffffff161415610a1b576040517f08c379a0000000000000000000000000000000000000000000000000000000008152600401610a12906123c2565b60405180910390fd5b8060056000610a28610e91565b73ffffffffffffffffffffffffffffffffffffffff1673ffffffffffffffffffffffffffffffffffffffff16815260200190815260200160002060008473ffffffffffffffffffffffffffffffffffffffff1673ffffffffffffffffffffffffffffffffffffffff16815260200190815260200160002060006101000a81548160ff0219169083151502179055508173ffffffffffffffffffffffffffffffffffffffff16610ad5610e91565b73ffffffffffffffffffffffffffffffffffffffff167f17307eab39ab6107e8899845ad3d59bd9653f200f220920489ca2b5937696c3183604051610b1a9190612305565b60405180910390a35050565b610b37610b31610e91565b83610f52565b610b76576040517f08c379a0000000000000000000000000000000000000000000000000000000008152600401610b6d90612522565b60405180910390fd5b610b8284848484611520565b50505050565b6060610b9382610e25565b610bd2576040517f08c379a0000000000000000000000000000000000000000000000000000000008152600401610bc9906124e2565b60405180910390fd5b6000610bdc61157c565b90506000815111610bfc5760405180602001604052806000815250610c27565b80610c0684611593565b604051602001610c1792919061227a565b6040516020818303038152906040525b915050919050565b6000600560008473ffffffffffffffffffffffffffffffffffffffff1673ffffffffffffffffffffffffffffffffffffffff16815260200190815260200160002060008373ffffffffffffffffffffffffffffffffffffffff1673ffffffffffffffffffffffffffffffffffffffff16815260200190815260200160002060009054906101000a900460ff16905092915050565b610ccb610e91565b73ffffffffffffffffffffffffffffffffffffffff16610ce96108e9565b73ffffffffffffffffffffffffffffffffffffffff1614610d3f576040517f08c379a0000000000000000000000000000000000000000000000000000000008152600401610d36906124a2565b60405180910390fd5b600073ffffffffffffffffffffffffffffffffffffffff168173ffffffffffffffffffffffffffffffffffffffff161415610daf576040517f08c379a0000000000000000000000000000000000000000000000000000000008152600401610da690612362565b60405180910390fd5b610db88161145a565b50565b60007f01ffc9a7000000000000000000000000000000000000000000000000000000007bffffffffffffffffffffffffffffffffffffffffffffffffffffffff1916827bffffffffffffffffffffffffffffffffffffffffffffffffffffffff1916149050919050565b60008073ffffffffffffffffffffffffffffffffffffffff166002600084815260200190815260200160002060009054906101000a900473ffffffffffffffffffffffffffffffffffffffff1673ffffffffffffffffffffffffffffffffffffffff1614159050919050565b600033905090565b816004600083815260200190815260200160002060006101000a81548173ffffffffffffffffffffffffffffffffffffffff021916908373ffffffffffffffffffffffffffffffffffffffff160217905550808273ffffffffffffffffffffffffffffffffffffffff16610f0c836106f7565b73ffffffffffffffffffffffffffffffffffffffff167f8c5be1e5ebec7d5bd14f71427d1e84f3dd0314c0f7b2291e5b200ac8c7c3b92560405160405180910390a45050565b6000610f5d82610e25565b610f9c576040517f08c379a0000000000000000000000000000000000000000000000000000000008152600401610f93906123e2565b60405180910390fd5b6000610fa7836106f7565b90508073ffffffffffffffffffffffffffffffffffffffff168473ffffffffffffffffffffffffffffffffffffffff16148061101657508373ffffffffffffffffffffffffffffffffffffffff16610ffe846104cc565b73ffffffffffffffffffffffffffffffffffffffff16145b8061102757506110268185610c2f565b5b91505092915050565b8273ffffffffffffffffffffffffffffffffffffffff16611050826106f7565b73ffffffffffffffffffffffffffffffffffffffff16146110a6576040517f08c379a000000000000000000000000000000000000000000000000000000000815260040161109d906124c2565b60405180910390fd5b600073ffffffffffffffffffffffffffffffffffffffff168273ffffffffffffffffffffffffffffffffffffffff161415611116576040517f08c379a000000000000000000000000000000000000000000000000000000000815260040161110d906123a2565b60405180910390fd5b611121838383611740565b61112c600082610e99565b6001600360008573ffffffffffffffffffffffffffffffffffffffff1673ffffffffffffffffffffffffffffffffffffffff168152602001908152602001600020600082825461117c9190612688565b925050819055506001600360008473ffffffffffffffffffffffffffffffffffffffff1673ffffffffffffffffffffffffffffffffffffffff16815260200190815260200160002060008282546111d39190612601565b92505081905550816002600083815260200190815260200160002060006101000a81548173ffffffffffffffffffffffffffffffffffffffff021916908373ffffffffffffffffffffffffffffffffffffffff160217905550808273ffffffffffffffffffffffffffffffffffffffff168473ffffffffffffffffffffffffffffffffffffffff167fddf252ad1be2c89b69c2b068fc378daa952ba7f163c4a11628f55a4df523b3ef60405160405180910390a4505050565b600073ffffffffffffffffffffffffffffffffffffffff168273ffffffffffffffffffffffffffffffffffffffff1614156112fc576040517f08c379a00000000000000000000000000000000000000000000000000000000081526004016112f390612462565b60405180910390fd5b61130581610e25565b15611345576040517f08c379a000000000000000000000000000000000000000000000000000000000815260040161133c90612382565b60405180910390fd5b61135160008383611740565b6001600360008473ffffffffffffffffffffffffffffffffffffffff1673ffffffffffffffffffffffffffffffffffffffff16815260200190815260200160002060008282546113a19190612601565b92505081905550816002600083815260200190815260200160002060006101000a81548173ffffffffffffffffffffffffffffffffffffffff021916908373ffffffffffffffffffffffffffffffffffffffff160217905550808273ffffffffffffffffffffffffffffffffffffffff16600073ffffffffffffffffffffffffffffffffffffffff167fddf252ad1be2c89b69c2b068fc378daa952ba7f163c4a11628f55a4df523b3ef60405160405180910390a45050565b6000600660009054906101000a900473ffffffffffffffffffffffffffffffffffffffff16905081600660006101000a81548173ffffffffffffffffffffffffffffffffffffffff021916908373ffffffffffffffffffffffffffffffffffffffff1602179055508173ffffffffffffffffffffffffffffffffffffffff168173ffffffffffffffffffffffffffffffffffffffff167f8be0079c531659141344cd1fd0a4f28419497f9722a3daafe3b4186f6b6457e060405160405180910390a35050565b61152b848484611030565b61153784848484611745565b611576576040517f08c379a000000000000000000000000000000000000000000000000000000000815260040161156d90612342565b60405180910390fd5b50505050565b606060405180602001604052806000815250905090565b606060008214156115db576040518060400160405280600181526020017f3000000000000000000000000000000000000000000000000000000000000000815250905061173b565b600082905060005b6000821461160d5780806115f6906127a4565b915050600a826116069190612657565b91506115e3565b60008167ffffffffffffffff81111561164f577f4e487b7100000000000000000000000000000000000000000000000000000000600052604160045260246000fd5b6040519080825280601f01601f1916602001820160405280156116815781602001600182028036833780820191505090505b5090505b600085146117345760018261169a9190612688565b9150600a856116a991906127ed565b60306116b59190612601565b60f81b8183815181106116f1577f4e487b7100000000000000000000000000000000000000000000000000000000600052603260045260246000fd5b60200101907effffffffffffffffffffffffffffffffffffffffffffffffffffffffffffff1916908160001a905350600a8561172d9190612657565b9450611685565b8093505050505b919050565b505050565b60006117668473ffffffffffffffffffffffffffffffffffffffff166118dc565b156118cf578373ffffffffffffffffffffffffffffffffffffffff1663150b7a0261178f610e91565b8786866040518563ffffffff1660e01b81526004016117b194939291906122b9565b602060405180830381600087803b1580156117cb57600080fd5b505af19250505080156117fc57506040513d601f19601f820116820180604052508101906117f99190611b90565b60015b61187f573d806000811461182c576040519150601f19603f3d011682016040523d82523d6000602084013e611831565b606091505b50600081511415611877576040517f08c379a000000000000000000000000000000000000000000000000000000000815260040161186e90612342565b60405180910390fd5b805181602001fd5b63150b7a0260e01b7bffffffffffffffffffffffffffffffffffffffffffffffffffffffff1916817bffffffffffffffffffffffffffffffffffffffffffffffffffffffff1916149150506118d4565b600190505b949350505050565b600080823b905060008111915050919050565b60006119026118fd8461258e565b61255d565b90508281526020810184848401111561191a57600080fd5b611925848285612730565b509392505050565b60008135905061193c816128eb565b92915050565b60008135905061195181612902565b92915050565b60008135905061196681612919565b92915050565b60008151905061197b81612919565b92915050565b600082601f83011261199257600080fd5b81356119a28482602086016118ef565b91505092915050565b6000813590506119ba81612930565b92915050565b6000602082840312156119d257600080fd5b60006119e08482850161192d565b91505092915050565b600080604083850312156119fc57600080fd5b6000611a0a8582860161192d565b9250506020611a1b8582860161192d565b9150509250929050565b600080600060608486031215611a3a57600080fd5b6000611a488682870161192d565b9350506020611a598682870161192d565b9250506040611a6a868287016119ab565b9150509250925092565b60008060008060808587031215611a8a57600080fd5b6000611a988782880161192d565b9450506020611aa98782880161192d565b9350506040611aba878288016119ab565b925050606085013567ffffffffffffffff811115611ad757600080fd5b611ae387828801611981565b91505092959194509250565b60008060408385031215611b0257600080fd5b6000611b108582860161192d565b9250506020611b2185828601611942565b9150509250929050565b60008060408385031215611b3e57600080fd5b6000611b4c8582860161192d565b9250506020611b5d858286016119ab565b9150509250929050565b600060208284031215611b7957600080fd5b6000611b8784828501611957565b91505092915050565b600060208284031215611ba257600080fd5b6000611bb08482850161196c565b91505092915050565b600060208284031215611bcb57600080fd5b6000611bd9848285016119ab565b91505092915050565b611beb816126bc565b82525050565b611bfa816126ce565b82525050565b6000611c0b826125be565b611c1581856125d4565b9350611c2581856020860161273f565b611c2e816128da565b840191505092915050565b6000611c44826125c9565b611c4e81856125e5565b9350611c5e81856020860161273f565b611c67816128da565b840191505092915050565b6000611c7d826125c9565b611c8781856125f6565b9350611c9781856020860161273f565b80840191505092915050565b6000611cb06032836125e5565b91507f4552433732313a207472616e7366657220746f206e6f6e20455243373231526560008301527f63656976657220696d706c656d656e74657200000000000000000000000000006020830152604082019050919050565b6000611d166026836125e5565b91507f4f776e61626c653a206e6577206f776e657220697320746865207a65726f206160008301527f64647265737300000000000000000000000000000000000000000000000000006020830152604082019050919050565b6000611d7c601c836125e5565b91507f4552433732313a20746f6b656e20616c7265616479206d696e746564000000006000830152602082019050919050565b6000611dbc6024836125e5565b91507f4552433732313a207472616e7366657220746f20746865207a65726f2061646460008301527f72657373000000000000000000000000000000000000000000000000000000006020830152604082019050919050565b6000611e226019836125e5565b91507f4552433732313a20617070726f766520746f2063616c6c6572000000000000006000830152602082019050919050565b6000611e62602c836125e5565b91507f4552433732313a206f70657261746f7220717565727920666f72206e6f6e657860008301527f697374656e7420746f6b656e00000000000000000000000000000000000000006020830152604082019050919050565b6000611ec86038836125e5565b91507f4552433732313a20617070726f76652063616c6c6572206973206e6f74206f7760008301527f6e6572206e6f7220617070726f76656420666f7220616c6c00000000000000006020830152604082019050919050565b6000611f2e602a836125e5565b91507f4552433732313a2062616c616e636520717565727920666f7220746865207a6560008301527f726f2061646472657373000000000000000000000000000000000000000000006020830152604082019050919050565b6000611f946029836125e5565b91507f4552433732313a206f776e657220717565727920666f72206e6f6e657869737460008301527f656e7420746f6b656e00000000000000000000000000000000000000000000006020830152604082019050919050565b6000611ffa6020836125e5565b91507f4552433732313a206d696e7420746f20746865207a65726f20616464726573736000830152602082019050919050565b600061203a602c836125e5565b91507f4552433732313a20617070726f76656420717565727920666f72206e6f6e657860008301527f697374656e7420746f6b656e00000000000000000000000000000000000000006020830152604082019050919050565b60006120a06020836125e5565b91507f4f776e61626c653a2063616c6c6572206973206e6f7420746865206f776e65726000830152602082019050919050565b60006120e06029836125e5565b91507f4552433732313a207472616e73666572206f6620746f6b656e2074686174206960008301527f73206e6f74206f776e00000000000000000000000000000000000000000000006020830152604082019050919050565b6000612146602f836125e5565b91507f4552433732314d657461646174613a2055524920717565727920666f72206e6f60008301527f6e6578697374656e7420746f6b656e00000000000000000000000000000000006020830152604082019050919050565b60006121ac6021836125e5565b91507f4552433732313a20617070726f76616c20746f2063757272656e74206f776e6560008301527f72000000000000000000000000000000000000000000000000000000000000006020830152604082019050919050565b60006122126031836125e5565b91507f4552433732313a207472616e736665722063616c6c6572206973206e6f74206f60008301527f776e6572206e6f7220617070726f7665640000000000000000000000000000006020830152604082019050919050565b61227481612726565b82525050565b60006122868285611c72565b91506122928284611c72565b91508190509392505050565b60006020820190506122b36000830184611be2565b92915050565b60006080820190506122ce6000830187611be2565b6122db6020830186611be2565b6122e8604083018561226b565b81810360608301526122fa8184611c00565b905095945050505050565b600060208201905061231a6000830184611bf1565b92915050565b6000602082019050818103600083015261233a8184611c39565b905092915050565b6000602082019050818103600083015261235b81611ca3565b9050919050565b6000602082019050818103600083015261237b81611d09565b9050919050565b6000602082019050818103600083015261239b81611d6f565b9050919050565b600060208201905081810360008301526123bb81611daf565b9050919050565b600060208201905081810360008301526123db81611e15565b9050919050565b600060208201905081810360008301526123fb81611e55565b9050919050565b6000602082019050818103600083015261241b81611ebb565b9050919050565b6000602082019050818103600083015261243b81611f21565b9050919050565b6000602082019050818103600083015261245b81611f87565b9050919050565b6000602082019050818103600083015261247b81611fed565b9050919050565b6000602082019050818103600083015261249b8161202d565b9050919050565b600060208201905081810360008301526124bb81612093565b9050919050565b600060208201905081810360008301526124db816120d3565b9050919050565b600060208201905081810360008301526124fb81612139565b9050919050565b6000602082019050818103600083015261251b8161219f565b9050919050565b6000602082019050818103600083015261253b81612205565b9050919050565b6000602082019050612557600083018461226b565b92915050565b6000604051905081810181811067ffffffffffffffff82111715612584576125836128ab565b5b8060405250919050565b600067ffffffffffffffff8211156125a9576125a86128ab565b5b601f19601f8301169050602081019050919050565b600081519050919050565b600081519050919050565b600082825260208201905092915050565b600082825260208201905092915050565b600081905092915050565b600061260c82612726565b915061261783612726565b9250827fffffffffffffffffffffffffffffffffffffffffffffffffffffffffffffffff0382111561264c5761264b61281e565b5b828201905092915050565b600061266282612726565b915061266d83612726565b92508261267d5761267c61284d565b5b828204905092915050565b600061269382612726565b915061269e83612726565b9250828210156126b1576126b061281e565b5b828203905092915050565b60006126c782612706565b9050919050565b60008115159050919050565b60007fffffffff0000000000000000000000000000000000000000000000000000000082169050919050565b600073ffffffffffffffffffffffffffffffffffffffff82169050919050565b6000819050919050565b82818337600083830152505050565b60005b8381101561275d578082015181840152602081019050612742565b8381111561276c576000848401525b50505050565b6000600282049050600182168061278a57607f821691505b6020821081141561279e5761279d61287c565b5b50919050565b60006127af82612726565b91507fffffffffffffffffffffffffffffffffffffffffffffffffffffffffffffffff8214156127e2576127e161281e565b5b600182019050919050565b60006127f882612726565b915061280383612726565b9250826128135761281261284d565b5b828206905092915050565b7f4e487b7100000000000000000000000000000000000000000000000000000000600052601160045260246000fd5b7f4e487b7100000000000000000000000000000000000000000000000000000000600052601260045260246000fd5b7f4e487b7100000000000000000000000000000000000000000000000000000000600052602260045260246000fd5b7f4e487b7100000000000000000000000000000000000000000000000000000000600052604160045260246000fd5b6000601f19601f8301169050919050565b6128f4816126bc565b81146128ff57600080fd5b50565b61290b816126ce565b811461291657600080fd5b50565b612922816126da565b811461292d57600080fd5b50565b61293981612726565b811461294457600080fd5b5056fea26469706673582212201c3d1c9554c5c6ae6cfd9cdaaaa1ca9c6f23b889dcae5d0da66159f2782b10e864736f6c63430008000033",
  "immutableReferences": {},
  "source": "// SPDX-License-Identifier: MIT\npragma solidity ^0.8.0;\n\nimport \"../node_modules/openzeppelin-solidity/contracts/token/ERC721/ERC721.sol\";\nimport \"../node_modules/openzeppelin-solidity/contracts/access/Ownable.sol\";\n\ncontract MockedERC721 is ERC721, Ownable {\n    constructor() ERC721(\"MockedERC721\", \"MockedERC721\") {}\n\n    function mint(address to, uint256 tokenId) external {\n        _mint(to, tokenId);\n    }\n}\n",
  "sourcePath": "/Users/eo/workspace/lethabo-aniversary-drop/contracts/MockedERC721.sol",
  "compiler": {
    "name": "solc",
    "version": "0.8.0+commit.c7dfd78e.Emscripten.clang"
  },
  "schemaVersion": "3.4.3",
  "updatedAt": "2021-11-29T12:40:46.231Z",
  "devdoc": {
    "kind": "dev",
    "methods": {
      "approve(address,uint256)": {
        "details": "See {IERC721-approve}."
      },
      "balanceOf(address)": {
        "details": "See {IERC721-balanceOf}."
      },
      "getApproved(uint256)": {
        "details": "See {IERC721-getApproved}."
      },
      "isApprovedForAll(address,address)": {
        "details": "See {IERC721-isApprovedForAll}."
      },
      "name()": {
        "details": "See {IERC721Metadata-name}."
      },
      "owner()": {
        "details": "Returns the address of the current owner."
      },
      "ownerOf(uint256)": {
        "details": "See {IERC721-ownerOf}."
      },
      "renounceOwnership()": {
        "details": "Leaves the contract without owner. It will not be possible to call `onlyOwner` functions anymore. Can only be called by the current owner. NOTE: Renouncing ownership will leave the contract without an owner, thereby removing any functionality that is only available to the owner."
      },
      "safeTransferFrom(address,address,uint256)": {
        "details": "See {IERC721-safeTransferFrom}."
      },
      "safeTransferFrom(address,address,uint256,bytes)": {
        "details": "See {IERC721-safeTransferFrom}."
      },
      "setApprovalForAll(address,bool)": {
        "details": "See {IERC721-setApprovalForAll}."
      },
      "supportsInterface(bytes4)": {
        "details": "See {IERC165-supportsInterface}."
      },
      "symbol()": {
        "details": "See {IERC721Metadata-symbol}."
      },
      "tokenURI(uint256)": {
        "details": "See {IERC721Metadata-tokenURI}."
      },
      "transferFrom(address,address,uint256)": {
        "details": "See {IERC721-transferFrom}."
      },
      "transferOwnership(address)": {
        "details": "Transfers ownership of the contract to a new account (`newOwner`). Can only be called by the current owner."
      }
    },
    "version": 1
  },
  "userdoc": {
    "kind": "user",
    "methods": {},
    "version": 1
  }
}